:020000041000EA
:10000000002000081B0100100D0000007D01001001
:1000100000000000000000000000000000000000E0
:100020000000000000000000000000007901001046
:1000300000000000000000007901001079010010AC
:100040007901001079010010790100107901001088
:100050007901001079010010790100107901001078
:100060007901001079010010790100107901001068
:100070007901001079010010790100107901001058
:100080000448054B10B5834203D0044B002B00D02D
:10009000984710BD780300087803000800000000AE
:1000A00006480749091A8B10C90FC91810B549101D
:1000B00003D0044B002B00D0984710BD78030008F4
:1000C000780300080000000010B5074C2378002BCF
:1000D00009D1FFF7D5FF054B002B02D0044800E003
:1000E00000BF0123237010BDB00300080000000012
:1000F00094150010054B10B5002B03D0044905489A
:1001000000E000BFFFF7CCFF10BDC04600000000BC
:10011000B4030008941500107047FFF7FDFF72B696
:100120000F4C104DAC4209DA21686268A368043BA9
:1001300002DBC858D050FAE70C34F3E70A490B4AFF
:100140000020521A02DD043A8850FCDC08480949B4
:100150000860BFF34F8F00F06FF800F01DF8FEE766
:10016000A0150010B8150010B0030008C80500085D
:100170000000000808ED00E0FEE7FEE700B50420FF
:100180007146084202D0EFF3098002E0EFF30880E5
:10019000043000F0BBFDFEE710B562B6034800F086
:1001A000C3F8002000F0BAFEFBE7C04600200010B4
:1001B00010B5002000F090FA10BD704770B5002017
:1001C00000F0EEFC041E28D0144B186000F064FB15
:1001D000411C200000F080FF114B0400186000F06B
:1001E0004DFB411C200000F077FF04000D4B013C4B
:1001F00018600D49200000F06FFFFA210B4D01300F
:1002000028708900200000F067FF094D0130286048
:10021000002000F0C5FC074B186070BD8800000886
:100220008C0000088000000840420F009400000885
:10023000900000088400000810B5204800F0ACF8D9
:10024000B022E02130201E4CD200A35889005B0070
:100250005B08A35063588343635080235B04A3501F
:10026000184B194AE250A02204339201E250FF22B7
:10027000164BE25000F014FFC02201215200A35897
:100280008B43A350FFF799FFFFF798FF104B032014
:100290001A681300BA33198807234B43126A802166
:1002A0009B180022DA605A600A4A00F05FFA0A4896
:1002B00000F022F9094800F05BF910BDD4140010D9
:1002C0000000264084050000010002008C050000AB
:1002D0004C05000878030008CC030008A0140010A7
:1002E0009023034A5B01D058032318407047C0464F
:1002F0000000204010B5902400F047F8074B64013F
:100300001959074A1140074A0A431A5110225968DD
:100310001142FCD000F03DF810BDC0460000204066
:10032000FCFF00000100FA05F8B590260E4C76019E
:10033000070000F02AF8A3590500DB439B0701D111
:10034000FFF7D8FF80239B00E750A259074B1A40C4
:10035000074B1343A351102362681A42FCD02800B4
:1003600000F017F8F8BDC04600002040FCFF000078
:100370000300FA05000000000230800803D00130BD
:100380000238FCD1C046C0467047EFF3108072B609
:10039000704780F310887047014B18607047C04663
:1003A0004C050008044B1B681A00BA3212881B6AFD
:1003B0005043C0187047C0464C050008A02300B544
:1003C0001B06984226D015D8802825D00AD8102898
:1003D00024D0402824D000280BD0154809E0A420C0
:1003E000C00306E08022134B520090421CD098427A
:1003F000F3D100BD104B984218D0104BC018042800
:10040000EBD800F05FFEECEA0F0305000C48F0E7C4
:100410000C48EEE70020ECE70B48EAE70B48E8E77A
:100420000B48E6E70B48E4E71800E2E7A020D7E72F
:10043000FF00520006005200090000A0FFFFFF0F5E
:10044000020052000300520005005200010050005B
:10045000020050000100520010B50020FFF7A2FF7B
:100460000A4B1C682300BC331B68C0180368002BB0
:100470000ADB074B1868FFF7A1FF012263689A6047
:100480009A68002AFCD110BD0248FCE74C05000820
:100490005005000802005000064B1B68BC331B6867
:1004A000C3181B68002B03DA89B241600020704733
:1004B0000148FCE74C05000801008A000368002B96
:1004C00004DA89B2C2608160002070470048FCE70E
:1004D00001008A00064B1B68BC331B68C3181B68ED
:1004E000002B03DAC36800200B6070470148FCE76B
:1004F0004C05000801008A00024B1A68002A00D14E
:100500001860704764050008F0B52C24154E44436C
:1005100030681F000019FF241E0A26402740124C95
:100520001B0C256807602C6A46608360BA352D88ED
:100530006F433F190761370080377F01E7190B4D83
:1005400076014761A4191F043B436419236000230B
:100550008361059BC2610162002B01D01B888381EE
:10056000F0BDC046640500084C05000808100000F6
:10057000F0B50400236987B0026841680393A3685B
:1005800004AD1732C0682B806A80039BA26A059174
:100590000095E16A266A676AFFF7B6FF00213B0013
:1005A0000A0030000091FFF7AFFF2800216B00F038
:1005B00077FB0022AB5E002B06DB1F2213401E3AA6
:1005C0009A401300014A136007B0F0BD00E100E05B
:1005D000F0B585B003931B4B16001C682C235843C1
:1005E0004B4320180769E418002F27D0A569002D78
:1005F00026D13B68002B23DA134B1B6834331B785E
:100600000193436801996068029300F0EBFD0122B9
:100610008A40336812049BB2134333600123FE60A7
:10062000A361039B01996362029800F0DBFD012343
:100630008B409BB2BB60280005B0F0BD034DFAE7CC
:10064000034DF8E7640500084C05000804028A0021
:1006500007028A0073B5002642690400D568019636
:100660002B0CB34221D01B0413601368194B006993
:100670001B68BC331B68C3181B68B34215DA01A999
:10068000FFF728FFB0420CD10198E26903681E0C05
:10069000DBB29A4205D9226A9B009B58002B00D0FE
:1006A000984731002069FFF7F7FEADB2002D09D061
:1006B00063691D6000251B68636AAB4205D09847DB
:1006C0006562A56163691B6873BDA36A002BF8D0DE
:1006D0009847F6E74C0500082C2310B54343034A1E
:1006E0001068C018FFF7B6FF10BDC04664050008CB
:1006F0001A4B70B51A680C00130033331B78834211
:100700002AD9002928D00D681F212B000B400D424B
:1007100022D11100BA310988126A48431900104DDC
:100720008018286022685209934210D30021FFF7F5
:10073000B3FE002122002868FFF7C0FE011E04D18D
:100740002868FFF7A9FE002800D0064870BD62683F
:100750009E00B1500133E5E70348F7E74C05000878
:100760006805000801018A0003018A000B0010B52A
:10077000002A0DD1002914D10B4A0C4C11680A0033
:10078000BA321288096A424352182260180010BD1A
:10079000002906D006490B604A60FFF7A9FF030055
:1007A000F4E7044BF2E7C0464C0500086805000872
:1007B0008803000803018A00F7B51B4F04003B685B
:1007C0000E00002B2BD0DB681A68824229D9002545
:1007D0005B680193A94202D1FFF7D7FD0500386895
:1007E0000368002B19DA1F23012223409A40640971
:1007F000019BA4001C1921680A420CD0914321607E
:1008000000240021FFF748FE002E02D12800FFF748
:10081000C0FD2000FEBD054CF3E7054CF4E7034C9A
:10082000F7E7044CF5E7C0466805000802018800B8
:100830000301880004018A000C4B1B68002B11D0B7
:10084000DB681A6882420FD959681F234209184091
:100850001E3B8340920050581840431E9841044B61
:10086000C01870470348FCE70348FAE7680500082A
:10087000000188000201880004018A00054B1B6802
:100880001A0088321B6812689B181868000AC0B2E8
:100890007047C0464C050008044B1B681A0088329C
:1008A0001B6812689B181868000E70474C050008FA
:1008B000034BE0308000C0588006800F7047C04670
:1008C00000002640024B18694007C00F7047C04621
:1008D00000002740A6220549D2008B580220DB43A6
:1008E0009B0702D00123885818407047000026401B
:1008F00010B5FFF7EFFF0023022801D1014B1B6861
:10090000180010BD70050008084A83009B18D0220B
:100910009200985807221040042806D1C022920065
:100920009B581F22FC30134018437047000026409C
:1009300010B5FFF7E9FF88235B0098421CD00BD865
:10094000012813D0022814D0431E9841104B404276
:100950001840104BC01810BD1223FF33984210D01E
:100960001423FF33984210D00020F4E70A4B186894
:10097000F1E7FFF7BDFFEEE7084A094BD058C00F7B
:1009800001E0FFF79FFFC003E5E7044A054BF5E7E9
:1009900000EE85FF00127A006C050008000026407A
:1009A0000C0500003C050000B023154ADB00D358BD
:1009B00010B59903DB01DB0F890BC371114B01608B
:1009C000D3580F24D904DB01DB0D0381B123DB00F5
:1009D000D358C90C81801900214081721909214026
:1009E000C172D9029B009B0F8373074BC90CD3586C
:1009F00081815A05DB01520FDB0D8271038210BD2C
:100A000000002640840500008C0500008030034B68
:100A1000FF308000C058C00F7047C046000026401D
:100A20000F4B421E1B683F331B78934216D9803010
:100A30007F220C4BFF308000C3581F201A400A70E1
:100A40001A0A02404A701A0C02408A701A01C24007
:100A500000209B009B0FCA700B7170470248FCE797
:100A60004C0500080000264001004A00F0B589B09E
:100A700003AD2800FFF798FFB0230026164ADB00DD
:100A8000D358B34224DAAB7B022B21D0AC88B442DA
:100A90001ED03000ED79039FFFF74AFF220033009C
:100AA00031000190681C00F0C3FB0C00050033000E
:100AB0003A003100019800F0BBFBE6076A083243B8
:100AC0006308801859412A00230000F091FB0600BA
:100AD000300009B0F0BDC04600002640F7B5234BFA
:100AE00006001B683F331B78002B08D000283BD042
:100AF000834204D36946FFF793FF041E01D000260A
:100B000032E03000FFF782FF2300002805D06B465B
:100B10001C79023C23005A1E93416A461778547888
:100B20009578002BEBD0002CE9D0002DE7D03000D9
:100B3000FFF7FEFE002306002A002000190000F047
:100B400077FB00230C0005003A003000190000F08C
:100B50006FFBE6076A0832436308801859412A0090
:100B6000230000F045FB06003000FEBD4C050008E8
:100B700010B5041E04D1FFF779FF002806D008E065
:100B8000064B1B683F331B78834203D22000FFF7DC
:100B9000CFFE10BDFFF7A2FFEFE7C0464C050008EF
:100BA00070B50500FFF784FEE035074BAD0004008B
:100BB000E8580F231840FFF7DBFF0123A3405B0831
:100BC0001818E04070BDC0460000264030B5FF2533
:100BD00003242A000440E400A24089012940D243B2
:100BE000A14083B200280ADBC0240B4B80088000A0
:100BF000C018A400035913400B43035130BD0F200C
:100C00000340083B05489B089B001B18D86902401D
:100C10000A43DA61F2E7C04600E100E000ED00E0DF
:100C2000144B30B51B6807241A002C3212781F2A87
:100C300015D882081500A5432C1E0FD1033420407F
:100C4000A04081401B68920020339B180A00FF21BE
:100C500081401C68624011406140196030BD1A68D3
:100C6000802320401B06034380208001091889004F
:100C70008B50F3E74C050008064B10B59A68064CFC
:100C800010308300A24202D19858995010BD034AF7
:100C9000D058FBE700ED00E0000000080000001065
:100CA000F7B504000E00002801D1144C17E0002312
:100CB000C55E134B4188134F0193002D11DB2800B3
:100CC000FFF7AEFF61682800FFF780FFBB68019A5D
:100CD0000024934203D131002800FFF7CDFF20000C
:100CE000FEBD08B26168FFF771FFBB68019A9342CD
:100CF000DBD131002800FFF7BFFFD6E70100560027
:100D00000000000800ED00E0FEE7000002680A4B6A
:100D100010B51A6042685A6082689A60C268DA60E8
:100D200002691A6142695A6182699A61C269DA612B
:100D3000FFF7EAFF10BDC04690030008B0235B0533
:100D40005A782120002A01D05878C0B27047B023C9
:100D50005B059A89002A02D0988980B2704780206A
:100D60004000FBE7254B73B586000D00F4580429BD
:100D700001D0012925D100200EE0A3682B420AD121
:100D8000E36829001A685B6868460193009223684B
:100D900098471B4B1C606469002C0AD0194B984281
:100DA000EBD1012DE9D1164A174B126815489A511B
:100DB00076BD012DFCD1134B9842F4D0124B9C51BF
:100DC000F6E7022914D026006469002CFBD100202C
:100DD000002EEDD0B3682B4208D1F36829001A68C1
:100DE0005B68684601930092336898473669EFE77D
:100DF000034B1B68181EDBD01E69E8E7B40500082A
:100E0000B0050008FF0042009C0500081A4B1B6853
:100E1000190088311A6809685118096801621900B7
:100E20008C3109685218126842621A0046321278F0
:100E3000002A1FD09A68E0321268D2061AD5F22230
:100E4000DB68D2019A580260F022D2019A584260BF
:100E50000A4A9A5882600A4A9A58C260094A9A58BD
:100E60000261094A9A584261084A9A588261084ABE
:100E70009B58C3617047C0464C05000804780000C9
:100E8000087800000C78000010780000147800004A
:100E9000187800001A4B1B681900883109681A6815
:100EA0005218016A116019008C3109681A685218C9
:100EB000416A11601A0046321278002A1ED09A68E0
:100EC000E0321268D20619D5F0224168DB68D201FF
:100ED000995081680B4A9950C1680B4A9950016931
:100EE0000A4A995041690A4A99508169094A9950B8
:100EF000C169094A99500168E83299507047C04663
:100F00004C05000804780000087800000C78000008
:100F1000107800001478000018780000F7B505007C
:100F2000FFF70CFF564F01907B68002B00D06FE05D
:100F3000FFF72BFA7B680090002B00D07CE0514B30
:100F400007271C682300BA331B885F43236AFB18FA
:100F50001A68002AFCDADB68DA001ED51B0F4A4843
:100F60001E07FFF753FF22008832126823684749A3
:100F70009B181A6801980A40212862D1902000012C
:100F800002431A6022008C32126823689B181A6888
:100F90000A40104318603C4B3343802292051343B0
:100FA000226A0024BF18FB607C607B68FFF7CFFEDD
:100FB0008023344F5B00984246D1280000F068FA45
:100FC0003F6807223B00BA331E883B6A5643F3183A
:100FD0001A68002AFCDADD68EB0003D52801000955
:100FE000FFF758FF00222A4B00981D403B6AF31878
:100FF000DD605A60FFF7CDF9002C10D1204B5B6803
:10100000002B03D008210120FFF7ACFE2000FEBD1D
:1010100001210800FFF7A6FE041E00D188E7184B47
:101020005B68002B03D002210120FFF79BFE194BC8
:101030009C42EBD0184CE9E704210120FFF792FE17
:101040007DE7802040009BE73B681A00BC32196AAC
:10105000126852181168002910DBBA331B889B18DC
:101060001B68002B0ADB04230C4A11690B43136134
:10107000012D01D030BFA3E720BFA1E7054C9FE7BA
:10108000B40500084C05000874050008FF00FFFFC8
:10109000FFFFFFDF05004200FF00420000ED00E01F
:1010A000C0228020064952008B58C0059B009B0837
:1010B00003438B50802388581B0603438B50704793
:1010C0000000264002B4714649084900095649000B
:1010D0008E4402BC7047C046002243088B4274D342
:1010E00003098B425FD3030A8B4244D3030B8B4229
:1010F00028D3030C8B420DD3FF22090212BA030C32
:101100008B4202D31212090265D0030B8B4219D312
:1011100000E0090AC30B8B4201D3CB03C01A524132
:10112000830B8B4201D38B03C01A5241430B8B427A
:1011300001D34B03C01A5241030B8B4201D30B0363
:10114000C01A5241C30A8B4201D3CB02C01A52418A
:10115000830A8B4201D38B02C01A5241430A8B424D
:1011600001D34B02C01A5241030A8B4201D30B0236
:10117000C01A5241CDD2C3098B4201D3CB01C01A50
:10118000524183098B4201D38B01C01A524143095A
:101190008B4201D34B01C01A524103098B4201D348
:1011A0000B01C01A5241C3088B4201D3CB00C01AB5
:1011B000524183088B4201D38B00C01A524143082D
:1011C0008B4201D34B00C01A5241411A00D2014652
:1011D000524110467047FFE701B5002000F006F8C5
:1011E00002BDC0460029F7D076E770477047C04679
:1011F000002B11D1002A0FD1002900D1002802D0E4
:101200000021C943080007B4024802A14018029017
:1012100003BDC046D9FFFFFF03B4684601B502987D
:1012200000F034F8019B9E4602B00CBC7047C046EB
:10123000F0B5CE469946030C9C46130447461B0C5A
:101240001D000E0061460404240C80B50700100C3C
:101250004B436543414360432C0CC01820188C4617
:10126000834203D980235B029846C44449467943AC
:101270005643030C2D042D0C8919634400044019B6
:10128000C918C0BCB946B046F0BDC046F0B5574617
:101290004E464546DE46E0B504000D0092469946AE
:1012A00083B08B4230D82DD04946504600F0D8F854
:1012B00029000600200000F0D3F8331A9846203B9E
:1012C00034D49B4653465A46934042461F005346E9
:1012D00093401E00AF423BD8AF4200D179E05B465D
:1012E000A41BBD41002B00DA76E00022002300920F
:1012F000019301235A4693400193012342469340B0
:10130000009329E08242CFD900220023009201936A
:101310000C9B002B01D01C605D600098019903B00C
:10132000F0BCBB46B246A946A046F0BD42469B462D
:1013300020239B1A5246DA40414613004A468A400F
:10134000170042461F43534693401E00AF42C3D985
:1013500000220023009201934346002BD8D0FB07C4
:1013600072081A4346467B080EE0AB4201D1A24206
:101370000CD8A41A9D41012024196D410021013E81
:1013800024184D41002E06D0AB42EED9013E24195F
:101390006D41002EF8D1009801995B460019694112
:1013A000002B24DB2B005A464446D3402A00E2405F
:1013B0001C005B461500002B2ADB26009E403300F4
:1013C00026004746BE403200801A994100900191A4
:1013D0009EE7A342BCD882E74246202300219B1A05
:1013E0000022009101920122DA40019285E74246F3
:1013F00020239B1A2A0046469A402300F340444685
:1014000013432A00E2401C005B461500002BD4DA8F
:1014100042462F002023260097409B1ADE403B00C7
:101420003343CDE71C2101231B04984201D3000C58
:1014300010391B0A984201D3000A08391B09984247
:1014400001D30009043902A2105C40187047C0465D
:10145000040302020101010100000000000000007D
:1014600010B5002903D1FFF7DDFF203002E00800AE
:10147000FFF7D8FF10BDC046F8B5C046F8BC08BCA1
:101480009E467047F8B5C046F8BC08BC9E467047FB
:1014900001B40248844601BC604700BF61020008F5
:1014A0000300000001000000010000000000000037
:1014B00005036000040000000100000000000000BF
:1014C0000100000006046000080000002C05000870
:1014D000B101001000002040000024400000004046
:1014E00000000000000023400000304000003140B8
:1014F00000009F40000022400000104000009B4080
:101500002020202020132010101E2080170075009E
:10151000FF03050104001C03100000001FC00000B1
:1015200000040000000000000019324B647D02023C
:10153000000000804000080B100000000000FF01C8
:101540002002001F00800004FF0810180010001483
:101550000018001C4044484C5000000008100000D7
:101560000800000004000000041000000012000049
:10157000042100000021000000160000401140027C
:10158000C41300138013A01340138813A813200062
:101590001C00000000000000F4FCFF7F01000000C0
:1015A000000000100000000880000000C0150010BE
:1015B00080000008F8020000B003000818020000D4
:1015C00000093D0000093D0000127A0000093D00BD
:1015D000A00F000004000000F5000010C90000107A
:1015E00080B230B5C400002820D0114B1868030029
:1015F000BA331A8807235343026A9A1811680029DC
:10160000FCDA3E210B4A062511600B4A0B4911609A
:10161000A3210B4AC90055500A495450006A545836
:101620001B18002058605358002BFCDA30BDC04610
:101630004C05000804012640080126401E1F00003A
:10164000000026401C05000010B54378FF2B11D187
:1016500000F01AF90400032000F0FEF80121C3682D
:101660005B681A680A431A601A680A42FCD12000B3
:1016700000F0DAF810BDF7B507000020019100F086
:10168000EBF83E4C050023681A005033BC32166854
:101690001B788619002B59D000F0EEF80090032833
:1016A0001AD000F0F1F8364A364B0400D358002B1C
:1016B0003CDA01212800344A00F0F6F8002835D140
:1016C0000198FFF78DFF002F3ED03368002BFCDB25
:1016D00000F0BAF805002AE0062000F0BDF8236803
:1016E000BC331B68C0180368002B02DA274D2800A2
:1016F000FEBD002000F0B8F8254B9842F6D000233C
:10170000244A19000120126800F096F8041EEDD159
:10171000002000F0A9F81E4A1F4B904203D09C42C3
:10172000E4D00134F4E79C42BBD1DFE7174D009BC6
:10173000032B05D10121002000F0AEF80028F9D1DB
:10174000200000F071F8D2E7144DF0E700F09CF8AB
:10175000012104000C4A280000F0A6F8002808D156
:10176000002F08D03368002BFCDB00F06DF805007B
:10177000E6E7064DE4E7094DE2E7C0464C05000800
:10178000000026401C05000050050008050052001E
:101790000101880060050008F049020001005000C6
:1017A000184BF7B51B6818495A6804230C69234382
:1017B0000B61012824D030BF1300FC331B69002BC0
:1017C0001DD1A324114B12481249E40007681E5989
:1017D0000D680195104D056006251D513E240C60D5
:1017E0000E4C3E351D511D59002DFCDA0C4CFC32BF
:1017F0001461A322D20007609E50019B0B60F7BDCD
:1018000020BFD9E74C05000800ED00E000002640AD
:1018100008012640040126401E1F00001C05000090
:10182000AAAAAAAA0000000001B40248844601BC8A
:10183000604700BF9303001001B40248844601BC16
:10184000604700BFD105001001B40248844601BCC6
:10185000604700BF5904001001B40248844601BC2F
:10186000604700BFA503001001B40248844601BCD4
:10187000604700BF3908001001B40248844601BC2B
:10188000604700BFE102001001B40248844601BC79
:10189000604700BF8B03001001B40248844601BCBE
:1018A000604700BFB907001001B40248844601BC7C
:1018B000604700BFBD0400100000000000000000F1
:1018C0000000000000000000000000000000000018
:1020000000F801088D2300100D00000001240010CD
:102010000124001001240010012400100000000021
:10202000000000000000000000000000014D001052
:10203000FD23001000000000A14D0010A54C001071
:10204000FD23001000000000FD230010FD23001000
:1020500000000000FD230010FD230010FD230010F0
:10206000FD230010FD230010FD230010FD230010B0
:10207000FD23001000000000FD230010FD230010D0
:10208000FD230010FD230010FD230010FD23001090
:10209000FD230010FD230010FD230010FD23001080
:1020A000FD230010FD230010FD230010FD23001070
:1020B000FD230010FD230010FD230010FD23001060
:1020C000FD230010FD230010FD230010FD23001050
:1020D000FD230010FD230010FD230010FD23001040
:1020E000FD230010FD23001000000000FD23001060
:1020F000FD230010FD230010FD230010FD23001020
:1021000000000000FD230010FD230010FD2300103F
:10211000FD230010FD23001000000000000000005F
:10212000FD230010FD230010FD230010FD230010EF
:10213000FD230010FD230010FD230010FD230010DF
:10214000FD230010FD230010FD230010FD230010CF
:10215000FD230010FD230010FD230010FD230010BF
:10216000FD230010FD230010FD230010FD230010AF
:10217000FD230010FD230010FD230010FD2300109F
:10218000FD230010FD230010FD230010FD2300108F
:10219000FD230010FD230010FD230010FD2300107F
:1021A000FD230010FD230010FD230010FD2300106F
:1021B000FD230010FD230010FD230010FD2300105F
:1021C000FD230010FD230010FD230010FD2300104F
:1021D000FD230010FD230010FD230010FD2300103F
:1021E000FD230010FD230010FD230010FD2300102F
:1021F000FD230010FD230010FD230010FD2300101F
:10220000FD230010FD230010FD230010FD2300100E
:10221000FD230010FD230010FD230010FD230010FE
:10222000FD230010FD230010FD230010FD230010EE
:10223000FD230010FD230010FD230010000000000E
:10224000000000000000000000000000FD2300105E
:10225000FD230010FD230010FD230010FD230010BE
:10226000FD230010FD230010FD23001000000000DE
:10227000000000000000000000000000000000005E
:102280000000000000000000FD230010000000001E
:10229000000000000000000000000000000000003E
:1022A000000000000000000000000000000000002E
:1022B000000000000000000000000000000000001E
:1022C000FD230010FD230010FD230010FD2300104E
:1022D00000000000000000000000000000000000FE
:1022E000FD230010FD230010FD230010FD2300102E
:1022F000FD230010FD230010FD2300100348044BB4
:10230000834202D0034B03B118477047E02900080D
:10231000E0290008000000000548064B1B1AD90FF1
:1023200001EBA301491002D0034B03B118477047DA
:10233000E0290008E02900080000000010B5064C64
:10234000237843B9FFF7DAFF044B13B10448AFF326
:1023500000800123237010BDD02A00080000000077
:10236000A869011008B5054B1BB105490548AFF335
:102370000080BDE80840FFF7CFBF00BF00000000AD
:10238000D42A0008A869011070477047FFF7FCFFC6
:1023900072B6144C144DAC4209DA21686268A36825
:1023A000043BA2BFC858D050FAE70C34F3E70F49FA
:1023B0000F4A00209142BCBF41F8040BFAE70D48D8
:1023C0000D490860BFF34F8F00F084F800F068F803
:1023D00002F088FA0FF00CFC01F08AFB0FF02CFCE5
:1023E000FEE70000B4690110CC690110D02A000892
:1023F000340301080020000808ED00E0FEE7FEE7D6
:1024000000B504207146084202D0EFF3098002E0D3
:10241000EFF3088004300DF0D5FCFEE708B501208D
:102420000AF034F808BD704710B500200DF0E2FB4B
:1024300000B910BD0446124B18600CF013FE0130B9
:10244000B4FBF0F00F4B18600CF024FE0130B4FB2D
:10245000F0F40D4B1C60013C0C4BA3FB04239B0CC4
:1024600001330B4A13700B4BA3FB0434A409013452
:10247000094B1C6000200DF0BDFB084B1860D8E72D
:102480000423000808230008FC22000883DE1B4305
:1024900010230008D34D62100C230008002300080D
:1024A00008B5094809F092F9FFF7BDFFFFF7BCFF37
:1024B0000022114603200AF045F8044809F088FE7E
:1024C000034809F0E7FE08BD5C650110EC2A00082E
:1024D000B8420110EFF3108172B6074AD2F8883083
:1024E00043F47003C2F88830BFF34F8FBFF36F8F90
:1024F00081F31088704700BF00ED00E008B500F0E0
:1025000029F800F005F808BD08B500F015F808BD79
:1025100010B5064C064A0621204609F073FD054A0F
:102520000721204609F06EFD10BD00BF00033140B9
:10253000EC4201102443011008B5034805F07AFC71
:10254000024805F077FC08BD2043011058430110F4
:10255000FEE7000010B5962100200DF085FC0CF080
:102560004DFF002108460CF019FE00200CF084FD00
:1025700001200CF069FD00200CF0F6FC4E4B1B68AE
:1025800093F83F4003E020460DF074F8013C002C26
:10259000F9D1002101200CF07DFE00200CF0ECFDB3
:1025A000002872D0002108460CF074FE0021084675
:1025B0000CF0C2FD00200CF037FD00200CF05CFD9B
:1025C00000200CF041FD00200CF0CEFC0021012089
:1025D0000CF060FE002108460CF05CFE0021022099
:1025E0000CF058FE002103200CF054FE00210420C2
:1025F0000CF050FE31480CF01BFF002850D1304841
:102600000CF0C6FF00284ED1002108460CF094FDC6
:10261000002108460CF0C2FD2A4901200DF050F8B7
:10262000002843D142F2107101200DF0D7F80028A4
:102630003FD10CF0EFFC00200CF0C0FC00200CF0AF
:10264000D3FC0CF0DDFC002108460DF09BFD0120C1
:102650000CF0A4FC0CF0E0FD01200CF0E7FDFFF70E
:10266000E3FE002108460DF08DFD174805F0E2FB62
:10267000164805F0DFFB164805F0DCFB154805F0B1
:10268000D9FB154805F0D6FB10BD0CF031FE40F229
:102690001113984286D1012100200CF04DFD81E7F5
:1026A0000420FFF755FF0420FFF752FF0320FFF738
:1026B0004FFF0320FFF74CFFBCFF00085C430110F5
:1026C000400D030084430110704301107443011056
:1026D000784301107C4301108043011008B5044881
:1026E0000DF02AFC08B1002008BD0248FCE700BF3D
:1026F000142300080000020610B505F099FB0446FB
:1027000030B1FFF7FBFEFFF7FFFE2CB1204610BDF6
:1027100007F0FAFA0446F4E7FFF7E0FF0446F5E7AE
:1027200038B5054610200EF00DFB044628460EF085
:1027300009FBE0602581002323606360204638BDEB
:1027400008B50123062219463B2005F06DFA00B1B9
:1027500001BE08BD00B585B04FF60573ADF80C306D
:102760000023ADF808300EE001BE134B1B689869DA
:102770000122032100F5607009F0BCFB9DF80930CF
:1027800013F0010F14D00C4B1B6898690022032131
:1027900000F5607009F0AEFBFF2301930222009266
:1027A00002AB03A9054807F019F90028DDD0DBE7E3
:1027B00005B05DF804FB00BFBCFF00083C2F00081B
:1027C00000B585B006238DF80C3000228DF8082066
:1027D0000F4B1B689869032100F5607009F08AFBB4
:1027E000FF2301930122009202AB03A9094807F0DD
:1027F000F5F800B101BE064B1B6898690122032160
:1028000000F5607009F076FB05B05DF804FB00BFD1
:10281000BCFF00083C2F000800B585B004238DF8EC
:102820000C3000228DF808200F4B1B68986903219B
:1028300000F5607009F05EFBFF2301930122009216
:1028400002AB03A9094807F0C9F800B101BE064B65
:102850001B6898690122032100F5607009F04AFBAA
:1028600005B05DF804FB00BFBCFF00083C2F00086A
:1028700030B585B004460D46FFF76CFFFFF7A0FFAB
:1028800002238DF80C30230A8DF80D308DF80E40A0
:102890008DF80F50104B1B6898690022032100F53A
:1028A000607009F027FBFF2301930422009202AB22
:1028B00003A90A4807F092F800B101BE064B1B6855
:1028C00098690122032100F5607009F013FBFFF7FE
:1028D000A3FF05B030BD00BFBCFF00083C2F0008BF
:1028E00010B584B00446FFF735FFFFF769FF0321F9
:1028F0008DF80C10230A8DF80D308DF80E40002253
:102900008DF80F20104B1B68986900F5607009F076
:10291000F1FAFF2301930422009202AB03A90B48B2
:1029200007F05CF800B101BE074B1B6898690122F3
:10293000032100F5607009F0DDFAFFF76DFF9DF8E7
:102940000B0004B010BD00BFBCFF00083C2F000806
:1029500008B5002302220321074805F07BFD08B1DA
:1029600001BEFEE70549044805F0EAFD08B101BED5
:10297000FEE7002008BD00BF742C000830230008CB
:1029800000B585B08DF80C008DF80D100123019372
:1029900000230093022303AA2021044805F0EAFD46
:1029A00000B101BE05B05DF804FB00BF742C000847
:1029B00008B501460120FFF7E3FF08BD08B5014651
:1029C0000320FFF7DDFF08BDF0B59C46394C01261A
:1029D000C4F884600223C4F88430374F2A253D6050
:1029E0000425C4F88450C4F88850C4F88830C4F86A
:1029F00088604FEA102EC0B2C4F88460C7F800E0C7
:102A0000C4F88450C4F888503860C4F88450C4F8BE
:102A10008850C4F88860080AC9B2C4F88460386075
:102A2000C4F88450C4F888503960C4F88450C4F89D
:102A30008850C4F88860C4F88460C4F884302B21BE
:102A40003960C4F88450C4F88850C4F88830C4F899
:102A50008860110AD2B2C4F884603960C4F8845026
:102A6000C4F888503A60C4F88450C4F88850C4F858
:102A700088604FEA1C215FFA8CF2C4F884603960E8
:102A8000C4F88450C4F888503A60C4F88450C4F83C
:102A90008850C4F88860C4F88460C4F884302C225C
:102AA0003A60C4F88450C4F88850C4F88830C4F838
:102AB0008860F0BD000031400001314070B504462F
:102AC000EF23002240F23F111046FFF77DFF4FF049
:102AD000000C1CE0210AE0B2104B0125C3F8845021
:102AE0000F4E31600421C3F88410C3F888103060A1
:102AF000C3F88410C3F88810C3F888502A4492B2EF
:102B0000B2F5A07FE6D30CF1010C1FFA8CFCBCF1EE
:102B1000EF0F01D80022F3E770BD00BF0000314085
:102B2000000131402DE9F04107468C461546984694
:102B3000BDF81840A0EB520080B207EB5207B9B2C3
:102B400012F0010F01D14B1E99B2ACEB580292B2B8
:102B50000CEB58039BB218F0010F01D1013B9BB263
:102B6000FFF732FF4FF0000E1BE0230AE2B21049DC
:102B70000127C1F884700F4E33600423C1F88430FC
:102B8000C1F888303260C1F88430C1F88830C1F8AB
:102B90008870384480B2A842E7D30EF1010E1FFAC4
:102BA0008EFEC64501D20020F5E7BDE8F08100BFEA
:102BB00000003140000131402DE9F84F86468C4637
:102BC00015469946DDF82880BDF82C70BDF83060B8
:102BD0000024A0EB520080B20EEB520189B212F039
:102BE000010F01D1013989B2ACEB590292B20CEB61
:102BF00059039BB219F0010F01D1013B9BB2FFF7C2
:102C0000E3FE4FEAD50C15F0070F01D00CF1010CD3
:102C1000002249E014F0800F2AD1330A5FFA86FEC1
:102C200024484FF0010AC0F884A0DFF88CB0CBF83C
:102C300000300423C0F88430C0F88830CBF800E0BE
:102C4000C0F88430C0F88830C0F888A06400E4B2CE
:102C5000013189B2A94225D211F0070FDAD112FB56
:102C60000CF3C80810FA83F39BB218F80340D1E7BD
:102C7000380A5FFA87FE0F4B4FF0010AC3F884A0B1
:102C8000DFF834B0CBF800000420C3F88400C3F8A8
:102C90008800CBF800E0C3F88400C3F88800C3F8CC
:102CA00088A0D3E7013292B24A4501D20021D1E790
:102CB000BDE8F88F00003140000131402DE9F843B4
:102CC000EA4C0125C4F884504FF00208C4F884800F
:102CD000E74F3D600426C4F88460C4F88860C4F8F7
:102CE0008880C4F8885032200DF044F8C4F884502D
:102CF000C4F884804FF01109C7F80090C4F88460CC
:102D0000C4F88860C4F88880C4F8885078200DF032
:102D100031F8C4F88450C4F88480CF233B60C4F8F1
:102D20008460C4F88860C4F88880C4F88850C4F807
:102D3000845000233B60C4F88460C4F88860C4F801
:102D40008850C4F8845083223A60C4F88460C4F880
:102D50008860C4F88850C4F8845030223A60C4F8BF
:102D60008460C4F88860C4F88850C4F88450C4F8FB
:102D70008480ED223A60C4F88460C4F88860C4F8A6
:102D80008880C4F88850C4F8845064223A60C4F83B
:102D90008460C4F88860C4F88850C4F88450032262
:102DA0003A60C4F88460C4F88860C4F88850C4F8F5
:102DB000845012223A60C4F88460C4F88860C4F871
:102DC0008850C4F8845081223A60C4F88460C4F802
:102DD0008860C4F88850C4F88450C4F88480E8221D
:102DE0003A60C4F88460C4F88860C4F88880C4F885
:102DF0008850C4F8845085223A60C4F88460C4F8CE
:102E00008860C4F88850C4F884503D60C4F8846079
:102E1000C4F88860C4F88850C4F8845079223A60B5
:102E2000C4F88460C4F88860C4F88850C4F884503A
:102E3000C4F88480CB223A60C4F88460C4F8886007
:102E4000C4F88880C4F88850C4F8845039223A60A5
:102E5000C4F88460C4F88860C4F88850C4F884500A
:102E60002C223A60C4F88460C4F88860C4F88850A2
:102E7000C4F884503B60C4F88460C4F88860C4F827
:102E80008850C4F8845034223A60C4F88460C4F88E
:102E90008860C4F88850C4F88450C7F80080C4F82B
:102EA0008460C4F88860C4F88850C4F88450C4F8BA
:102EB0008480F7213960C4F88460C4F88860C4F85D
:102EC0008880C4F88850C4F8845020213960C4F840
:102ED0008460C4F88860C4F88850C4F88450C4F88A
:102EE0008480EA213960C4F88460C4F88860C4F83A
:102EF0008880C4F88850C4F884503B60C4F884606B
:102F0000C4F88860C4F88850C4F884503B60C4F8A2
:102F10008460C4F88860C4F88850C4F88450C4F849
:102F20008480C1213960C4F88460C4F88860C4F822
:102F30008880C4F88850C4F88450C7F80090C4F85A
:102F40008460C4F88860C4F88850C4F88450C4F819
:102F50008480C5213960C4F88460C4F88860C4F8EE
:102F60008880C4F88850C4F884503A60C4F88460FB
:102F7000C4F88860C4F88850C4F884503D223A6090
:102F8000C4F88460C4F88860C4F88850C4F88450D9
:102F9000C4F88480C7223A60C4F88460C4F88860AA
:102FA000C4F88880C4F88850C4F88450C0223A60BD
:102FB000C4F88460C4F88860C4F88850C4F88450A9
:102FC000C4F8848036223A60C4F88460C4F888600B
:102FD000C4F88880C4F88850C4F8845068223A60E5
:102FE000C4F88460C4F88860C4F88850C4F8845079
:102FF000C4F884803A223A60C4F88460C4F88860D7
:10300000C4F88880C4F88850C4F8845055223A60C7
:10301000C4F88460C4F88860C4F88850C4F8845048
:10302000C4F88480B1223A60C4F88460C4F888602F
:10303000C4F88880C4F88850C4F884503B60C4F851
:103040008460C4F88860C4F88850C4F884501D2295
:103050003A60C4F88460C4F88860C4F88850C4F842
:103060008450C4F88480B62104E000BF00003140E1
:10307000000131403960C4F88460C4F88860C4F845
:103080008880C4F88850C4F884500A223A60C4F892
:103090008460C4F88860C4F88850C4F88450A220C2
:1030A0003860C4F88460C4F88860C4F88850C4F8F4
:1030B000845027203860C4F88460C4F88860C4F85D
:1030C0008850C4F884503B60C4F88460C4F88860B9
:1030D000C4F88850C4F88450C4F88480B7233B6097
:1030E000C4F88460C4F88860C4F88880C4F8885044
:1030F000C4F8845007233B60C4F88460C4F8886037
:10310000C4F88850C4F88450C4F884803960C4F886
:103110008460C4F88860C4F88880C4F88850C4F813
:10312000845008233B60C4F88460C4F88860C4F805
:103130008850C4F88450C4F8848026233B60C4F8C7
:103140008460C4F88860C4F88880C4F88850C4F8E3
:1031500084503D60C4F88460C4F88860C4F8885026
:10316000C4F88450C4F88480E0233B60C4F88460D1
:10317000C4F88860C4F88880C4F88850C4F88450C3
:103180001F233B60C4F88460C4F88860C4F888508A
:10319000C4F884501A233B60C4F88460C4F8886083
:1031A000C4F88850C4F8845018233B60C4F8846085
:1031B000C4F88860C4F88850C4F884503A60C4F8F1
:1031C0008460C4F88860C4F88850C4F884500F2321
:1031D0003B60C4F88460C4F88860C4F88850C4F8C0
:1031E000845006233B60C4F88460C4F88860C4F847
:1031F0008850C4F8845045233B60C4F88460C4F808
:103200008860C4F88850C4F8845087233B60C4F8B1
:103210008460C4F88860C4F88850C4F884504FF0C3
:103220003209C7F80090C4F88460C4F88860C4F814
:103230008850C4F884503A60C4F88460C4F8886048
:10324000C4F88850C4F8845007233B60C4F88460F5
:10325000C4F88860C4F88850C4F88450C7F8008067
:10326000C4F88460C4F88860C4F88850C4F88450F6
:103270003B60C4F88460C4F88860C4F88850C4F81F
:10328000845005233B60C4F88460C4F88860C4F8A7
:103290008850C4F8845000223A60C4F88460C4F8AE
:1032A0008860C4F88850C4F88450C4F88480E12150
:1032B0003960C4F88460C4F88860C4F88880C4F8B1
:1032C0008850C4F884503A60C4F88460C4F88860B8
:1032D000C4F88850C4F8845025223A60C4F8846049
:1032E000C4F88860C4F88850C4F884503860C4F8C2
:1032F0008460C4F88860C4F88850C4F884503B6087
:10330000C4F88460C4F88860C4F88850C4F8845055
:1033100010223A60C4F88460C4F88860C4F8885009
:10332000C4F8845009223A60C4F88460C4F8886004
:10333000C4F88850C4F884503A223A60C4F88460D3
:10334000C4F88860C4F88850C4F884507820386085
:10335000C4F88460C4F88860C4F88850C4F8845005
:103360004D213960C4F88460C4F88860C4F888507E
:10337000C4F884503B60C4F88460C4F88860C4F822
:103380008850C4F8845018233B60C4F88460C4F8A3
:103390008860C4F88850C4F884500D233B60C4F89A
:1033A0008460C4F88860C4F88850C4F88450382316
:1033B0003B60C4F88460C4F88860C4F88850C4F8DE
:1033C00084503A60C4F88460C4F88860C4F88850B7
:1033D000C4F884501F233B60C4F88460C4F888603C
:1033E000C4F88850C4F88450C4F8848011233B602A
:1033F000C4F88460C4F88860C4F88880C4F8885031
:103400000CF0B8FCC4F88450C4F8848029233B60D5
:10341000C4F88460C4F88860C4F88880C4F8885010
:1034200048460CF0A7FCBDE8F88300BF08B50123AF
:1034300006221946082004F0F7FB00B108BD01235D
:1034400006221946092004F0EFFB0028F6D10123DB
:10345000062219460A2004F0E7FB0028EED10123DA
:1034600006221946102004F0DFFB0028E6D10123D4
:1034700006221946112004F0D7FB0028DED10123D3
:1034800006221946122004F0CFFB0028D6D10123D2
:1034900006221946132004F0C7FB0028CED10123D1
:1034A00006221946142004F0BFFB0028C6D10123D0
:1034B00006221946152004F0B7FB0028BED10123CF
:1034C00006221946162004F0AFFB0028B6D10123CE
:1034D00006221946172004F0A7FBAFE708B5FFF74F
:1034E000A5FF00B108BDFFF7E9FB0020FFF7E6FAF2
:1034F000F8E70000254B1B6913F0080F07D1244A99
:103500001278042A06D8013221490A7002E0204AC2
:103510000021117013F0100F07D11E4A1278042AEF
:1035200006D801321B490A7002E01A4A00211170C4
:1035300013F0200F07D1184B1B78042B06D801334A
:10354000154A137002E0144B00221A70104B1B78BE
:10355000042B08D00F4B1B78042B0AD00E4B1B7882
:10356000042B0CD070470D4A137843F001031370FD
:10357000F0E70A4A137843F002031370EEE7074AB4
:10358000137843F004031370ECE700BF00033140ED
:10359000282D0008292D00082A2D0008DC2F0008FE
:1035A00010B5054C054B064A0649204600F0BEF80A
:1035B000204606F0EFFF10BD2C2D0008F53400105A
:1035C00040420F00642D000810B5044600231A463F
:1035D0001946332004F028FB20B111480EF068F999
:1035E00001BEFEE700231A461946342004F01CFBF6
:1035F00020B10C480EF05CF901BEFEE700231A462C
:103600001946352004F010FB08B92CB910BD064846
:103610000EF04EF901BEFEE7FFF7C2FFF6E700BF6E
:103620008C430110A8430110C443011038B50D4666
:10363000144600220146064807F024FD0DB91CB9C6
:1036400038BD00F02BF8FAE700F03AF8F8E700BFD1
:10365000782D000800B585B00D4B0293002301932F
:10366000FF230093182219210A4807F0F7FE00B142
:1036700001BE094A4FF4E131064807F0DDFA00B116
:1036800001BE044807F0D6FC05B05DF804FB00BF9E
:10369000E0430110782D0008742D000808B54FF4A0
:1036A0008070FFF73DF8044B18600123032280214E
:1036B000024807F0FBFC08BD342F0008782D0008F5
:1036C00008B54FF48070FFF72BF8054B1860002306
:1036D00003224FF48071034807F0E8FC08BD00BFE7
:1036E000382F0008782D000810B586B00D4C7C22CC
:1036F000002120460EF0BEF9002304930393082214
:1037000002920193FF2300933A2339223821204665
:1037100006F088F808B106B010BD0349204605F050
:1037200087FFF8E73C2F000840420F00F0B583B058
:1037300005460C461F4600268E60013A4A604E70D0
:103740008E7001230B70CE603246FF2106F0F8FE2A
:1037500000B101BE2146284606F04CFF00B101BE73
:103760000D49284606F050FE00B101BE05F10804DF
:1037700000223946204606F049FC0122009203232C
:103780002146284606F082FC284606F003FF00B1D9
:1037900001BE03B0F0BD00BF00E1F50508B5024869
:1037A00006F082FF08BD00BFC02F000808B500F07A
:1037B0001DFD00F07BFE00F035FE00F0F3FF00F091
:1037C00025FF00F07BFF00F0C7FD00F067FD08BD9E
:1037D00008B501F0DCF8084B186003220021012035
:1037E00002F024FA054B186000231A46194601F02E
:1037F000C7FD00F033F908BDB82F0008BC2F000842
:1038000008B5FFF7D3FFFFF7E3FF02F09BFB01BE14
:10381000FEE7000008B50821024B186801F076F9B0
:1038200008BD00BFB82F000808B51021024B18686A
:1038300001F06CF908BD00BFB82F0008F0B589B0E1
:103840006B4B93E803000690ADF81C10B1238DF884
:1038500010300024ADF812408DF814408DF815405A
:103860004FF4A87001F01AFC05466249204600F0AA
:1038700085FC614E3146204600F080FC5F4A60497D
:10388000204600F07BFC5F4A5F49204600F076FC52
:103890005E4A5F49204600F071FC5E4A5E49204660
:1038A00000F06CFC5D4A5E49204600F067FC314642
:1038B000204600F063FC5B4B1F6803F0E5F802460E
:1038C0004FF0FF36009623460121384603F058FC9E
:1038D000554B1F6803F0D8F8024600962346012195
:1038E000384603F04DFC514E6FF07F41306801F0D7
:1038F000E9F84021306801F009F900F039FB20E0D7
:103900004B49012000F03AFC4A49012000F036FC06
:10391000BDF81A300133ADF81A309DF81C30013370
:103920008DF81C309DF81D3001338DF81D3006A830
:1039300000F036FB4049012000F020FC06A800F012
:103940004BFB4FF0FF330093002301227F213748C8
:10395000006801F02AF810F0010FD1D110F0020F29
:1039600014D110F0040F1CD110F0200FE9D033490E
:10397000012000F003FC4FF0FF3204A9304B18681F
:1039800001F0D2FE04A800F019FBDAE72D4901206E
:1039900000F0F4FB284600F09BF9284600F02AFBD3
:1039A000CFE72949012000F0E9FB0134E4B22046C9
:1039B00000F036FB254903AB009320230A46244838
:1039C000006808F0F1F800B101BEBDF80C603046A7
:1039D00000F038FB00F04CFB864204D01D4901206A
:1039E00000F0CCFBADE71C49012000F0C7FBA8E7C5
:1039F0006C450110F4430110004401103823000805
:103A000038440110404401104C4401105C44011042
:103A10006844011060230008784401105023000816
:103A200084440110D02F0008CC2F0008B82F0008C4
:103A300094440110A0440110B44401102445011025
:103A4000D82F0008D4440110E0440110B71DC10470
:103A5000C02F000808450110EC44011000B583B0E8
:103A600000220621012002F0E1F8164B1860002226
:103A70000821012002F0DAF8134B1860134B009371
:103A80000023012240F2DC51114803F05DFB114B91
:103A90001860114B0093002301224FF4C8710F48A6
:103AA00003F052FB0E4B18600E4B0193032300935F
:103AB00000234FF4A0620C490C4802F00BFA03B04B
:103AC0005DF804FBD82F0008D42F0008153800102B
:103AD0003C450110D02F000829380010484501103E
:103AE000CC2F0008C82F0008584501103D380010A1
:103AF00008B5FEF701FE00B101BE62B6FFF74EFE4B
:103B0000FFF77EFEFEE70000844608461146BCF142
:103B1000090F03D9BCF13A0F00D0704730B585B01A
:103B2000BCF13A0F13D00B4C04EB8C0EBEF8022004
:103B3000094D2A44BDF820500295019300929EF849
:103B4000013014F82C20FFF737F805B030BD4FF0E6
:103B50000A0CE8E7FC470110844501102DE9F0410B
:103B600084B0BDF82880632802D904B0BDE8F08194
:103B70000C4617461E4602460C4903A80DF0DEFE11
:103B8000002510E005F110036B4413F8040C3038E5
:103B9000CDF8008033463A462146C0B2FFF7B4FF65
:103BA0000F34A4B20135012DECDDDEE774450110C0
:103BB000F0B583B004460378B02B15D0B12B11D1EA
:103BC000E12647F6EF37002500952B468222314645
:103BD0002C20FFF7C3FF00953B4682223146207917
:103BE000FFF7BCFF03B0F0BD50264FF6FF77EAE7C2
:103BF000F0B583B004460378B02B15D0B12B11D1AA
:103C0000E12647F6EF37002500952B469B223146EB
:103C10002C20FFF7A3FF00953B469B22314660799D
:103C2000FFF79CFF03B0F0BD50264FF6FF77EAE7A1
:103C30002DE9F04184B01F46BDF82880114B984211
:103C400002D904B0BDE8F0810C46164602460E4982
:103C500002A80DF073FE002510E005F110036B447F
:103C600013F8080C3038CDF800803B463246214628
:103C7000C0B2FFF749FF0F34A4B20135052DECDDCA
:103C8000DFE700BF3F420F007C450110F0B583B075
:103C900004460378B02B15D0B12B11D1642647F61A
:103CA000EF37002500952B46324678210748FFF76D
:103CB000BFFF00953B46324678216088FFF7B8FF8A
:103CC00003B0F0BD4B264FF6FF77EAE71CC80600AD
:103CD000F0B585B0054600210D2910DC01EB41004F
:103CE00005EBC002002345F8303053609360D36089
:103CF000136153610A2305F830300131ECE70324E6
:103D00002DE001BE039A53085A49A1FB03139B08F7
:103D1000C3EBC303A2EB43035FFA83FC0CEB4C033E
:103D200005EBC30615F833305BB9534903AB009379
:103D300020230A465148006807F036FF0028E1D0EA
:103D4000DFE73746DFF83CE1BEE80F000FC79EE82B
:103D5000030087E8030086F814C0013CE4B2002C9D
:103D6000E3D103264AE001BE039A53084149A1FB6F
:103D700003139B08C3EBC303A2EB4303DCB204EBC6
:103D8000440305EBC30715F833300A2B0BD03A492F
:103D900003AB009320230A463848006807F004FF6D
:103DA0000028E1D0DFE7344903AB009320230A4623
:103DB0003248006807F0F8FE00B101BE039B304AAC
:103DC000A2FB031222F0010101EB52029B1A13F035
:103DD000FF0319D0012B15D0092303EB4302BE4684
:103DE000284B03EBC20CBCE80F00AEE80F009CE8C8
:103DF00003008EE803003C75013EF6B2002EC6D1EA
:103E000000241EE00823E8E70723E6E7039A1E4B99
:103E1000A3FB0213D11A03EB51039B08C3EBC303AB
:103E2000D31ADBB203EB4303B446164F07EBC307C9
:103E30000FCFACE80F0097E803008CE8030034755F
:103E400001340D2C14DC04EB440305EBC30615F818
:103E500033300A2BF4D1084903AB009320230A46E0
:103E60000648006807F0A0FE0028CFD001BECDE7CD
:103E700005B0F0BD93244992B71DC104C02F0008BE
:103E8000ABAAAAAABC5601102549922410B500205D
:103E9000FEF726FD04460120FEF722FD2402A4B20F
:103EA000204380B210BD10B5C4B2010A0020FEF755
:103EB000DFFC21460120FEF7DBFC10BD2DE9F041BF
:103EC00086B00446837D03B3B0F80E808789227DD7
:103ED000104B53F822000590BDF81450BDF8166041
:103EE000009732231A4631462846FEF71BFE0297FA
:103EF000CDF804806368009323896289314628469F
:103F0000FEF75AFE06B0BDE8F081B0F80C80C78914
:103F1000DDE700BF6823000810B50446FFF7B6FED2
:103F20002046FFF745FE2046FFF762FE10BD000069
:103F300030B585B00D4B53F820000390BDF80C4010
:103F4000BDF80E504FF47843009338231A462946A3
:103F50002046FEF7E7FD0023009332231A46294648
:103F60002046FEF7DFFD05B030BD00BF6823000826
:103F700010B586B001238DF8153000240AE08DF8C5
:103F8000144000234FF0FF3269460448006801F0F6
:103F9000F7F901340D2CF2DD06B010BDAC3100088C
:103FA00008B50146B023037000234FF0FF320248EA
:103FB000006801F0E5F908BDA831000808B5014620
:103FC000B123037000234FF0FF320248006801F074
:103FD000D7F908BDA831000808B50146B123037020
:103FE00000234FF0FF320248006801F0C9F908BD14
:103FF000C031000870B5064600240BE004EB440114
:1040000000234FF0FF3206EBC101044D286801F098
:10401000B7F901340D2CF1DD70BD00BFAC310008E3
:1040200000B583B08DF8070000234FF0FF320DF18B
:1040300007010348006801F0A3F903B05DF804FB31
:10404000A431000800B583B001238DF80030ADF82D
:104050000200002301934FF0FF32694603480068D5
:1040600001F08EF903B05DF804FB00BFA031000839
:1040700010B582B000238DF80030ADF802300A4C44
:10408000226801924FF0FF3269460848006801F04B
:1040900077F94FF0FF326946206801F045FBBDF823
:1040A000020002B010BD00BFD42F0008A0310008EC
:1040B00010B582B007E00099F1B12A4808F03DFB45
:1040C000009801F073F84FF0FF326946264B1868EC
:1040D00001F02AFB0128F6D19DF80430032BEFD81C
:1040E00001A252F823F000BFB7400010FD400010BD
:1040F0001F4100104141001001BEDEE71B49194875
:1041000008F01BFB009941B1164C204608F015FB46
:104110001749204608F011FBD2E701BEF4E7154924
:10412000104808F00AFB009941B10E4C204608F0F7
:1041300004FB0F49204608F000FBC1E701BEF4E78D
:104140000D49084808F0F9FA009941B1054C20469C
:1041500008F0F3FA0649204608F0EFFAB0E701BE8E
:10416000F4E700BF000065409C3100088C58011046
:104170003C440110A8580110C45801100EB430B5C9
:1041800084B00446642000F089FFB8B1054608AB4E
:104190000193C4B90020019B079AC0F1640128442F
:1041A0000DF05AFC8DF80C40029500231A4602A926
:1041B0000C48006801F0E4F801280FD104B0BDE814
:1041C000304003B0704702F011FB02F069FC034677
:1041D000054A642128460DF07DFBDCE7284600F007
:1041E000E5FFEBE79C310008E058011000B587B00F
:1041F000144B029300230193FF23009328222921CB
:10420000114807F02BF900B101BE05AA4FF4E131C6
:104210000D4806F011FD00B101BE0022082110205A
:1042200001F004FD094B1860002301930322009262
:104230004FF4F0620649074801F04CFE07B05DF804
:1042400004FB00BFF8580110E02F00089C31000863
:10425000EC580110B140001000B583B003E0BDF888
:104260000200FFF720FE4FF0FF3269460A4B186844
:1042700001F05AFA9DF80030012BF0D0002BF2D15A
:10428000FFF704FEADF8020000234FF0FF3269464D
:10429000019801F075F8E6E7A031000800B583B099
:1042A000FFF722FAFEF74CFA00220821012001F064
:1042B000BDFC074B18600023019305220092802269
:1042C0000449054801F006FE03B05DF804FB00BF99
:1042D000A03100080C5901105942001010B582B0ED
:1042E0008020FEF76BFB0020FEF762FB00240FE04E
:1042F000082409E00E2407E00F2405E014490320F8
:10430000FFF73CFF00E01C469DF80730042B1BD94B
:104310004FF0FF320DF107010E4B186801F004FA5F
:104320009DF80730002BEED0013B032BE6D801A20D
:1043300052F823F0F142001045430010F5420010FE
:10434000F94200100C24DFE72046FEF731FBDFE7DF
:1043500018590110A431000800B583B0FEF7F8FA2F
:1043600000220121084601F061FC074B1860002380
:1043700001930522009280220449054801F0AAFD1C
:1043800003B05DF804FB00BFA431000828590110F8
:10439000DD42001000B587B01FE01C490020FFF788
:1043A000EDFE002302934FF478430193184B0093E2
:1043B0002F235B229621A020FEF7FEFB06E0154985
:1043C0000120FFF7DBFE04A8FFF7A6FD00231A4635
:1043D00019461148006800F0D3FF4FF0FF3204A9DE
:1043E0000E4B186801F0A0F94FF0FF310A4B186826
:1043F00001F049FA9DF81030B42BCED0B02BDED0AE
:1044000007490120FFF7BAFEDDE700BF345901106C
:104410008854011048590110BC2F0008A831000829
:104420005C59011000B583B000220621012001F083
:10443000FDFB074B186000230193042200924FF408
:1044400020720449044801F045FD03B05DF804FB07
:10445000A8310008745901109543001000B587B0C9
:104460000AE09DF81400FFF763FD00231A46194681
:104470000C48006800F084FF4FF0FF3269460A4B99
:10448000186801F051F94FF0FF31064B186801F040
:10449000FAF99DF81530002BE3D16846FFF70EFDC1
:1044A000E3E700BFBC2F0008AC31000800B583B0C3
:1044B000FFF714F8002218210E2001F0B7FB074B7C
:1044C000186000230193042200924FF4A062044973
:1044D000044801F0FFFC03B05DF804FBAC310008B8
:1044E000885901105D4400100378A02B09D143784E
:1044F0005033DBB2062B06D88379A12B05D10120DE
:10450000704700207047002070470020704700006F
:1045100010B582B00023009311F0080F02D111F002
:10452000800F0DD1009B4BB14FF0E0234FF0805234
:10453000C3F8042DBFF34F8FBFF36F8F02B010BDD0
:104540001A460DF107010C4806F03CFD0B4A1378A2
:10455000D1189DF8070048700133DBB21370072BA8
:10456000E0D1144600236A4621460548006800F061
:10457000EDFF00232370D5E7782D0008B031000847
:10458000BC31000800B587B04FF0FF3203A91A4BC9
:10459000186801F0C9F80DF10D00FFF7A5FF00281C
:1045A000F2D09DF80E308DF804309DF80F209DF864
:1045B000103043EA0223ADF806309DF811308DF833
:1045C00008309DF812308DF809300C490120FFF7B2
:1045D000D5FD00234FF0FF3201A90948006800F023
:1045E000CFFE08490120FFF7C9FD2021064B1868BE
:1045F00000F08CFAC8E700BFBC3100089C590110DC
:10460000D82F0008B4590110B82F000800B583B0A6
:1046100000220B21012001F009FB0B4B1860FFF772
:1046200019F8002201210948FFF700F8002301933F
:10463000062200924FF420720549064801F04AFC18
:1046400003B05DF804FB00BFBC3100081145001049
:10465000D05901108545001000B583B04FF0FF32EE
:104660006946144B186801F05FF8134CA0212046EE
:1046700006F0CEFC9DF80010204606F0C9FCBDF8FF
:104680000210090A204606F0C3FC9DF802102046DD
:1046900006F0BEFC9DF80410204606F0B9FC9DF81B
:1046A0000510204606F0B4FCA121204606F0B0FC1F
:1046B000D4E700BFC0310008782D000800B583B0F2
:1046C00000220621012001F0B1FA074B18600023F7
:1046D0000193042200924FF420720449044801F02F
:1046E000F9FB03B05DF804FBC0310008E859011084
:1046F0005946001010B584B0254B1B68ADF80C303E
:104700001B0C8DF80E30234B1B68ADF808301B0CCA
:104710008DF80A30204B1B68ADF804301B0C8DF867
:104720000630192001F0CCFD1C4B1869002306E06F
:10473000002103F110026A4402F8041C0133022B29
:1047400010DC03F110026A4412F8082C0242EFD187
:1047500003F110020DEB020111F8042C013201F8F3
:10476000042CEBE7002400E00134022CD9DC04F136
:1047700010036B4413F8043C032BF5D104F1100330
:104780006B4413F80C1C064B186800F0BFF9EBE7FC
:10479000105A0110F8590110FC5901100003314062
:1047A000B82F000800B583B00020FEF70DFF0023EE
:1047B00001930522009280220349044801F08AFBFC
:1047C00003B05DF804FB00BF005A0110F54600106D
:1047D0000230800803D001300238FCD100BF00BF96
:1047E0007047EFF3108072B6704780F310887047FF
:1047F000034B0360034B0B6080231360704700BFC3
:10480000C4370008C4310008034B0360034B0B603E
:104810004FF480731360704780380008C433000879
:10482000EFF3058303B100BE7047000008B5074BE6
:104830001B7813B1054B187808BD01F0DDFF013876
:1048400018BF0120014B1870F4E700BF8C3A000834
:1048500010B5FFF7E5FF00F065FA0024032C0BDC30
:10486000104B53F8243013B1013424B2F6E70D4B4A
:10487000012143F8241001E04FF0FF3400F074FAF6
:10488000002C0BDB04EB8401074B03EB011104202C
:1048900001F008FA034B43F8240010BD00BE0020CD
:1048A000FBE700BF3C3900084C39000810B504464E
:1048B000FFF7B6FFFFF7BAFF30B142F210712046A2
:1048C00001F0B2F80128F8D110BD10B50446FFF789
:1048D000A7FFFFF7ABFF00B910BD204600F015FEA3
:1048E000FAE7000008B5FFF7B3FF074B1860FFF7C2
:1048F000AFFF064B1860FFF7ABFF054B1860FFF7E3
:10490000A7FF044B186008BD983A0008943A0008C5
:10491000903A00089C3A000808B503460A4A106815
:104920000A4A121A9A4207DBC118094A914203DB6C
:104930000344054A136008BD0DF054F90C230360CD
:104940004FF0FF30F7E700BFA023000800E80108A0
:104950003803010808B5024B1868FFF7A7FF08BD28
:10496000983A000808B5024B1868FFF7AEFF08BD7B
:10497000983A00081AB9084205D110467047814399
:1049800003D000207047012070470120704738B5E0
:10499000202000F083FB044628B1002540F8045B8A
:1049A00000F0FCF82577204638BD2DE9F8430D4688
:1049B00017461E46DDF820808146002836D015F0C7
:1049C0007F4F08D04FF03F0383F31188BFF36F8F01
:1049D000BFF34F8F01BE45B94FF03F0383F31188FA
:1049E000BFF36F8FBFF34F8F01BE01F005FF58B9C2
:1049F000B8F1000F08D04FF03F0383F31188BFF3E5
:104A00006F8FBFF34F8F01BE02F036F8D9F8004028
:104A1000324629462046FFF7ADFF88B11FB324EA8E
:104A20000503C9F800304FF000081EE04FF03F03C7
:104A300083F31188BFF36F8FBFF34F8F01BEBEE7C3
:104A4000B8F1000F11D05FB900210EB141F08061C3
:104A50004246294309F1040001F02EFD002404E040
:104A60004FF08071F1E74FF0000801F083FBB8F1DF
:104A7000000F12D048B94FF0E0234FF08052C3F836
:104A8000042DBFF34F8FBFF36F8F02F053F904462D
:104A900010F0007F04D024F07F442046BDE8F88366
:104AA00000F040F9D9F80040324629462046FFF789
:104AB00061FF20B11FB124EA0505C9F8005000F0DC
:104AC00053F9E8E770B50C460646A8B114F07F4FDD
:104AD00008D04FF03F0383F31188BFF36F8FBFF30C
:104AE0004F8F01BE00F01EF9356825EA04043460DA
:104AF00000F03AF9284670BD4FF03F0383F3118868
:104B0000BFF36F8FBFF34F8F01BEDFE7F8B50D46E0
:104B10000446A8B115F07F4F08D04FF03F0383F350
:104B20001188BFF36F8FBFF34F8F01BE04F10C06E6
:104B300001F0A2FF206923682B432360002714E0C3
:104B40004FF03F0383F31188BFF36F8FBFF34F8F95
:104B500001BEDFE7216832EA010105D111E02168D9
:104B600041F0007101F084FD2846B0420ED0456846
:104B7000036823F07F4213F0806FEBD1216811426C
:104B8000F2D013F0807FEAD01743E8E7236823EAE6
:104B90000703236001F0EEFA2068F8BD00F1080376
:104BA00043604FF0FF328260C36003610023036003
:104BB000704700230361704743684B609A688A60BE
:104BC00051609960086103680133036070470369AD
:104BD000416882688A60416851605A68824206D0A2
:104BE000002202611A68013A1A60186870478268E8
:104BF0005A60F5E730B40D68B5F1FF3F11D000F110
:104C000008031C465B681A68AA42FAD963684B60BD
:104C100099608C606160086103680133036030BC97
:104C200070470469F2E7000082B0002301930D4B46
:104C30001B68B3F1FF3F08D04FF03F0383F31188A7
:104C4000BFF36F8FBFF34F8F01BE4FF03F0383F36E
:104C50001188BFF36F8FBFF34F8F019B002BFCD0E8
:104C600002B07047A423000808480068006880F379
:104C700008884FF0000080F3148862B661B6BFF375
:104C80004F8FBFF36F8F00DF00BF000008ED00E023
:104C9000DFF80C00016841F470010160704700000A
:104CA00088ED00E008B54FF03F0383F31188BFF3B0
:104CB0006F8FBFF34F8F01F0A1F928B14FF0E023C0
:104CC0004FF08052C3F8042D002383F3118808BDF0
:104CD0004FF0807340F8043C21F0010140F8081CBB
:104CE000054B40F80C3C40F8202C6FF0020340F8D4
:104CF000243C4438704700BF294C001000000000DD
:104D0000074B19680868B0E8F04F80F30988BFF3D3
:104D10006F8F4FF0000080F311887047AFF3008071
:104D200014FB00084FF03F0383F31188BFF36F8F2C
:104D3000BFF34F8F0B4A136801331360012B00D070
:104D400070474FF0E023D3F8043D13F0FF0FF7D086
:104D50004FF03F0383F31188BFF36F8FBFF34F8F83
:104D600001BEEDE7A4230008094B1B6843B94FF0CF
:104D70003F0383F31188BFF36F8FBFF34F8F01BEE3
:104D8000034A1368013B13600BB983F31188704722
:104D9000A423000800000000000000000000000044
:104DA000EFF30980BFF36F8F154B1A681EF0100FD9
:104DB00008BF20ED108A20E9F04F10602DE90900AE
:104DC0004FF03F0080F31188BFF34F8FBFF36F8F19
:104DD00001F09CFA4FF0000080F3118809BC1968BB
:104DE0000868B0E8F04F1EF0100F08BFB0EC108A52
:104DF00080F30988BFF36F8F704700BFAFF3008067
:104E000014FB00084FF0E022002313619361074B6D
:104E10001B680749A1FB03139B09013B536107234F
:104E20001361044B9B68044ADA637047FC22000854
:104E3000D34D621000ED00E0A54C001030B583B0FA
:104E40004FF0E023D3F8002D3E4B9A421AD04FF09A
:104E5000E023D3F8002D3C4B9A421DD03B4B1A78EF
:104E6000D2B20192FF221A701B78DBB28DF80330A8
:104E70009DF8033003F03F03354A1370354B07228A
:104E80001A601DE04FF03F0383F31188BFF36F8F6B
:104E9000BFF34F8F01BEDAE74FF03F0383F3118872
:104EA000BFF36F8FBFF34F8F01BED7E7294A136857
:104EB000013B13609DF803305B00DBB28DF80330DB
:104EC0009DF8033013F0800FF0D1224B1B68042BA8
:104ED00008D04FF03F0383F31188BFF36F8FBFF308
:104EE0004F8F01BE1B4A13681B02136003F4E0637B
:104EF0001360019BDBB2154A13704FF0E024D4F825
:104F0000203D43F47F03C4F8203DD4F8203D43F016
:104F10007F43C4F8203DFFF775FF00250E4B1D6051
:104F2000FFF7B6FED4F8343F43F04043C4F8343FB3
:104F3000FFF79AFE01F0EAF9FFF776FE284603B084
:104F400030BD00BF71C20F4170C20F4100E400E0EC
:104F5000A03A0008A43A0008A4230008EFF3058350
:104F60000F2B0FD9114A9B5CDBB2114A12789A427F
:104F700008D94FF03F0383F31188BFF36F8FBFF35E
:104F80004F8F01BE4FF0E023D3F80C3D03F4E063F4
:104F9000084A1268934208D94FF03F0383F31188FF
:104FA000BFF36F8FBFF34F8F01BE7047F0E300E098
:104FB000A03A0008A43A00084FF03F0383F3118899
:104FC000BFF36F8FBFF34F8F01BEFEE74FF03F037C
:104FD00083F31188BFF36F8FBFF34F8F01BEFEE7DE
:104FE000104A12F0070F1AD0D11D21F00701C1F5A8
:104FF000404313440A460C480260002141601344B8
:10500000083B23F007030948036059601960991AA7
:1050100051601360064B1960064B196070474FF4DE
:105020004043E8E7AC3A0008BCFA0008A83A000898
:10503000B0FA0008ACFA0008164B1A461B68834207
:10504000FBD3516802EB010C844509D0416800EBA9
:10505000010C634509D00360904219D0106070477D
:105060004068014451601046F0E710B40A4C2468CF
:10507000A3420BD05B681944416013681B6803604E
:10508000904200D010605DF8044B70470460F7E771
:10509000704700BFBCFA0008A83A000870B5054682
:1050A00001F0EAFC3C4B1B6893B13DB105F00703EE
:1050B000C3F11002113BAB420DD31544002D0CDBA4
:1050C000F5B1364B1B68AB421ED3354A146821E05C
:1050D000FFF786FFE9E70025F0E701F04BF800262F
:1050E000FFF76AFF16F0070F08D04FF03F0383F376
:1050F0001188BFF36F8FBFF34F8F01BE304670BD75
:1051000001F038F80026EBE701F034F80026E7E775
:1051100022461C466368AB4202D22368002BF7D1BB
:105120001D4B1B68A34233D01668083623681360F2
:1051300063685B1B102B12D9601910F0070F08D0A1
:105140004FF03F0383F31188BFF36F8FBFF34F8F8F
:1051500001BE63685B1B43606560FFF76DFF6268BB
:105160000E490B689B1A0B600E4909688B4201D2ED
:105170000C490B6042F000426260002323600A4A3F
:1051800013680133136000F0F5FF002EAAD1A7E7E2
:1051900000F0F0FF0026A3E7A83A0008ACFA0008E8
:1051A000BCFA0008B0FA0008B4FA000800283AD0A7
:1051B00038B50446A0F1080550F8043C002B08DB84
:1051C0004FF03F0383F31188BFF36F8FBFF34F8F0F
:1051D00001BE54F8083C43B14FF03F0383F31188FC
:1051E000BFF36F8FBFF34F8F01BE54F8043C002B09
:1051F00002DA54F8082C02B138BD23F0004344F819
:10520000043C01F039FC54F8041C074A13680B44B1
:1052100013602846FFF710FF044A13680133136038
:1052200000F0A8FFE8E77047ACFA0008B8FA0008F9
:105230000346406A18B11B6B1868C0F1070070473D
:1052400010B50446FFF76EFDA26BE36B9A4204D0E3
:105250000024FFF789FD204610BD0124F9E710B5B1
:105260000446FFF75FFDA36B23B90124FFF77CFD24
:10527000204610BD0024F9E770B504461546866B3C
:10528000026C5AB903681BB100200136A66370BDD9
:10529000806801F099FC0023A360F6E76DB94068CF
:1052A0000CF036FD226C636813446360A26893427D
:1052B00019D3236863602846E7E7C0680CF028FD2F
:1052C000226C5142E3689B1AE3602268934202D247
:1052D000A3680B44E360022D01D00020D5E726B17E
:1052E000013E0020D1E72846CFE70020CDE7034666
:1052F000026C6AB110B50846D9681144D9609C683F
:10530000A14201D31968D960D9680CF001FD10BD24
:10531000704738B50546FFF705FD95F8454064B27E
:1053200001E0013C64B2002C0ADD6B6A43B105F177
:10533000240001F023F90028F3D001F051FAF0E73E
:10534000FF2385F84530FFF70FFDFFF7EBFC95F8DD
:10535000444064B201E0013C64B2002C0ADD2B69D8
:1053600043B105F1100001F009F90028F3D001F074
:1053700037FAF0E7FF2385F84430FFF7F5FC38BD36
:10538000F0B585B00F4601921D46044690B1DFB1DD
:10539000022D26D001F030FA50B9019B43B14FF0F5
:1053A0003F0383F31188BFF36F8FBFF34F8F01BEAD
:1053B000002661E04FF03F0383F31188BFF36F8F46
:1053C000BFF34F8F01BEE2E7236C002BE0D04FF01C
:1053D0003F0383F31188BFF36F8FBFF34F8F01BE7D
:1053E000D6E7E36B012BD5D04FF03F0383F3118851
:1053F000BFF36F8FBFF34F8F01BECBE72A4639460D
:105400002046FFF739FF636A7BB948B14FF0E023CC
:105410004FF08052C3F8042DBFF34F8FBFF36F8F4F
:10542000FFF7A2FC012005B0F0BD04F1240001F05B
:10543000A5F80028F4D04FF0E0234FF08052C3F8D5
:10544000042DBFF34F8FBFF36F8FE9E7FFF78CFC9D
:105450000020E8E702A801F053FB012619E0002331
:1054600084F8443021E0002384F8453023E02046CE
:10547000FFF74FFF00F07EFEFFF754FCA26BE36BDB
:105480009A42BBD3022DB9D0019B002BDED0002E57
:10549000E0D0FFF769FC01F0EFFAFFF743FC94F866
:1054A000440040B2B0F1FF3FD9D094F8450040B27B
:1054B000B0F1FF3FD7D0FFF757FC01A902A801F0D8
:1054C00049F9D8B92046FFF7BBFE0028CFD0019993
:1054D00004F1100001F0FAFA2046FFF71AFF00F07D
:1054E00049FE0028C8D14FF0E0234FF08052C3F8A6
:1054F000042DBFF34F8FBFF36F8FBDE72046FFF73B
:1055000008FF00F037FE00208DE738B5044630B1C3
:10551000A56801F06BF985420BD0002038BD4FF033
:105520003F0383F31188BFF36F8FBFF34F8F01BE2B
:10553000EEE7E368013BE3600BB10120EEE71A46BA
:1055400019462046FFF71CFF0120E7E72DE9F84345
:105550000E4691461D460446C8B116B3022D2DD005
:10556000FFF7FCFCEFF311874FF03F0383F3118843
:10557000BFF36F8FBFF34F8FA26BE36B9A422AD3B7
:10558000022D28D0002087F31188BDE8F8834FF062
:105590003F0383F31188BFF36F8FBFF34F8F01BEBB
:1055A000DBE7236C002BD9D04FF03F0383F3118846
:1055B000BFF36F8FBFF34F8F01BECFE7E36B012BBC
:1055C000CED04FF03F0383F31188BFF36F8FBFF34B
:1055D0004F8F01BEC4E794F845804FFA88F8A36B5B
:1055E0002A4631462046FFF747FEB8F1FF3F0FD16C
:1055F000636A0BB90120C6E704F1240000F0BEFF86
:10560000F8B1B9F1000F1ED00120C9F80000BAE7C7
:1056100001F040FA804518D2B8F17F0F07D008F1A9
:1056200001084FFA88F884F845800120ABE74FF075
:105630003F0383F31188BFF36F8FBFF34F8F01BE1A
:10564000EDE701209FE701209DE701209BE7F8B5EA
:105650000E46044640B3236C43B14FF03F0383F33F
:105660001188BFF36F8FBFF34F8F01BE23682BB339
:10567000FFF774FCEFF311854FF03F0383F31188BC
:10568000BFF36F8FBFF34F8FA36BE26B9A4241D989
:1056900094F845707FB20133A363B7F1FF3F23D184
:1056A000636AC3B9012036E04FF03F0383F31188EA
:1056B000BFF36F8FBFF34F8F01BECCE7A368002B02
:1056C000D6D04FF03F0383F31188BFF36F8FBFF342
:1056D0004F8F01BECCE704F1240000F04FFFE8B18A
:1056E000F6B10120306016E001F0D4F9874219D2FA
:1056F0007F2F05D001377FB284F8457001200AE082
:105700004FF03F0383F31188BFF36F8FBFF34F8FC9
:1057100001BEEFE7002085F31188F8BD0120FAE70C
:105720000120F8E70120F6E7F0B585B00F460192B9
:10573000044680B1CFB101F05FF850B9019B43B18D
:105740004FF03F0383F31188BFF36F8FBFF34F8F89
:1057500001BE002655E04FF03F0383F31188BFF3ED
:105760006F8FBFF34F8F01BEE4E7236C002BE2D0B5
:105770004FF03F0383F31188BFF36F8FBFF34F8F59
:1057800001BED8E739462046FFF7B1FD013DA563CC
:10579000236923B9FFF7E8FA012005B0F0BD04F151
:1057A000100000F0EBFE0028F4D04FF0E0234FF0A3
:1057B0008052C3F8042DBFF34F8FBFF36F8FE9E71B
:1057C000FFF7D2FA0020E8E702A801F099F90126D4
:1057D00021E0002384F8443029E0002384F8453098
:1057E0002BE02046FFF795FD00F0C4FC09E02046C1
:1057F000FFF78FFD00F0BEFC2046FFF730FD0028CC
:105800003FD1FFF78FFAA56B002DBBD1019B002B79
:10581000D6D0002ED8D0FFF7A7FA01F02DF9FFF768
:1058200081FA94F844305BB2B3F1FF3FD1D094F8E1
:1058300045305BB2B3F1FF3FCFD0FFF795FA01A936
:1058400002A800F087FF0028D1D12046FFF707FD0E
:105850000028C6D0019904F1240001F037F9204650
:10586000FFF757FD00F086FC0028CAD14FF0E02377
:105870004FF08052C3F8042DBFF34F8FBFF36F8FEB
:10588000BFE7002089E770B584B001910446D8B124
:10589000236C43B14FF03F0383F31188BFF36F8F45
:1058A000BFF34F8F01BE00F0A7FF50B9019B43B17A
:1058B0004FF03F0383F31188BFF36F8FBFF34F8F18
:1058C00001BE002635465DE04FF03F0383F31188AB
:1058D000BFF36F8FBFF34F8F01BED9E7013BA363C7
:1058E000236833B1236943B9FFF73EFA012004B0BE
:1058F00070BD01F02BFAA060F4E704F1100000F095
:105900003DFE0028F0D04FF0E0234FF08052C3F866
:10591000042DBFF34F8FBFF36F8FE5E746B14FF014
:105920003F0383F31188BFF36F8FBFF34F8F01BE27
:10593000FFF71AFA0020DAE702A801F0E1F80125E2
:105940002AE0002384F8443032E0002384F8453014
:1059500034E0FFF7E7F9A06801F0DEF80646FFF74C
:1059600003FA3BE02046FFF7D4FC00F003FC09E01B
:105970002046FFF7CEFC00F0FDFB2046FFF76FFC52
:10598000002842D1FFF7CEF9A36B002BA6D1019BD3
:10599000002BC3D0002DCFD0FFF7E6F901F06CF853
:1059A000FFF7C0F994F844305BB2B3F1FF3FC8D0C1
:1059B00094F845305BB2B3F1FF3FC6D0FFF7D4F99E
:1059C00001A902A800F0C6FE0028D1D12046FFF7A9
:1059D00046FC0028C6D02368002BBAD0019904F1F8
:1059E000240001F073F82046FFF793FC00F0C2FB9F
:1059F0000028C7D14FF0E0234FF08052C3F8042DA8
:105A0000BFF34F8FBFF36F8FBCE70EB900206EE777
:105A1000FFF788F92046FFF70BFC0146A06801F06C
:105A200029F9FFF7A1F9F1E770B50D46044668B111
:105A3000A66800F0DBFE864212D029462046FFF71A
:105A400022FF88B1E3680133E3600DE04FF03F03CC
:105A500083F31188BFF36F8FBFF34F8F01BEE7E76A
:105A6000E3680133E360012070BD10B5044630B136
:105A7000FFF758F9A46BFFF777F9204610BD4FF0F8
:105A80003F0383F31188BFF36F8FBFF34F8F01BEC6
:105A9000EEE770B504460D461646FFF743F994F855
:105AA00044305BB2B3F1FF3F0DD094F845305BB2A8
:105AB000B3F1FF3F0BD0FFF757F9A36B5BB1204663
:105AC000FFF727FC70BD002384F84430EDE7002386
:105AD00084F84530EFE73246294604F1240000F00F
:105AE00023FDECE738B50D46044698B13CB1E36BB5
:105AF0002BB1226C0021A3FB0232AAB9B1B14FF045
:105B00003F0383F31188BFF36F8FBFF34F8F01BE45
:105B1000002038BD4FF03F0383F31188BFF36F8F30
:105B2000BFF34F8F01BEE1E70121E7E7FFF7FAF886
:105B30002368E26B216C01FB0230A0600020A063AF
:105B40006360013A02FB0133E360FF2384F84430D1
:105B500084F84530B5B923691BB9FFF705F9012071
:105B6000D7E704F1100000F009FD0028F5D04FF050
:105B7000E0234FF08052C3F8042DBFF34F8FBFF3E3
:105B80006F8FEAE704F11000FFF708F804F1240032
:105B9000FFF704F8E1E738B51D46049C0B4649B908
:105BA0002460E063236401212046FFF79BFF84F813
:105BB0004C5038BD2260F4E710B584B01C46EBB100
:105BC00040B33CB302B129B312B350230393039BF8
:105BD000502B08D04FF03F0383F31188BFF36F8F32
:105BE000BFF34F8F01BE039B012384F8463000941E
:105BF0009DF81830FFF7CFFF204615E04FF03F0328
:105C000083F31188BFF36F8FBFF34F8F01BED7E7C8
:105C10000029DAD04FF03F0383F31188BFF36F8F71
:105C2000BFF34F8F01BE002004B010BDF0B583B0AC
:105C3000F8B10C46174606460023A0FB0412B2B981
:105C4000BBB904FB06F010F1510F12D85030FFF72A
:105C500025FA0546B8B1002380F8463000903B464F
:105C600000F1500221463046FFF795FF0BE001237B
:105C7000E6E74FF03F0383F31188BFF36F8FBFF365
:105C80004F8F01BE0025284603B0F0BD48B108B5CE
:105C9000002181600160C1600B460A46FFF770FB7E
:105CA00008BD704710B582B00B4600900022114627
:105CB0000120FFF781FF0446FFF7E8FF204602B00E
:105CC00010BD000010B4044618B191B10020034685
:105CD00013E04FF03F0383F31188BFF36F8FBFF3DF
:105CE0004F8F01BEF1E70E4800EBC30008B1016021
:105CF00044605DF8044B70470133092BF6D8084A1D
:105D000002EBC3025268A242EDD00028F4D1044A4B
:105D100052F83320002AEFD1014800EBC300EBE733
:105D2000C4FA0008074B1B681B6823B9064B4FF0E9
:105D3000FF321A607047034B1B68DB681A68024B1E
:105D40001A60704718FB0008ECFB000810B5044609
:105D5000FEF7E8FF294A136801331360284B1B68DC
:105D60005BB1284B1B686BB9254B1B68DA6AE36A89
:105D70009A4207D8224B1C6004E0214B1C60136838
:105D8000012B37D0204A1368013313606364E36A40
:105D90001E4A1268934201D91C4A13601C4A03EB45
:105DA000830302EB83035B68A3609868E060211DB6
:105DB00041609960E36A03EB8301880002EB810193
:105DC0006161115801311150FEF7CEFF0D4B1B6878
:105DD0007BB10B4B1B68DA6AE36A9A4209D24FF037
:105DE000E0234FF08052C3F8042DBFF34F8FBFF371
:105DF0006F8F10BD00F072FDC4E700BFACFB000860
:105E000014FB00080CFC0008B8FB0008BCFB0008F1
:105E100020FB000808B500F0B7FD074B1B68012BFD
:105E2000F9D94FF0E0234FF08052C3F8042DBFF3AF
:105E30004F8FBFF36F8FEEE720FB000870B504466D
:105E40000D461E4B1E681E4B18680430FEF7BFFE41
:105E5000B4F1FF3F0DD03444194B1B685C60A6427F
:105E60001DD9184B1868164B19680431FEF7C2FE8D
:105E700070BD002DEFD0144A5168114B1868816035
:105E800018688C68C4601868043060601868043052
:105E900088601B685A61136801331360E8E70B4B95
:105EA0001868074B19680431FEF7A4FE084B1B68FD
:105EB000A342DDD9064B1C60DAE700BF38FC0008BE
:105EC00014FB00081CFB000810FC000818FB00086D
:105ED000ECFB00082DE9F04385B0074688461446E0
:105EE0001E469000FFF7DAF820B38146BC20FFF78A
:105EF000D5F80546D0B1BC2200210BF0BBFDC5F89A
:105F00003090E5B1002385F8B930039302950D9BDD
:105F100001930C9B0093334622464146384600F0DD
:105F20007BFC2846FFF712FF012005E04846FFF7FB
:105F30003DF9E6E74FF0FF3005B0BDE8F0834FF0E4
:105F4000FF30F9E710B588B000240594069407AA3D
:105F500006A905A8FEF74CFC059B0293069B01933E
:105F600000942346079A1C491C4800F033FD1C4B43
:105F7000186050B101F0B4F8012808D0B0F1FF3F2B
:105F80001FD0184B1B6808B010BD0020F4E74FF07D
:105F90003F0383F31188BFF36F8FBFF34F8F124B13
:105FA0001B686833114A1360114B4FF0FF321A60BF
:105FB000104B01221A60104B00221A60FEF73EFFC0
:105FC000DFE74FF03F0383F31188BFF36F8FBFF319
:105FD0004F8F01BED5E700BF145A0110155E0010A7
:105FE000E8FB0008A823000814FB0008BC240008F4
:105FF000ECFB00080CFC000838FC0008524B1B6846
:10600000002B40F0998070B5504B1C6801341C6027
:10601000C4B94F4B1B681B6843B14FF03F0383F378
:106020001188BFF36F8FBFF34F8F01BE484A1168CD
:10603000484B186810601960474A136801331360B1
:10604000FFF770FE454B1B68A34210D90020444B5C
:106050001B68DB6A03EB83039A00424B9B58012BBE
:1060600000D90120404B1B68002B6BD170BD002074
:1060700037E03A4B4FF0FF321A60E8E7374B1A60CF
:10608000E5E7D968516042E0002199621168013961
:106090001160DA6A354909688A4201D933490A60D0
:1060A000304902EB82024FEA820C8C44DCF8042077
:1060B0009A609668DE6075609560DA6A02EB820C21
:1060C0004FEA8C054E195E614D5901354FEA8C0C33
:1060D00041F80C50DA6A224B1B68DB6A9A4200D303
:1060E00001201B4B1B681B68002BC2D0184B1B6880
:1060F000DB68DB685A689442C0D35A699D68D968E6
:10610000A9609D684D6051681D1DA942B9D000214C
:1061100059611168013911609A6A002AB9D0DE69A3
:10612000196AB160DE694E60566803F118018E424B
:10613000AAD1196A5160A7E70D4A136801331360A9
:1061400000207047012091E7B4FB000838FC0008EC
:1061500018FB00081CFB0008F0FB0008ECFB000823
:1061600014FB000820FB00083CFC0008BCFB0008F6
:10617000F4FB000810B54A4B1B6843B94FF03F03CE
:1061800083F31188BFF36F8FBFF34F8F01BEFEF70C
:10619000C9FD434B1A68013A1A601B68002B7AD17B
:1061A000404B1B683BB9002476E0196A516015E04A
:1061B000D968516021E000233B4A1268002A47D089
:1061C000394BDB68DB689A6AD869196A8160D869DB
:1061D0004860506803F118018842E6D000219962B6
:1061E0001168013911605A699868D96881609868A6
:1061F00048605168181D8142DAD000215961116848
:1062000001391160DA6A294909688A4201D92749A6
