:020000041000EA
:10000000002000081B0100100D0000007D01001001
:1000100000000000000000000000000000000000E0
:100020000000000000000000000000007901001046
:1000300000000000000000007901001079010010AC
:100040007901001079010010790100107901001088
:100050007901001079010010790100107901001078
:100060007901001079010010790100107901001068
:100070007901001079010010790100107901001058
:100080000448054B10B5834203D0044B002B00D02D
:10009000984710BD780300087803000800000000AE
:1000A00006480749091A8B10C90FC91810B549101D
:1000B00003D0044B002B00D0984710BD78030008F4
:1000C000780300080000000010B5074C2378002BCF
:1000D00009D1FFF7D5FF054B002B02D0044800E003
:1000E00000BF0123237010BDB00300080000000012
:1000F00094150010054B10B5002B03D0044905489A
:1001000000E000BFFFF7CCFF10BDC04600000000BC
:10011000B4030008941500107047FFF7FDFF72B696
:100120000F4C104DAC4209DA21686268A368043BA9
:1001300002DBC858D050FAE70C34F3E70A490B4AFF
:100140000020521A02DD043A8850FCDC08480949B4
:100150000860BFF34F8F00F06FF800F01DF8FEE766
:10016000A0150010B8150010B0030008C80500085D
:100170000000000808ED00E0FEE7FEE700B50420FF
:100180007146084202D0EFF3098002E0EFF30880E5
:10019000043000F0BBFDFEE710B562B6034800F086
:1001A000C3F8002000F0BAFEFBE7C04600200010B4
:1001B00010B5002000F090FA10BD704770B5002017
:1001C00000F0EEFC041E28D0144B186000F064FB15
:1001D000411C200000F080FF114B0400186000F06B
:1001E0004DFB411C200000F077FF04000D4B013C4B
:1001F00018600D49200000F06FFFFA210B4D01300F
:1002000028708900200000F067FF094D0130286048
:10021000002000F0C5FC074B186070BD8800000886
:100220008C0000088000000840420F009400000885
:10023000900000088400000810B5204800F0ACF8D9
:10024000B022E02130201E4CD200A35889005B0070
:100250005B08A35063588343635080235B04A3501F
:10026000184B194AE250A02204339201E250FF22B7
:10027000164BE25000F014FFC02201215200A35897
:100280008B43A350FFF799FFFFF798FF104B032014
:100290001A681300BA33198807234B43126A802166
:1002A0009B180022DA605A600A4A00F05FFA0A4896
:1002B00000F022F9094800F05BF910BDD4140010D9
:1002C0000000264084050000010002008C050000AB
:1002D0004C05000878030008CC030008A0140010A7
:1002E0009023034A5B01D058032318407047C0464F
:1002F0000000204010B5902400F047F8074B64013F
:100300001959074A1140074A0A431A5110225968DD
:100310001142FCD000F03DF810BDC0460000204066
:10032000FCFF00000100FA05F8B590260E4C76019E
:10033000070000F02AF8A3590500DB439B0701D111
:10034000FFF7D8FF80239B00E750A259074B1A40C4
:10035000074B1343A351102362681A42FCD02800B4
:1003600000F017F8F8BDC04600002040FCFF000078
:100370000300FA05000000000230800803D00130BD
:100380000238FCD1C046C0467047EFF3108072B609
:10039000704780F310887047014B18607047C04663
:1003A0004C050008044B1B681A00BA3212881B6AFD
:1003B0005043C0187047C0464C050008A02300B544
:1003C0001B06984226D015D8802825D00AD8102898
:1003D00024D0402824D000280BD0154809E0A420C0
:1003E000C00306E08022134B520090421CD098427A
:1003F000F3D100BD104B984218D0104BC018042800
:10040000EBD800F05FFEECEA0F0305000C48F0E7C4
:100410000C48EEE70020ECE70B48EAE70B48E8E77A
:100420000B48E6E70B48E4E71800E2E7A020D7E72F
:10043000FF00520006005200090000A0FFFFFF0F5E
:10044000020052000300520005005200010050005B
:10045000020050000100520010B50020FFF7A2FF7B
:100460000A4B1C682300BC331B68C0180368002BB0
:100470000ADB074B1868FFF7A1FF012263689A6047
:100480009A68002AFCD110BD0248FCE74C05000820
:100490005005000802005000064B1B68BC331B6867
:1004A000C3181B68002B03DA89B241600020704733
:1004B0000148FCE74C05000801008A000368002B96
:1004C00004DA89B2C2608160002070470048FCE70E
:1004D00001008A00064B1B68BC331B68C3181B68ED
:1004E000002B03DAC36800200B6070470148FCE76B
:1004F0004C05000801008A00024B1A68002A00D14E
:100500001860704764050008F0B52C24154E44436C
:1005100030681F000019FF241E0A26402740124C95
:100520001B0C256807602C6A46608360BA352D88ED
:100530006F433F190761370080377F01E7190B4D83
:1005400076014761A4191F043B436419236000230B
:100550008361059BC2610162002B01D01B888381EE
:10056000F0BDC046640500084C05000808100000F6
:10057000F0B50400236987B0026841680393A3685B
:1005800004AD1732C0682B806A80039BA26A059174
:100590000095E16A266A676AFFF7B6FF00213B0013
:1005A0000A0030000091FFF7AFFF2800216B00F038
:1005B00077FB0022AB5E002B06DB1F2213401E3AA6
:1005C0009A401300014A136007B0F0BD00E100E05B
:1005D000F0B585B003931B4B16001C682C235843C1
:1005E0004B4320180769E418002F27D0A569002D78
:1005F00026D13B68002B23DA134B1B6834331B785E
:100600000193436801996068029300F0EBFD0122B9
:100610008A40336812049BB2134333600123FE60A7
:10062000A361039B01996362029800F0DBFD012343
:100630008B409BB2BB60280005B0F0BD034DFAE7CC
:10064000034DF8E7640500084C05000804028A0021
:1006500007028A0073B5002642690400D568019636
:100660002B0CB34221D01B0413601368194B006993
:100670001B68BC331B68C3181B68B34215DA01A999
:10068000FFF728FFB0420CD10198E26903681E0C05
:10069000DBB29A4205D9226A9B009B58002B00D0FE
:1006A000984731002069FFF7F7FEADB2002D09D061
:1006B00063691D6000251B68636AAB4205D09847DB
:1006C0006562A56163691B6873BDA36A002BF8D0DE
:1006D0009847F6E74C0500082C2310B54343034A1E
:1006E0001068C018FFF7B6FF10BDC04664050008CB
:1006F0001A4B70B51A680C00130033331B78834211
:100700002AD9002928D00D681F212B000B400D424B
:1007100022D11100BA310988126A48431900104DDC
:100720008018286022685209934210D30021FFF7F5
:10073000B3FE002122002868FFF7C0FE011E04D18D
:100740002868FFF7A9FE002800D0064870BD62683F
:100750009E00B1500133E5E70348F7E74C05000878
:100760006805000801018A0003018A000B0010B52A
:10077000002A0DD1002914D10B4A0C4C11680A0033
:10078000BA321288096A424352182260180010BD1A
:10079000002906D006490B604A60FFF7A9FF030055
:1007A000F4E7044BF2E7C0464C0500086805000872
:1007B0008803000803018A00F7B51B4F04003B685B
:1007C0000E00002B2BD0DB681A68824229D9002545
:1007D0005B680193A94202D1FFF7D7FD0500386895
:1007E0000368002B19DA1F23012223409A40640971
:1007F000019BA4001C1921680A420CD0914321607E
:1008000000240021FFF748FE002E02D12800FFF748
:10081000C0FD2000FEBD054CF3E7054CF4E7034C9A
:10082000F7E7044CF5E7C0466805000802018800B8
:100830000301880004018A000C4B1B68002B11D0B7
:10084000DB681A6882420FD959681F234209184091
:100850001E3B8340920050581840431E9841044B61
:10086000C01870470348FCE70348FAE7680500082A
:10087000000188000201880004018A00054B1B6802
:100880001A0088321B6812689B181868000AC0B2E8
:100890007047C0464C050008044B1B681A0088329C
:1008A0001B6812689B181868000E70474C050008FA
:1008B000034BE0308000C0588006800F7047C04670
:1008C00000002640024B18694007C00F7047C04621
:1008D00000002740A6220549D2008B580220DB43A6
:1008E0009B0702D00123885818407047000026401B
:1008F00010B5FFF7EFFF0023022801D1014B1B6861
:10090000180010BD70050008084A83009B18D0220B
:100910009200985807221040042806D1C022920065
:100920009B581F22FC30134018437047000026409C
:1009300010B5FFF7E9FF88235B0098421CD00BD865
:10094000012813D0022814D0431E9841104B404276
:100950001840104BC01810BD1223FF33984210D01E
:100960001423FF33984210D00020F4E70A4B186894
:10097000F1E7FFF7BDFFEEE7084A094BD058C00F7B
:1009800001E0FFF79FFFC003E5E7044A054BF5E7E9
:1009900000EE85FF00127A006C050008000026407A
:1009A0000C0500003C050000B023154ADB00D358BD
:1009B00010B59903DB01DB0F890BC371114B01608B
:1009C000D3580F24D904DB01DB0D0381B123DB00F5
:1009D000D358C90C81801900214081721909214026
:1009E000C172D9029B009B0F8373074BC90CD3586C
:1009F00081815A05DB01520FDB0D8271038210BD2C
:100A000000002640840500008C0500008030034B68
:100A1000FF308000C058C00F7047C046000026401D
:100A20000F4B421E1B683F331B78934216D9803010
:100A30007F220C4BFF308000C3581F201A400A70E1
:100A40001A0A02404A701A0C02408A701A01C24007
:100A500000209B009B0FCA700B7170470248FCE797
:100A60004C0500080000264001004A00F0B589B09E
:100A700003AD2800FFF798FFB0230026164ADB00DD
:100A8000D358B34224DAAB7B022B21D0AC88B442DA
:100A90001ED03000ED79039FFFF74AFF220033009C
:100AA00031000190681C00F0C3FB0C00050033000E
:100AB0003A003100019800F0BBFBE6076A083243B8
:100AC0006308801859412A00230000F091FB0600BA
:100AD000300009B0F0BDC04600002640F7B5234BFA
:100AE00006001B683F331B78002B08D000283BD042
:100AF000834204D36946FFF793FF041E01D000260A
:100B000032E03000FFF782FF2300002805D06B465B
:100B10001C79023C23005A1E93416A461778547888
:100B20009578002BEBD0002CE9D0002DE7D03000D9
:100B3000FFF7FEFE002306002A002000190000F047
:100B400077FB00230C0005003A003000190000F08C
:100B50006FFBE6076A0832436308801859412A0090
:100B6000230000F045FB06003000FEBD4C050008E8
:100B700010B5041E04D1FFF779FF002806D008E065
:100B8000064B1B683F331B78834203D22000FFF7DC
:100B9000CFFE10BDFFF7A2FFEFE7C0464C050008EF
:100BA00070B50500FFF784FEE035074BAD0004008B
:100BB000E8580F231840FFF7DBFF0123A3405B0831
:100BC0001818E04070BDC0460000264030B5FF2533
:100BD00003242A000440E400A24089012940D243B2
:100BE000A14083B200280ADBC0240B4B80088000A0
:100BF000C018A400035913400B43035130BD0F200C
:100C00000340083B05489B089B001B18D86902401D
:100C10000A43DA61F2E7C04600E100E000ED00E0DF
:100C2000144B30B51B6807241A002C3212781F2A87
:100C300015D882081500A5432C1E0FD1033420407F
:100C4000A04081401B68920020339B180A00FF21BE
:100C500081401C68624011406140196030BD1A68D3
:100C6000802320401B06034380208001091889004F
:100C70008B50F3E74C050008064B10B59A68064CFC
:100C800010308300A24202D19858995010BD034AF7
:100C9000D058FBE700ED00E0000000080000001065
:100CA000F7B504000E00002801D1144C17E0002312
:100CB000C55E134B4188134F0193002D11DB2800B3
:100CC000FFF7AEFF61682800FFF780FFBB68019A5D
:100CD0000024934203D131002800FFF7CDFF20000C
:100CE000FEBD08B26168FFF771FFBB68019A9342CD
:100CF000DBD131002800FFF7BFFFD6E70100560027
:100D00000000000800ED00E0FEE7000002680A4B6A
:100D100010B51A6042685A6082689A60C268DA60E8
:100D200002691A6142695A6182699A61C269DA612B
:100D3000FFF7EAFF10BDC04690030008B0235B0533
:100D40005A782120002A01D05878C0B27047B023C9
:100D50005B059A89002A02D0988980B2704780206A
:100D60004000FBE7254B73B586000D00F4580429BD
:100D700001D0012925D100200EE0A3682B420AD121
:100D8000E36829001A685B6868460193009223684B
:100D900098471B4B1C606469002C0AD0194B984281
:100DA000EBD1012DE9D1164A174B126815489A511B
:100DB00076BD012DFCD1134B9842F4D0124B9C51BF
:100DC000F6E7022914D026006469002CFBD100202C
:100DD000002EEDD0B3682B4208D1F36829001A68C1
:100DE0005B68684601930092336898473669EFE77D
:100DF000034B1B68181EDBD01E69E8E7B40500082A
:100E0000B0050008FF0042009C0500081A4B1B6853
:100E1000190088311A6809685118096801621900B7
:100E20008C3109685218126842621A0046321278F0
:100E3000002A1FD09A68E0321268D2061AD5F22230
:100E4000DB68D2019A580260F022D2019A584260BF
:100E50000A4A9A5882600A4A9A58C260094A9A58BD
:100E60000261094A9A584261084A9A588261084ABE
:100E70009B58C3617047C0464C05000804780000C9
:100E8000087800000C78000010780000147800004A
:100E9000187800001A4B1B681900883109681A6815
:100EA0005218016A116019008C3109681A685218C9
:100EB000416A11601A0046321278002A1ED09A68E0
:100EC000E0321268D20619D5F0224168DB68D201FF
:100ED000995081680B4A9950C1680B4A9950016931
:100EE0000A4A995041690A4A99508169094A9950B8
:100EF000C169094A99500168E83299507047C04663
:100F00004C05000804780000087800000C78000008
:100F1000107800001478000018780000F7B505007C
:100F2000FFF70CFF564F01907B68002B00D06FE05D
:100F3000FFF72BFA7B680090002B00D07CE0514B30
:100F400007271C682300BA331B885F43236AFB18FA
:100F50001A68002AFCDADB68DA001ED51B0F4A4843
:100F60001E07FFF753FF22008832126823684749A3
:100F70009B181A6801980A40212862D1902000012C
:100F800002431A6022008C32126823689B181A6888
:100F90000A40104318603C4B3343802292051343B0
:100FA000226A0024BF18FB607C607B68FFF7CFFEDD
:100FB0008023344F5B00984246D1280000F068FA45
:100FC0003F6807223B00BA331E883B6A5643F3183A
:100FD0001A68002AFCDADD68EB0003D52801000955
:100FE000FFF758FF00222A4B00981D403B6AF31878
:100FF000DD605A60FFF7CDF9002C10D1204B5B6803
:10100000002B03D008210120FFF7ACFE2000FEBD1D
:1010100001210800FFF7A6FE041E00D188E7184B47
:101020005B68002B03D002210120FFF79BFE194BC8
:101030009C42EBD0184CE9E704210120FFF792FE17
:101040007DE7802040009BE73B681A00BC32196AAC
:10105000126852181168002910DBBA331B889B18DC
:101060001B68002B0ADB04230C4A11690B43136134
:10107000012D01D030BFA3E720BFA1E7054C9FE7BA
:10108000B40500084C05000874050008FF00FFFFC8
:10109000FFFFFFDF05004200FF00420000ED00E01F
:1010A000C0228020064952008B58C0059B009B0837
:1010B00003438B50802388581B0603438B50704793
:1010C0000000264002B4714649084900095649000B
:1010D0008E4402BC7047C046002243088B4274D342
:1010E00003098B425FD3030A8B4244D3030B8B4229
:1010F00028D3030C8B420DD3FF22090212BA030C32
:101100008B4202D31212090265D0030B8B4219D312
:1011100000E0090AC30B8B4201D3CB03C01A524132
:10112000830B8B4201D38B03C01A5241430B8B427A
:1011300001D34B03C01A5241030B8B4201D30B0363
:10114000C01A5241C30A8B4201D3CB02C01A52418A
:10115000830A8B4201D38B02C01A5241430A8B424D
:1011600001D34B02C01A5241030A8B4201D30B0236
:10117000C01A5241CDD2C3098B4201D3CB01C01A50
:10118000524183098B4201D38B01C01A524143095A
:101190008B4201D34B01C01A524103098B4201D348
:1011A0000B01C01A5241C3088B4201D3CB00C01AB5
:1011B000524183088B4201D38B00C01A524143082D
:1011C0008B4201D34B00C01A5241411A00D2014652
:1011D000524110467047FFE701B5002000F006F8C5
:1011E00002BDC0460029F7D076E770477047C04679
:1011F000002B11D1002A0FD1002900D1002802D0E4
:101200000021C943080007B4024802A14018029017
:1012100003BDC046D9FFFFFF03B4684601B502987D
:1012200000F034F8019B9E4602B00CBC7047C046EB
:10123000F0B5CE469946030C9C46130447461B0C5A
:101240001D000E0061460404240C80B50700100C3C
:101250004B436543414360432C0CC01820188C4617
:10126000834203D980235B029846C44449467943AC
:101270005643030C2D042D0C8919634400044019B6
:10128000C918C0BCB946B046F0BDC046F0B5574617
:101290004E464546DE46E0B504000D0092469946AE
:1012A00083B08B4230D82DD04946504600F0D8F854
:1012B00029000600200000F0D3F8331A9846203B9E
:1012C00034D49B4653465A46934042461F005346E9
:1012D00093401E00AF423BD8AF4200D179E05B465D
:1012E000A41BBD41002B00DA76E00022002300920F
:1012F000019301235A4693400193012342469340B0
:10130000009329E08242CFD900220023009201936A
:101310000C9B002B01D01C605D600098019903B00C
:10132000F0BCBB46B246A946A046F0BD42469B462D
:1013300020239B1A5246DA40414613004A468A400F
:10134000170042461F43534693401E00AF42C3D985
:1013500000220023009201934346002BD8D0FB07C4
:1013600072081A4346467B080EE0AB4201D1A24206
:101370000CD8A41A9D41012024196D410021013E81
:1013800024184D41002E06D0AB42EED9013E24195F
:101390006D41002EF8D1009801995B460019694112
:1013A000002B24DB2B005A464446D3402A00E2405F
:1013B0001C005B461500002B2ADB26009E403300F4
:1013C00026004746BE403200801A994100900191A4
:1013D0009EE7A342BCD882E74246202300219B1A05
:1013E0000022009101920122DA40019285E74246F3
:1013F00020239B1A2A0046469A402300F340444685
:1014000013432A00E2401C005B461500002BD4DA8F
:1014100042462F002023260097409B1ADE403B00C7
:101420003343CDE71C2101231B04984201D3000C58
:1014300010391B0A984201D3000A08391B09984247
:1014400001D30009043902A2105C40187047C0465D
:10145000040302020101010100000000000000007D
:1014600010B5002903D1FFF7DDFF203002E00800AE
:10147000FFF7D8FF10BDC046F8B5C046F8BC08BCA1
:101480009E467047F8B5C046F8BC08BC9E467047FB
:1014900001B40248844601BC604700BF61020008F5
:1014A0000300000001000000010000000000000037
:1014B00005036000040000000100000000000000BF
:1014C0000100000006046000080000002C05000870
:1014D000B101001000002040000024400000004046
:1014E00000000000000023400000304000003140B8
:1014F00000009F40000022400000104000009B4080
:101500002020202020132010101E2080170075009E
:10151000FF03050104001C03100000001FC00000B1
:1015200000040000000000000019324B647D02023C
:10153000000000804000080B100000000000FF01C8
:101540002002001F00800004FF0810180010001483
:101550000018001C4044484C5000000008100000D7
:101560000800000004000000041000000012000049
:10157000042100000021000000160000401140027C
:10158000C41300138013A01340138813A813200062
:101590001C00000000000000F4FCFF7F01000000C0
:1015A000000000100000000880000000C0150010BE
:1015B00080000008F8020000B003000818020000D4
:1015C00000093D0000093D0000127A0000093D00BD
:1015D000A00F000004000000F5000010C90000107A
:1015E00080B230B5C400002820D0114B1868030029
:1015F000BA331A8807235343026A9A1811680029DC
:10160000FCDA3E210B4A062511600B4A0B4911609A
:10161000A3210B4AC90055500A495450006A545836
:101620001B18002058605358002BFCDA30BDC04610
:101630004C05000804012640080126401E1F00003A
:10164000000026401C05000010B54378FF2B11D187
:1016500000F01AF90400032000F0FEF80121C3682D
:101660005B681A680A431A601A680A42FCD12000B3
:1016700000F0DAF810BDF7B507000020019100F086
:10168000EBF83E4C050023681A005033BC32166854
:101690001B788619002B59D000F0EEF80090032833
:1016A0001AD000F0F1F8364A364B0400D358002B1C
:1016B0003CDA01212800344A00F0F6F8002835D140
:1016C0000198FFF78DFF002F3ED03368002BFCDB25
:1016D00000F0BAF805002AE0062000F0BDF8236803
:1016E000BC331B68C0180368002B02DA274D2800A2
:1016F000FEBD002000F0B8F8254B9842F6D000233C
:10170000244A19000120126800F096F8041EEDD159
:10171000002000F0A9F81E4A1F4B904203D09C42C3
:10172000E4D00134F4E79C42BBD1DFE7174D009BC6
:10173000032B05D10121002000F0AEF80028F9D1DB
:10174000200000F071F8D2E7144DF0E700F09CF8AB
:10175000012104000C4A280000F0A6F8002808D156
:10176000002F08D03368002BFCDB00F06DF805007B
:10177000E6E7064DE4E7094DE2E7C0464C05000800
:10178000000026401C05000050050008050052001E
:101790000101880060050008F049020001005000C6
:1017A000184BF7B51B6818495A6804230C69234382
:1017B0000B61012824D030BF1300FC331B69002BC0
:1017C0001DD1A324114B12481249E40007681E5989
:1017D0000D680195104D056006251D513E240C60D5
:1017E0000E4C3E351D511D59002DFCDA0C4CFC32BF
:1017F0001461A322D20007609E50019B0B60F7BDCD
:1018000020BFD9E74C05000800ED00E000002640AD
:1018100008012640040126401E1F00001C05000090
:10182000AAAAAAAA0000000001B40248844601BC8A
:10183000604700BF9303001001B40248844601BC16
:10184000604700BFD105001001B40248844601BCC6
:10185000604700BF5904001001B40248844601BC2F
:10186000604700BFA503001001B40248844601BCD4
:10187000604700BF3908001001B40248844601BC2B
:10188000604700BFE102001001B40248844601BC79
:10189000604700BF8B03001001B40248844601BCBE
:1018A000604700BFB907001001B40248844601BC7C
:1018B000604700BFBD0400100000000000000000F1
:1018C0000000000000000000000000000000000018
:1020000000F801088D2300100D00000001240010CD
:102010000124001001240010012400100000000021
:10202000000000000000000000000000FD23001080
:10203000FD23001000000000FD230010FD23001010
:10204000FD23001000000000FD230010FD23001000
:1020500000000000FD230010FD230010FD230010F0
:10206000FD230010FD230010FD230010FD230010B0
:10207000FD23001000000000FD230010FD230010D0
:10208000FD230010FD230010FD230010FD23001090
:10209000FD230010FD230010FD230010FD23001080
:1020A000FD230010FD230010FD230010FD23001070
:1020B000FD230010FD230010FD230010FD23001060
:1020C000FD230010FD230010FD230010FD23001050
:1020D000FD230010FD230010FD230010FD23001040
:1020E000FD230010FD23001000000000FD23001060
:1020F000FD230010FD230010FD230010FD23001020
:1021000000000000FD230010FD230010FD2300103F
:10211000FD230010FD23001000000000000000005F
:10212000FD230010FD230010FD230010FD230010EF
:10213000FD230010FD230010FD230010FD230010DF
:10214000FD230010FD230010FD230010FD230010CF
:10215000FD230010FD230010FD230010FD230010BF
:10216000FD230010FD230010FD230010FD230010AF
:10217000FD230010FD230010FD230010FD2300109F
:10218000FD230010FD230010FD230010FD2300108F
:10219000FD230010FD230010FD230010FD2300107F
:1021A000FD230010FD230010FD230010FD2300106F
:1021B000FD230010FD230010FD230010FD2300105F
:1021C000FD230010FD230010FD230010FD2300104F
:1021D000FD230010FD230010FD230010FD2300103F
:1021E000FD230010FD230010FD230010FD2300102F
:1021F000FD230010FD230010FD230010FD2300101F
:10220000FD230010FD230010FD230010FD2300100E
:10221000FD230010FD230010FD230010FD230010FE
:10222000FD230010FD230010FD230010FD230010EE
:10223000FD230010FD230010FD230010000000000E
:10224000000000000000000000000000FD2300105E
:10225000FD230010FD230010FD230010FD230010BE
:10226000FD230010FD230010FD23001000000000DE
:10227000000000000000000000000000000000005E
:102280000000000000000000FD230010000000001E
:10229000000000000000000000000000000000003E
:1022A000000000000000000000000000000000002E
:1022B000000000000000000000000000000000001E
:1022C000FD230010FD230010FD230010FD2300104E
:1022D00000000000000000000000000000000000FE
:1022E000FD230010FD230010FD230010FD2300102E
:1022F000FD230010FD230010FD2300100348044BB4
:10230000834202D0034B03B118477047D02900081D
:10231000D0290008000000000548064B1B1AD90F01
:1023200001EBA301491002D0034B03B118477047DA
:10233000D0290008D02900080000000010B5064C84
:10234000237843B9FFF7DAFF044B13B10448AFF326
:1023500000800123237010BDC02A00080000000087
:10236000201E011008B5054B1BB105490548AFF308
:102370000080BDE80840FFF7CFBF00BF00000000AD
:10238000C42A0008201E011070477047FFF7FCFFA9
:1023900072B6144C144DAC4209DA21686268A36825
:1023A000043BA2BFC858D050FAE70C34F3E70F49FA
:1023B0000F4A00209142BCBF41F8040BFAE70D48D8
:1023C0000D490860BFF34F8F00F084F800F068F803
:1023D000FFF7DBFF0BF07CF801F05EF90BF09CF8E7
:1023E000FEE700002C1E0110441E0110C02A000848
:1023F000683400080020000808ED00E0FEE7FEE772
:1024000000B504207146084202D0EFF3098002E0D3
:10241000EFF30880043009F007FAFEE708B5012061
:1024200006F044FF08BD704710B5002009F014F90C
:1024300000B910BD0446124B186008F045FB01308E
:10244000B4FBF0F00F4B186008F056FB0130B4FB02
:10245000F0F40D4B1C60013C0C4BA3FB04239B0CC4
:1024600001330B4A13700B4BA3FB0434A409013452
:10247000094B1C60002009F0EFF8084B1860D8E702
:102480000423000808230008FC22000883DE1B4305
:1024900010230008D34D62100C230008002300080D
:1024A00008B5094805F0EEFDFFF7BDFFFFF7BCFFDB
:1024B00000221146032006F055FF044806F098FD5F
:1024C000034806F0F7FD08BD9C190110DC2A00083E
:1024D000CCFC0010EFF3108172B6074AD2F88830B6
:1024E00043F47003C2F88830BFF34F8FBFF36F8F90
:1024F00081F31088704700BF00ED00E008B500F0E0
:1025000029F800F005F808BD08B500F015F808BD79
:1025100010B5064C064A0621204606F083FC054A03
:102520000721204606F07EFC10BD00BF00033140AD
:1025300000FD001038FD001008B5034803F0A2FCB0
:10254000024803F09FFC08BD34FD00106CFD001034
:10255000FEE7000010B59621002009F0B7F908F059
:102560007FFC0021084608F04BFB002008F0B6FA7B
:10257000012008F09BFA002008F028FA4E4B1B6857
:1025800093F83F4003E0204608F0A6FD013C002CF4
:10259000F9D10021012008F0AFFB002008F01EFB5C
:1025A000002872D00021084608F0A6FB002108464A
:1025B00008F0F4FA002008F069FA002008F08EFA1A
:1025C000002008F073FA002008F000FA0021012032
:1025D00008F092FB0021084608F08EFB0021022043
:1025E00008F08AFB0021032008F086FB002104206C
:1025F00008F082FB314808F04DFC002850D13048EB
:1026000008F0F8FC00284ED10021084608F0C6FA70
:102610000021084608F0F4FA2A49012008F082FD5A
:10262000002843D142F21071012008F009FE002871
:102630003FD108F021FA002008F0F2F9002008F05C
:1026400005FA08F00FFA0021084609F0CDFA01203A
:1026500008F0D6F908F012FB012008F019FBFFF78B
:10266000E3FE0021084609F0BFFA174803F00AFC10
:10267000164803F007FC164803F004FC154803F065
:1026800001FC154803F0FEFB10BD08F063FB40F2AF
:102690001113984286D10121002008F07FFA81E7CA
:1026A0000420FFF755FF0420FFF752FF0320FFF738
:1026B0004FFF0320FFF74CFF1C30000870FD001097
:1026C000400D030098FD001084FD001088FD0010EF
:1026D0008CFD001090FD001094FD001008B504481A
:1026E00009F05CF908B1002008BD0248FCE700BF12
:1026F000142300080000020610B503F0C1FB0446D5
:1027000030B1FFF7FBFEFFF7FFFE2CB1204610BDF6
:1027100004F02AF90446F4E7FFF7E0FF0446F5E782
:1027200000B583B04FF4E1330093FF231A4628210C
:10273000292009F0AFFC00B101BE03B05DF804FB35
:10274000F0B59C46394C0126C4F884600223C4F8D5
:102750008430374F2A253D600425C4F88450C4F8DE
:102760008850C4F88830C4F888604FEA102EC0B290
:10277000C4F88460C7F800E0C4F88450C4F88850F6
:102780003860C4F88450C4F88850C4F88860080AD7
:10279000C9B2C4F884603860C4F88450C4F8885062
:1027A0003960C4F88450C4F88850C4F88860C4F80C
:1027B0008460C4F884302B213960C4F88450C4F894
:1027C0008850C4F88830C4F88860110AD2B2C4F8BE
:1027D00084603960C4F88450C4F888503A60C4F802
:1027E0008450C4F88850C4F888604FEA1C215FFA0E
:1027F0008CF2C4F884603960C4F88450C4F88850FE
:102800003A60C4F88450C4F88850C4F88860C4F8AA
:102810008460C4F884302C223A60C4F88450C4F830
:102820008850C4F88830C4F88860F0BD000031409A
:102830000001314070B50446EF23002240F23F1101
:102840001046FFF77DFF4FF0000C1CE0210AE0B2BC
:10285000104B0125C3F884500F4E31600421C3F89A
:102860008410C3F888103060C3F88410C3F888104F
:10287000C3F888502A4492B2B2F5A07FE6D30CF197
:10288000010C1FFA8CFCBCF1EF0F01D80022F3E71A
:1028900070BD00BF00003140000131402DE9F04122
:1028A00007468C4615469846BDF81840A0EB5200E6
:1028B00080B207EB5207B9B212F0010F01D14B1EE3
:1028C00099B2ACEB580292B20CEB58039BB218F0E1
:1028D000010F01D1013B9BB2FFF732FF4FF0000E19
:1028E0001BE0230AE2B210490127C1F884700F4EA1
:1028F00033600423C1F88430C1F888303260C1F8F5
:102900008430C1F88830C1F88870384480B2A84259
:10291000E7D30EF1010E1FFA8EFEC64501D200204C
:10292000F5E7BDE8F08100BF000031400001314013
:102930002DE9F84F86468C4615469946DDF82880E5
:10294000BDF82C70BDF830600024A0EB520080B2BE
:102950000EEB520189B212F0010F01D1013989B297
:10296000ACEB590292B20CEB59039BB219F0010F78
:1029700001D1013B9BB2FFF7E3FE4FEAD50C15F006
:10298000070F01D00CF1010C002249E014F0800F78
:102990002AD1330A5FFA86FE24484FF0010AC0F8B4
:1029A00084A0DFF88CB0CBF800300423C0F884306A
:1029B000C0F88830CBF800E0C0F88430C0F8883028
:1029C000C0F888A06400E4B2013189B2A94225D2DE
:1029D00011F0070FDAD112FB0CF3C80810FA83F3D9
:1029E0009BB218F80340D1E7380A5FFA87FE0F4B15
:1029F0004FF0010AC3F884A0DFF834B0CBF8000030
:102A00000420C3F88400C3F88800CBF800E0C3F8C2
:102A10008400C3F88800C3F888A0D3E7013292B2DB
:102A20004A4501D20021D1E7BDE8F88F00003140CE
:102A3000000131402DE9F843EA4C0125C4F88450E7
:102A40004FF00208C4F88480E74F3D600426C4F8C4
:102A50008460C4F88860C4F88880C4F88850322044
:102A600008F0BAFEC4F88450C4F884804FF011090D
:102A7000C7F80090C4F88460C4F88860C4F88880FF
:102A8000C4F88850782008F0A7FEC4F88450C4F831
:102A90008480CF233B60C4F88460C4F88860C4F8A5
:102AA0008880C4F88850C4F8845000233B60C4F880
:102AB0008460C4F88860C4F88850C4F884508322C5
:102AC0003A60C4F88460C4F88860C4F88850C4F8D8
:102AD000845030223A60C4F88460C4F88860C4F836
:102AE0008850C4F88450C4F88480ED223A60C4F859
:102AF0008460C4F88860C4F88880C4F88850C4F83A
:102B0000845064223A60C4F88460C4F88860C4F8D1
:102B10008850C4F8845003223A60C4F88460C4F832
:102B20008860C4F88850C4F8845012223A60C4F80F
:102B30008460C4F88860C4F88850C4F88450812246
:102B40003A60C4F88460C4F88860C4F88850C4F857
:102B50008450C4F88480E8223A60C4F88460C4F8E1
:102B60008860C4F88880C4F88850C4F884508522EE
:102B70003A60C4F88460C4F88860C4F88850C4F827
:102B800084503D60C4F88460C4F88860C4F88850FC
:102B9000C4F8845079223A60C4F88460C4F888602C
:102BA000C4F88850C4F88450C4F88480CB223A60BA
:102BB000C4F88460C4F88860C4F88880C4F8885079
:102BC000C4F8845039223A60C4F88460C4F888603C
:102BD000C4F88850C4F884502C223A60C4F8846049
:102BE000C4F88860C4F88850C4F884503B60C4F8C6
:102BF0008460C4F88860C4F88850C4F884503422D3
:102C00003A60C4F88460C4F88860C4F88850C4F896
:102C10008450C7F80080C4F88460C4F88860C4F8A1
:102C20008850C4F88450C4F88480F7213960C4F80F
:102C30008460C4F88860C4F88880C4F88850C4F8F8
:102C4000845020213960C4F88460C4F88860C4F8D6
:102C50008850C4F88450C4F88480EA213960C4F8EC
:102C60008460C4F88860C4F88880C4F88850C4F8C8
:102C700084503B60C4F88460C4F88860C4F888500D
:102C8000C4F884503B60C4F88460C4F88860C4F819
:102C90008850C4F88450C4F88480C1213960C4F8D5
:102CA0008460C4F88860C4F88880C4F88850C4F888
:102CB0008450C7F80090C4F88460C4F88860C4F8F1
:102CC0008850C4F88450C4F88480C5213960C4F8A1
:102CD0008460C4F88860C4F88880C4F88850C4F858
:102CE00084503A60C4F88460C4F88860C4F888509E
:102CF000C4F884503D223A60C4F88460C4F8886007
:102D0000C4F88850C4F88450C4F88480C7223A605C
:102D1000C4F88460C4F88860C4F88880C4F8885017
:102D2000C4F88450C0223A60C4F88460C4F8886053
:102D3000C4F88850C4F88450C4F8848036223A60BD
:102D4000C4F88460C4F88860C4F88880C4F88850E7
:102D5000C4F8845068223A60C4F88460C4F888607B
:102D6000C4F88850C4F88450C4F884803A223A6089
:102D7000C4F88460C4F88860C4F88880C4F88850B7
:102D8000C4F8845055223A60C4F88460C4F888605E
:102D9000C4F88850C4F88450C4F88480B1223A60E2
:102DA000C4F88460C4F88860C4F88880C4F8885087
:102DB000C4F884503B60C4F88460C4F88860C4F8E8
:102DC0008850C4F884501D223A60C4F88460C4F866
:102DD0008860C4F88850C4F88450C4F88480B62150
:102DE00004E000BF00003140000131403960C4F808
:102DF0008460C4F88860C4F88880C4F88850C4F837
:102E000084500A223A60C4F88460C4F88860C4F828
:102E10008850C4F88450A2203860C4F88460C4F894
:102E20008860C4F88850C4F8845027203860C4F8FB
:102E30008460C4F88860C4F88850C4F884503B604B
:102E4000C4F88460C4F88860C4F88850C4F884501A
:102E5000C4F88480B7233B60C4F88460C4F88860F9
:102E6000C4F88880C4F88850C4F8845007233B60B5
:102E7000C4F88460C4F88860C4F88850C4F88450EA
:102E8000C4F884803960C4F88460C4F88860C4F8E9
:102E90008880C4F88850C4F8845008233B60C4F884
:102EA0008460C4F88860C4F88850C4F88450C4F8BA
:102EB000848026233B60C4F88460C4F88860C4F82A
:102EC0008880C4F88850C4F884503D60C4F8846099
:102ED000C4F88860C4F88850C4F88450C4F884806A
:102EE000E0233B60C4F88460C4F88860C4F888803C
:102EF000C4F88850C4F884501F233B60C4F8846031
:102F0000C4F88860C4F88850C4F884501A233B6021
:102F1000C4F88460C4F88860C4F88850C4F8845049
:102F200018233B60C4F88460C4F88860C4F88850F3
:102F3000C4F884503A60C4F88460C4F88860C4F867
:102F40008850C4F884500F233B60C4F88460C4F8F0
:102F50008860C4F88850C4F8845006233B60C4F8E5
:102F60008460C4F88860C4F88850C4F8845045234D
:102F70003B60C4F88460C4F88860C4F88850C4F822
:102F8000845087233B60C4F88460C4F88860C4F828
:102F90008850C4F884504FF03209C7F80090C4F844
:102FA0008460C4F88860C4F88850C4F884503A60DB
:102FB000C4F88460C4F88860C4F88850C4F88450A9
:102FC00007233B60C4F88460C4F88860C4F8885064
:102FD000C4F88450C7F80080C4F88460C4F88860DE
:102FE000C4F88850C4F884503B60C4F88460C4F8C6
:102FF0008860C4F88850C4F8845005233B60C4F846
:103000008460C4F88860C4F88850C4F884500022F2
:103010003A60C4F88460C4F88860C4F88850C4F882
:103020008450C4F88480E1213960C4F88460C4F815
:103030008860C4F88880C4F88850C4F884503A6026
:10304000C4F88460C4F88860C4F88850C4F8845018
:1030500025223A60C4F88460C4F88860C4F88850B7
:10306000C4F884503860C4F88460C4F88860C4F838
:103070008850C4F884503B60C4F88460C4F8886009
:10308000C4F88850C4F8845010223A60C4F88460B0
:10309000C4F88860C4F88850C4F8845009223A60A3
:1030A000C4F88460C4F88860C4F88850C4F88450B8
:1030B0003A223A60C4F88460C4F88860C4F8885042
:1030C000C4F8845078203860C4F88460C4F88860FC
:1030D000C4F88850C4F884504D213960C4F8846025
:1030E000C4F88860C4F88850C4F884503B60C4F8C1
:1030F0008460C4F88860C4F88850C4F884501823E9
:103100003B60C4F88460C4F88860C4F88850C4F890
:1031100084500D233B60C4F88460C4F88860C4F810
:103120008850C4F8845038233B60C4F88460C4F8E5
:103130008860C4F88850C4F884503A60C4F8846049
:10314000C4F88860C4F88850C4F884501F233B60DA
:10315000C4F88460C4F88860C4F88850C4F8845007
:10316000C4F8848011233B60C4F88460C4F888608C
:10317000C4F88880C4F8885008F02EFBC4F8845046
:10318000C4F8848029233B60C4F88460C4F8886054
:10319000C4F88880C4F88850484608F01DFBBDE894
:1031A000F88300BF08B5012306221946082002F063
:1031B00063FD00B108BD012306221946092002F073
:1031C0005BFD0028F6D10123062219460A2002F0F1
:1031D00053FD0028EED1012306221946102002F0EB
:1031E0004BFD0028E6D1012306221946112002F0EA
:1031F00043FD0028DED1012306221946122002F0E9
:103200003BFD0028D6D1012306221946132002F0E7
:1032100033FD0028CED1012306221946142002F0E6
:103220002BFD0028C6D1012306221946152002F0E5
:1032300023FD0028BED1012306221946162002F0E4
:103240001BFD0028B6D1012306221946172002F0E3
:1032500013FDAFE708B5FFF7A5FF00B108BDFFF705
:10326000E9FB0020FFF7E6FAF8E708B500231A4665
:103270001946332002F000FD00231A461946342077
:1032800002F0FAFC00231A461946352002F0F4FC3D
:1032900008BD000000B583B000225621104801F09F
:1032A00059FA00B101BE0F490D4800F0B3FE00B15C
:1032B00001BE0D4B0093FF23562209490B4800F035
:1032C000BDFF00B101BE084B0093FF235722044904
:1032D000074800F0B3FF00B101BE03B05DF804FB86
:1032E0007C2C0008A8FD0010A0FD0010642C000834
:1032F000702C000808B5024801F0B0F808BD00BF06
:10330000642C000808B5024801F0A8F808BD00BF09
:10331000702C000870B5FFF7EDFFB0F5404F19D2E3
:103320000025FFF7EFFFB0F5404F15D20024FFF75F
:10333000E9FF43F6FE73984210D90026FFF7DAFF43
:1033400043F6FE7398420BD900235CB17DB983B17B
:10335000062011E00125E4E70124E8E70126EDE776
:103360000123F2E73EB145B94BB1082004E0052046
:1033700002E0032000E0002070BD0720FCE70420ED
:10338000FAE77047F0B583B005460C461F460026A5
:103390008E60013A4A604E708E7001230B70CE60D1
:1033A0003246FF2103F006FF00B101BE2146284648
:1033B00003F05AFF00B101BE0A49284603F05EFE41
:1033C00000B101BE05F1080400223946204603F091
:1033D00057FC0122009203232146284603F090FC6B
:1033E00003B0F0BD00E1F50510B5FFF799F90B4802
:1033F00003F094FF0020FFF738FFFFF72BFFFFF7E4
:10340000C0FFFFF747FF064C064B074A0749204617
:10341000FFF7B8FF204603F0F7FE10BDBC2D0008F3
:10342000802D0008F5390010404B4C00702D00082D
:103430002DE9F04784B087480AF026F84FF4A870C9
:1034400009F0B2FC0746844B93E803000290ADF804
:103450000C10824809F0B2FF814C204609F0AEFF03
:103460008049814809F0AAFF8049814809F0A6FFF8
:103470008049814809F0A2FF8049814809F09EFFF8
:103480008049814809F09AFF204609F097FF3846A5
:1034900000F090F9002407E004EB440007EBC000C3
:1034A000047500F079FA01340D2CF5DD0123BB75AC
:1034B000384600F071FA754C00944FF6FF734B22BA
:1034C0007821002000F048F900944FF6FF73822223
:1034D0005021052000F016F900944FF6FF73822268
:1034E000E121002000F00EF900242246A0463AE037
:1034F000062B53D9138ABDF80A201344ADF80A30BD
:10350000DFF88891CDF800904FF6FF734B227821B9
:10351000BDF80A0000F020F99DF80CA0CDF800904D
:103520004FF6FF7382225021504600F0EBF8CDF8A1
:1035300000904FF6FF738222E121002000F0E2F8B4
:10354000BAF1000F00F0838004B19EB3322003F083
:103550005DFA4F4B1B6813F0080F43D14B2003F06B
:1035600055FA34462A464A4B1D6805F001051E6887
:10357000C6F34006002AE7D0002DE5D108EB48034A
:1035800007EBC30217F83330002BB1D1ADF80A3086
:103590009DF80C30013B8DF80C30B1E7138ABDF873
:1035A0000A201344ADF80A309DF80C30013B8DF829
:1035B0000C30A5E7384600F0FDF8002407E004EBE6
:1035C000440007EBC000047500F0E6F901340D2C4F
:1035D000F5DD08EB480007EBC0000123837500F020
:1035E000DBF9B3E7FFF796FE2A4C207008EB4800A2
:1035F00007EBC0000023837500F0CEF92378032B7E
:103600000FD0042B18D008EB480007EBC0000123B3
:10361000837500F0C1F91E4A13786FF3C30313706A
:103620009CE7B8F10D0F04D008F101085FFA88F8A3
:10363000E7E74FF00008E4E7B8F1000F04D008F125
:10364000FF385FFA88F8DEE74FF00D08DBE704B0DB
:10365000BDE8F087BCFD001064FE0010C4FD001042
:10366000D0FD00103023000808FE001010FE0010EE
:103670001CFE00102CFE001038FE00106023000815
:1036800048FE00104023000854FE00100000FFFF19
:10369000C42D0008B82D000808B5FFF72DF800B1BB
:1036A00001BE62B6FFF7A0FEFFF7C2FEFEE7000014
:1036B000844608461146BCF1090F03D9BCF13A0F04
:1036C00000D0704730B585B0BCF13A0F13D00B4C29
:1036D00004EB8C0EBEF80220094D2A44BDF82050A0
:1036E0000295019300929EF8013014F82C20FFF708
:1036F0001FF905B030BD4FF00A0CE8E7F4000110E7
:103700007CFE00102DE9F04184B0BDF828806328CC
:1037100002D904B0BDE8F0810C4617461E460246A9
:103720000C4903A809F07AFD002510E005F110030B
:103730006B4413F8040C3038CDF8008033463A4619
:103740002146C0B2FFF7B4FF0F34A4B20135012DFA
:10375000ECDDDEE76CFE00102DE9F04184B01F4681
:10376000BDF82880114B984202D904B0BDE8F08121
:103770000C46164602460E4902A809F04FFD0025E8
:1037800010E005F110036B4413F8080C3038CDF845
:1037900000803B4632462146C0B2FFF789FF0F3416
:1037A000A4B20135052DECDDDFE700BF3F420F007D
:1037B00074FE0010F0B585B0044600210D2910DC20
:1037C00001EB410004EBC002002344F830305360A9
:1037D0009360D360136153610A2304F830300131E0
:1037E000ECE7032511E0039A53085549A1FB0313A5
:1037F0009B08C3EBC303A2EB430303EB430304EBBC
:10380000C30214F833300A2B0DD0BDB14D4903ABC0
:10381000009320230A464C48006804F021FE00284B
:10382000E1D001BEDFE71646484F0FCF0FC697E83D
:10383000030086E80300013DEDB2E6E7032511E051
:10384000039A53083E49A1FB03139B08C3EBC30330
:10385000A2EB430303EB430304EBC30614F833303A
:103860000A2B0ED0002D53D0364903AB00932023F2
:103870000A463548006804F0F3FD0028E0D001BE98
:10388000DEE7304903AB009320230A462E48006848
:1038900004F0E6FD00B101BE039B2D4AA2FB03121A
:1038A00022F0010101EB52029B1A13F0FF0313D027
:1038B000012B0FD0092303EB4302244B03EBC20C73
:1038C000BCE80F000FC69CE8030086E80300013D3A
:1038D000EDB2C7E70823EEE70723ECE701BE039A42
:1038E0001C4BA3FB0213D11A03EB51039B08C3EB40
:1038F000C303D31ADBB203EB4303144A02EBC30C3A
:10390000BCE80F000FC69CE8030086E80300013501
:103910000D2D13DC05EB450304EBC30614F833301F
:103920000A2BF4D1074903AB009320230A4606482B
:10393000006804F095FD0028D1D0CFE705B0F0BDB8
:1039400093244992B71DC104BC2D0008800D0110BD
:10395000ABAAAAAA2549922430B585B00D4B53F8DD
:1039600020000390BDF80C40BDF80E504FF4784392
:10397000009338231A4629462046FEF78FFF00237E
:10398000009332231A4629462046FEF787FF05B0EA
:1039900030BD00BF6823000870B586B00446037DC3
:1039A000134A52F823000590BDF81450BDF8166074
:1039B0001846FFF7D1FFA37D6BB1A3890293E3897A
:1039C0000193636800932389628931462846FEF794
:1039D000AFFF06B070BDE3890293A38901936368CA
:1039E00000932389628931462846FEF7A1FFF0E75C
:1039F0006823000810B51E4BD3F81043FFF78AFC6C
:103A000014F0080F1BD11B4A137843F00103137005
:103A100014F0100F19D1174A137843F002031370F2
:103A200014F0200F17D1134A137843F004031370D6
:103A3000B8B1104A137843F00803137010BD0D4A53
:103A400013786FF300031370E2E70A4A13786FF3F9
:103A500041031370E4E7074A13786FF3820313708E
:103A6000E6E7044A13786FF3C3031370E6E700BF79
:103A700000003140C42D00080230800803D001301E
:103A80000238FCD100BF00BF7047EFF3108072B660
:103A9000704780F310887047272804D0282804D066
:103AA00001BE002070470020704701207047836EE0
:103AB0004BB990F855301BB3B0F85630C3F3080338
:103AC00003B3012200E001224168D1F81832DAB1D3
:103AD00043F0010222EA030333F0F70C00D001BEE9
:103AE00003F0F703C1F81032D1F81032436832F016
:103AF000F70100D001BE02F0F702C3F818227047A8
:103B00000122E1E70022DFE723F00102E2E70146BC
:103B10000023184601E00133DBB20F2B06D89A1CB4
:103B200051F82220002AF6D01846F4E7704700002A
:103B300000F00700014B53F820007047A416011055
:103B400000F0070019B1044B53F820007047034BF5
:103B500053F82000704700BF04170110C41601106D
:103B600000F0070011B1034B185C7047024B53F88B
:103B70002000704724170110E4160110032809D80B
:103B8000DFE800F0020B0406402070477020704709
:103B90006020704701BE40207047502070470000F1
:103BA000202816D800283CD001381F283BD8DFE851
:103BB00000F021213A243A3A3A283A3A3A3A3A3A43
:103BC0003A2C3A3A3A3A3A3A3A3A3A3A3A3A3A3A63
:103BD0003A30802821D0B0F5807F03D170230B705C
:103BE00000207047402803D150230B7000207047FD
:103BF0000E48704700200870704710230B7000209B
:103C0000704720230B700020704730230B7000207A
:103C1000704740230B700020704760230B7000201A
:103C20007047024870470148704700BF0001020416
:103C300010F0020F05D110F0080F04D04FF4C0703F
:103C4000704700207047802070470000012800D98D
:103C500001BE014B185C7047A016011008B512B2E6
:103C6000406805F0EFFF08BD08B590F86C1040689B
:103C700005F012FF08BD000070B588B0EFF30580B5
:103C8000103800B2FFF708FF4A4B53F82040626833
:103C90000123C2F81032D2F8102284F8553094F87B
:103CA0005630002B37D1A36E002B74D02046FFF77F
:103CB0002EFF461CF6B294F86D30012B46D094F8D6
:103CC0006420002A44D103B101BE636803F5C073C8
:103CD00001930123ADF80830226E0392ADF8103045
:103CE00020228DF812200596002206928DF81C30B5
:103CF00004F1700501A9284601F044F803460028A4
:103D00003BD0002B3ED003B101BE94F86C30002BA9
:103D10003DD0012540E0606805F0CBFEC3E7236E8F
:103D20001860236E043323660135EDB2B54211D21B
:103D30002946606805F01CFF94F86430002BEED033
:103D4000024629462046FFF789FFE8E70025EDE710
:103D50000025EBE7A36E013BA36623B9C4F8F0305E
:103D60002366032518E094F86C300BB1012513E0AD
:103D70002046FFF779FF01250EE0284601F028F8DC
:103D80000346BEE7284601F010F80346BBE720468D
:103D9000FFF76AFFBDE701252046FFF788FE94F88C
:103DA0005710294003D0A36D0BB1E06D984708B0C0
:103DB00070BD00BFC82D000808B5437B012B09D09A
:103DC000032B0CD083B1022B00D001BE002002F0E7
:103DD00013FE0BE0836803B901BE806806E0002093
:103DE00002F00AFE400801E04FF4966008BD0000B2
:103DF0002DE9F04182B004460D4688220021284674
:103E000009F04AFB63780C2B39D1636803F00A038D
:103E10000A2B39D088220021284609F03DFB0A23CD
:103E2000AB6001232B6685F87430607BFFF7A6FE3C
:103E300040F4604040F04000E37BF3B18023034353
:103E4000227B0AB14FF4606242EA03070DF10701D9
:103E50006088FFF7A5FE064690B99DF8078048F0F8
:103E60000C086068FFF7E4FE48EA00002F60686015
:103E70002046FFF7A1FFA86702E00023DFE7034E1B
:103E8000304602B0BDE8F081004EF9E700010204BF
:103E900010B5044603684179586805F022FE0246D1
:103EA00023685868036832B103F46063B3F5606F48
:103EB00006D0002200E00022617905F05DFE10BD11
:103EC000004AF9E700F8FFFF2DE9F04188B0044609
:103ED0004C3000F09FFE804610B14B4BB3FBF0F826
:103EE000002306930793B8F1000F3DD09C46184677
:103EF00027E007F120026A4402F8183C012101334F
:103F0000DBB2C1B9032B16D8B5689E4608AA02EBEE
:103F1000430232F8082C9542EBD0002AEFD108AAD0
:103F200002EB430E2EF8085C07F120026A4402F807
:103F3000183C0121E3E701B934480CF1010C5FFAA8
:103F40008CFCBCF10F0F10D867460CF1020354F83B
:103F5000236000220CF120036B4403F8182C002E80
:103F6000EBD000231946CCE72948F8B108B0BDE8EA
:103F7000F0810223013308AD05EB410121F8203C1B
:103F80000132D2B2032A13D8114608AB03EB420325
:103F900033F8083C4344013BB3FBF8F3012BE8D969
:103FA000B3F5806FE6D340F2FF33E3E70022E9E7A1
:103FB000BDF80030BDF80210626843EA01431361A6
:103FC000BDF80430BDF80610626843EA014353614E
:103FD000002315E0656803F1200255F8221021F452
:103FE000405145F82210656855F822100DEB020685
:103FF00016F8186C41EA063145F822100133DBB29D
:104000000F2BE7D9B2E700BF00CA9A3B00010204B8
:104010000101020430B5A3B0044608460B7884F8C9
:104020006C300B7CFF2B14D02B4D427B013A18BF18
:1040300001228368B3FA83F35B099A4210D0264DBC
:10404000002D39D163681B6A069300238DF8743004
:104050001AE08B7BFF2B01D01F4DE6E70025E4E73C
:10406000002DEDD16946FFF7C3FE0546E8E762681B
:1040700003F1200152F821109A1D22A800EB8202C0
:1040800042F8841C0133DBB20F2BF0D9606805F0D5
:10409000D7FC0021606805F0F9FB6946606805F00F
:1040A000F3F905462046FFF70FFF63680122C3F8C6
:1040B0001822606805F098FC94F86C3013B9284613
:1040C00023B030BD002384F855302046FFF7EFFCC5
:1040D0002046FFF7C9FDF2E70001020410B40368AF
:1040E0005C68427902F1200354F8233003F07733FF
:1040F00023F07623497841B14FF480610B4320329D
:1041000044F822305DF8044B70470021F6E770B5A3
:104110000546084616460121FFF722FD0446FF2EFC
:1041200006D000213046FFF71BFD044344F08074A5
:104130002B685A686B79203342F8234070BD38B53C
:104140000D460446C8B16B68A72B38BFA723A360F0
:1041500029462046FFF7C2FF2B7883B123685968B0
:104160000B6A60790122824013430B622046FFF7FD
:104170008FFE2068FFF7A8FE38BD01BEE3E7236885
:1041800059680B6A60790122824023EA02030B62BC
:10419000ECE70268002A4FD0F8B5044643790233B1
:1041A000002142F8231005682B782BB90679FF2EE1
:1041B0000FD1A579FF2D22D123685A686379203366
:1041C000002142F8231023681B7873B30023236077
:1041D000F8BD01213046FFF7B3FC07463046FFF734
:1041E000A7FC064600233A461946686805F05AFDC2
:1041F000236800223146586805F068FDD9E7284653
:10420000FFF796FC064600212846FFF799FC024678
:10421000256800231946686805F044FD23680022DC
:104220003146586805F052FDC6E7201D03F00FFE29
:10423000A01D03F00CFEC9E7704700002DE9F04B0C
:1042400082B00E4690461F46044658B366B300231C
:1042500023606360A360FF222271A2710093102289
:104260005849404603F0A0FD814698B396F849208E
:1042700003789A421AD04FF0000C534D65B926606E
:1042800084F805C00CF1020C46F82C400A9B5B68D0
:10429000A72B38BFA723A36095BBFF2F20D14FF0DA
:1042A000000B2FE001BED1E701BED0E74FF0000CBC
:1042B000BCF10F0F09D80CF1020356F8233023B1DB
:1042C0000CF1010C5FFA8CFCF2E7BCF10F0F05D882
:1042D0000025D3E74FF0000C3B4DCFE73B4DDBE72C
:1042E0000023009310223749384603F05DFD8346D2
:1042F000E0B196F8492003789A4203D0324D02E0AB
:104300004FF0000B65B11DB984F80480FF2F0FD169
:10431000A5B1CDB1002D51D1284602B0BDE8F08B3A
:104320000021484603F09EFD0546ECE7264DEAE7EE
:104330000021584603F096FD0546E9E7A77120687D
:10434000FFF7C2FD0546E4E701214046FFF7F8FB11
:1043500081464046FFF7ECFB0646206801234A46AB
:104360000021406805F09EFC236801223146586810
:1043700005F0ACFCFF2F0AD1A27921792046FFF786
:10438000C6FE0A992046FFF7DAFE0546C2E700217D
:104390003846FFF7D5FB80463846FFF7C9FB06468F
:1043A0002068012342460021406805F07BFC236819
:1043B00001223146586805F089FCDDE72046FFF709
:1043C000E8FEA9E7500F01100001020403010204F6
:1043D00070B5044601684B685A6891F86C10002962
:1043E0003AD102F48072407900F1200153F8211093
:1043F00001F4806112B169BB002600E000261D6A4D
:1044000001228240110C090401B101BE1A62236825
:10441000002283F85520236883F856602068FFF750
:1044200046FB23683146586805F036FB236893F84D
:104430005520002AFAD06179586805F099FB236865
:1044400093F86C202AB95A682B0C1B0403B101BEE7
:10445000156270BD0126D2E70025E7E708B5FFF732
:10446000B7FF80B200F5006080B2000180B208BDE5
:104470000AB10948704738B504460D460021406826
:1044800005F020FB94F84900FFF7E0FB01462846C1
:1044900001F050FF38BD00BF0001020431B942688D
:1044A000536823F0804353600020704700487047F2
:1044B0000001020400285CD010B504464368ABB389
:1044C00090F849202B4B33F91230002B0CDB03F012
:1044D0001F015B0901228A402033274941F823202C
:1044E000BFF34F8FBFF36F8F94F849200021234B08
:1044F00043F822102046FFF7D1FF00B101BEB4F807
:10450000EC10A1B900224FF48031606805F0DEFBA9
:1045100000234FF480321946606805F0C3FB6068E1
:1045200005F0C7FA237853B10023636010BD002261
:104530002046FFF79DFF0028E4D001BEE2E7606857
:1045400005F07EFA94F8543033B900F041F904F1E3
:10455000480001F0DBFCE7E794F84C0094F84D10BC
:1045600000F0030006F0B6F904F14C0000F09DFBEA
:10457000EBE770479C16011000E100E0C82D000831
:10458000F8B50E4617461D460446002868D0F422AA
:104590000021204608F080FF1E2384F848300123C4
:1045A00084F86D3025703368002B5BD0002B7DD0F4
:1045B0001A889B78A4F8482084F84A3094F8493047
:1045C000594A52F823206260584AD75CB268002AE0
:1045D0005AD004F14C0392E8030083E8030000255D
:1045E00084F85450002D64D01DB994F85430002B39
:1045F0006CD1002D00F08E80002D40F091800122C2
:104600004FF48031606805F061FB01234FF4803284
:104610000021606805F046FB00F0B8F82046FFF77F
:1046200046FA94F84930424A42F82340414E424A01
:10463000032136F9130001F0D7FE94F8493036F91A
:104640001330002B07DB03F01F015B0901228A40B6
:104650003A4941F82320606805F0C6F92846F8BDBC
:1046600001BE94E7FF2FA1D01023354A0021384620
:1046700003F0C7FBB8B1002384F84830027884F80F
:10468000492084F84A3099E701231A4604F1480189
:1046900004F14C0003F0A4FC05460028A2D101233C
:1046A00084F854309EE70027264D9BE70027254DD0
:1046B00098E794F84C1094F84D2001F00301384627
:1046C00006F08AF800288FD01F4D92E706F0D4FF3D
:1046D0001E4AA2FB0032520D1D4B984201D21A4DC8
:1046E0008AE794F84C00013A94F84D1000F003006A
:1046F00005F062FF08B1144D7EE794F84C0094F881
:104700004D1000F0030006F0A3F800283FF471AF4D
:104710000D4D71E77168606804F0B6FE05466BE701
:104720002046FFF7C7FE99E7901601109816011072
:10473000C82D00089C160110793C001000E100E033
:10474000500F0110000102040101020483DE1B432B
:1047500000127A0070B5A8B006460C46154606A9A8
:104760000948FFF745FB08B128B070BD034601902A
:1047700006AA029203958DF81000224601A9304640
:10478000FFF7FEFEF0E700BF7C16011010B5FFF743
:104790007CF904460B4B1B883BB10A4A1388013352
:1047A00013802046FFF775F910BD074805F0D0FECD
:1047B000064B1B68DA69D2F8003E43F00043C2F8AA
:1047C000003EEAE7D02D0008781A01101C300008DE
:1047D00008B5FFF75AF90D4B1B8803B901BE0B4A08
:1047E0001388013B9BB2138063B9094B1A68D169E6
:1047F000D1F8003E23F00043C1F8003ED369002207
:10480000C3F8002EFFF745F908BD00BFD02D000802
:104810001C30000801BE0148704700BF02020204BC
:10482000024B0B600723136000207047F42300083D
:1048300008B5407806F010FF08BD000038B5054601
:1048400014468A4294BF00230123834209D080F09A
:1048500001038A422CBF002101218B4201D04DB1BE
:1048600038BD07F05DF9054BA3FB0431890C07F057
:104870002DF8F4E7FDF7D8FDF2E700BF83DE1B4318
:104880002DE9F04104460A78A2F10D03DBB2012BB9
:1048900004D90F2A2FD14E78013600E04E7800203F
:1048A00006F0CEF90746002006F098F906F0B4FEAF
:1048B00020FA07F8304606F0AFFE20FA07F76378D3
:1048C0006BB1F1B2607806F069F9054663789BB97F
:1048D00058B93A4641460020FFF7B0FF0CE03A468F
:1048E00041460120FFF7AAFFEBE742463946002088
:1048F000FFF7A4FF00E0024D2846BDE8F08100BFAD
:1049000001020204F8B505460139072935D8DFE868
:1049100001F00426340634343424002600E0022654
:10492000002006F08DF90746002006F057F906F042
:1049300073FE20FA07F720FA06F46B788BB1314644
:10494000687806F05DF906466B78BBB978B92246FF
:1049500039460020FFF772FF10E00326E0E701264A
:10496000DEE7224639460120FFF768FFE7E73A46CF
:1049700021460020FFF762FF00E0014E3046F8BDFF
:104980000002020408B519B1407806F0C1F808BD6C
:10499000407806F0E7F8FAE708B5407806F0D0F876
:1049A00008BD00002DE9F84304460E461546DDF823
:1049B0002080DDF8249001279F404FEA520C1CEB29
:1049C00000004FF0000341F1000107F097FDC9F826
:1049D0000000B84201D9C9F80070B8F1000F1AD030
:1049E00098F80070D9F8002000232046314607F0DF
:1049F00085FD02462946384603F0A8FA0028B8BFCC
:104A00004042B8F1000F08D0D8F80430834206D3F2
:104A10000020BDE8F8830020F3E70020F9E7014813
:104A2000F7E700BF0002020408B590F800C01CF0D0
:104A3000020F06D14A1E41780CF0030005F0BCFDC0
:104A400008BD00234A1E41780CF0030005F018FE53
:104A5000F6E770B584B004460D46164606F00CFE27
:104A60000146237813F0020F0ED013F0010F24D06B
:104A70001D2303AA019200962A464801C90EFFF79A
:104A800091FFE0B104B070BD13F0010F13D01023FB
:104A900003AA019200962A4608460021FFF782FFEA
:104AA0000028EFD12078039A013A617800F00300E2
:104AB00005F082FDE6E70823EAE71523D9E7039B23
:104AC0005A09207803F01F03013A617800F00300CF
:104AD00005F0D6FDD6E708B50378417803F003006A
:104AE00006F0E3FD08BD08B531B10378417803F065
:104AF000030005F0ADFE08BD0378417803F0030024
:104B000005F0E8FEF7E708B50378417803F0030005
:104B100005F012FF08BD000000487047641701103F
:104B20002DE9F04182B007460D469046084603F055
:104B30003BFAC6B2002401E00134E4B2B44213D21D
:104B400005238DF804308DF805508DF8064001A836
:104B500001F098F903460028EED13D707C700122E7
:104B6000BA70C7F8048000E0024B184602B0BDE8F6
:104B7000F08100BF020D020430B583B00C4605463B
:104B800078B184B105238DF8043023788DF8053091
:104B900063788DF8063001A801F074F928B103B0EC
:104BA00030BD01BEEDE701BEECE7226863682A6014
:104BB0006B600123AB70F2E708B5034648B11A7881
:104BC000122A08D0032A0AD95A6812681846904750
:104BD00008BD01BEF3E71846FFF7DEFEF8E718460A
:104BE000FFF791FFF4E710B5034648B11878122893
:104BF00008D003280AD9586844681846A04710BD51
:104C000001BEF3E71846FFF7BDFEF8E71846FFF7C9
:104C10006AFFF4E710B5044668B12046FFF7CCFF01
:104C200098B12378122B08D0032B0AD963689B68AC
:104C3000204698470AE001BEEFE72046FFF7F8FD5F
:104C400004E02046FFF747FF00E0002010BD10B54C
:104C5000034648B11878122808D003280AD95868A2
:104C6000C4681846A04710BD01BEF3E71846FFF719
:104C7000D1FDF8E71846FFF7ECFEF4E708B5034668
:104C800048B11A78122A08D0032A0AD95A68126938
:104C90001846904708BD01BEF3E71846FFF732FEFD
:104CA000F8E71846FFF7C0FEF4E710B582B00446F7
:104CB00090B1A37803B901BE05238DF804302378A1
:104CC0008DF8053063788DF8063001A801F01EF9E3
:104CD0000023A37002B010BD01BEEAE7074A32F814
:104CE000303002EBC000418882880B431343DBB2B3
:104CF0008279134314BF012000207047D42D00088F
:104D00002DE9F04107460E4615460024DFF8708075
:104D100014B14046BDE8F08105EB8403154A32F832
:104D20001320154B33F815309A4212D206233370F4
:104D300074700023B370114B3B602046FFF7CEFF29
:104D400068B9304601F09EF8804620B1B8F1000FF6
:104D500006D00134DCE7386803F0A0FAF6E7A04695
:104D6000044A05EB840532F81530013322F815307A
:104D7000CFE700BFD42D0008A41701100000104099
:104D8000010D020408B5034648B11A78082A08D074
:104D9000092A00D001BE184600F002FE08BD01BE7F
:104DA000F3E7184600F002FAF8E708B5034648B101
:104DB0001A78082A08D0092A00D001BE184600F047
:104DC00095FE08BD01BEF3E7184600F095FAF8E736
:104DD00008B5034648B11A78082A08D0092A00D035
:104DE00001BE184600F064FD08BD01BEF3E7184699
:104DF00000F090F9F8E708B5034648B11A78082A98
:104E000008D0092A00D001BE184600F083FD08BD75
:104E100001BEF3E7184600F08DF9F8E708B5034640
:104E200048B11878082808D0092800D001BE1846D3
:104E300000F0C8FE08BD01BEF3E7184600F0C6FA50
:104E4000F8E708B5034648B11A78082A08D0092AB5
:104E500000D001BE184600F0D5FE08BD01BEF3E744
:104E6000184600F0E3FAF8E710B50446B8B120465A
:104E7000FFF7C1FF00B101BE02212046FFF7E1FFAD
:104E800000B101BEB4F8781059B92378082B10D0BE
:104E90002378092B11D094F87A3093B110BD01BE5C
:104EA000E5E702222046FFF7B9FF0028EDD001BE5A
:104EB000EBE7204600F0F0F8EAE7204600F09EFC21
:104EC000E9E7204601F022F8E8E700000023012B83
:104ED00006D8054A52F8232022B90133DBB2F6E79F
:104EE0000020704701207047DC2D000838B5EFF333
:104EF0000583103BDBB2343BDBB2012B00D901BE92
:104F0000012B1BD80022012B00D901BE012B01D996
:104F100001BEFF231C4603EB4202244951F82250F4
:104F2000012B00D901BE230203F1804303F52813AE
:104F300041F28C0298580023194604E001BEFF227A
:104F4000E1E70133DBB250B1072B08D801229A40C8
:104F50001042F6D0164A32F813201143F1E711F04F
:104F6000010F0FD0B5F8643063B1013B9BB2A5F8D7
:104F700064303BB941F002016B7D012B13D001235A
:104F8000A5F86430EB6E19402B6F1BB111B189B2DB
:104F9000686F9847012C00D901BE2402054BFF22FF
:104FA0001A511B5938BDAB8FEAE700BFDC2D000852
:104FB000AC17011080102A4002304000C0B20844F3
:104FC000C0B2704770B5044600F11401443003F0DC
:104FD000C1FC00284ED1221DA178294803F046FCCF
:104FE000002849D1A378012B00D901BE244A02EB45
:104FF000032341F28801FF205850136843F0004317
:105000001360A378012B00D901BE1B021D4AD3589F
:1050100013F0180F19D160784000C0B2A37818447B
:10502000C0B200F134063546E36ED3B90321164A07
:10503000284601F0D9F908BB06F01F066D090123C7
:10504000B340124A42F8253015E0A378012B00D96D
:1050500001BE1A020B4B1344FF221A601B680C4856
:1050600009E006F1604303F5614393F80013490931
:10507000C9B2DCE7074870BD0648FCE70548FAE717
:1050800000002A4080102A40ED4E001000E100E0B0
:10509000030602040106020410B50446443003F07E
:1050A000DBFBA178164803F013FC63785B00DBB2EE
:1050B000A2781344DBB203F134010B4601F01F0167
:1050C0005B0901228A4020330E4941F82320BFF3B7
:1050D0004F8FBFF36F8F62785200D2B2A378134420
:1050E000DBB2094A002142F82310FFF7EFFE00B1BE
:1050F00010BD064801F02CFC054B00221A70F7E7A2
:1051000000002A4000E100E0DC2D00081024000827
:10511000E42D00088378012B00D901BE0449103327
:105120001B02CA5842F00042CA500020704700BF1C
:1051300000002A40054B9B68DBB2817801228A403F
:105140001A4214BF01200020704700BF00002A400F
:1051500038B5022922D0082920D0012914D001BE57
:1051600019E000231D430134E4B2012C0FD875B9B6
:105170000C4B53F824000028F3D0FFF7DBFF08B1F5
:105180000123EFE70023EDE700242546EDE785F056
:105190000105054B1D70044B187838BD024B0022E9
:1051A0001A70F8E7DC2D0008E42D000838B5044635
:1051B0000D46FFF7BFFF002840F08A806B69B3F50A
:1051C000803F00F28780012B1AD923B12A69B2EB04
:1051D000034F00F281802B682362AB686362AB7B74
:1051E000082B03D0102B01D0202B77D12A69082B54
:1051F0000CD0102B3ED0202B72D10223A37607E0D7
:105200002A69B2F5803FE0D9374854E00023A376FD
:1052100000232377E376A36E022B2ED0012B2FD011
:1052200004F1440323642B7E012B2BD90123E37566
:10523000B5F90430A362B5F90C30E3626B6923B3AE
:10524000B2FBF3F103FB1123002B4BD10223637755
:105250006B692363B2FBF3F3E363B5F904306A6966
:1052600002FB03F36363B5F90C306A6902FB03F3D5
:10527000A3630DE00123A376CAE70123E376CFE71A
:105280002377CDE70023E375D2E701236377226319
:105290006B691BB12B7E7BB1022B0DD00123A4F8CF
:1052A000643002236375B4F878300BB90223237697
:1052B0002046FFF787FE38BDE36BA4F86430012376
:1052C0006375B4F87830002BF2D101232376EFE731
:1052D0000648F0E70448EEE70348ECE70448EAE74D
:1052E0000348E8E70348E6E7080603040506020466
:1052F000000602040406020410B50446FFF71AFF74
:10530000002850D12A4B1B78002B4ED16278A3780D
:1053100002325200D2B21344DBB2264AD15CD256DA
:10532000002A32DB244AD25C42EA012242F0804267
:10533000224B1968B1F86E30B1F872108908013942
:105340000B4343F0804332EA030300D001BE1B4B02
:1053500019688C68B1F86C002358002B1FDBB1F87A
:105360006E3043F0804343F0FF03134091F8302048
:105370001F2A0FD843F0004343F400332350002288
:105380000F4B9A420DD0002010BD02F06F0242F088
:105390001001C7E743F0204323500022F0E7084AFA
:1053A000EEE70848F0E70748EEE70748ECE700BFFC
:1053B000E42D000800100110E01501101C30000859
:1053C0000200CE0006060104031A0204022A27D8AE
:1053D00010B50C468378012B00D901BE114910335A
:1053E0001B02CA5822F00042CA50436C23F0C0038B
:1053F000436443F0800343648378012B00D901BEEA
:10540000084910331B02CA5842F00042CA50817842
:105410004078FFF7D1FD0146204600F08BFF10BD1C
:105420000148704700002A400106020402291ED8E4
:105430008378012B00D901BE0E4910331B02CA58D4
:1054400022F00042CA50436C23F03003436443F01F
:10545000300343648378012B00D901BE0549103322
:105460001B02CA5842F00042CA500020704702484E
:10547000704700BF00002A400106020400233D2BB4
:1054800006D8054A52F8232022B90133DBB2F6E7E9
:105490000020704701207047E82D0008C0EB001085
:1054A0004000C0B20844C0B20630C0B2704700002D
:1054B00038B5EFF30583103B9AB21BB2A2F1380165
:1054C00089B21C290ED9AE2B20D0A2F1550189B288
:1054D0001C291DD9A2F1AB0189B202291AD901BE3A
:1054E000FF2100E00021A2F1380080B21C2813D96E
:1054F000AE2B7BD0A2F1550080B21C2879D9AB3AF3
:1055000092B2022A78D901BEFF2307E00021EAE720
:105510000121E8E70121E6E7383BDBB2C1EB0110EE
:1055200042001D461A44424B53F82220002966D1FE
:10553000404C404B9C4264D03F4B1B6893F8363044
:105540009D4234BF0023012303B101BE3A4B1968C9
:10555000B1F85E302344B1F8601001FB05335B689D
:1055600003F00F03082B00D901BE082B52D8334992
:1055700031F8131011F0010F0FD0B2F8643063B19D
:10558000013B9BB2A2F864303BB941F00201537D6C
:10559000012B41D00123A2F86430D36E1940136F60
:1055A0001BB111B189B2506F9847224B9C4235D044
:1055B000214B1B6893F836309D4234BF00230123F2
:1055C00003B101BE1C4B1A68B2F85E302344B2F836
:1055D000601001FB053301211961B2F85E302344EC
:1055E000B2F8602002FB05331B6938BD6F33DBB2B4
:1055F00094E7553BDBB291E77233DBB28EE7104C98
:1056000097E70D4B1B6893F835309D4234BF00235C
:10561000012399E70021ADE7938FBCE7064B1B6898
:1056200093F835309D4234BF00230123C8E700BF03
:10563000E82D0008000028401C300008BC170110AD
:105640000000294038B5044600F11401443002F04E
:1056500025FF002840F0BE806378002B63D1604DA9
:10566000221DA178284603F027F8002840F0B480D6
:10567000A2785B4B9D4258D05A4B1B6893F836304A
:105680009A4234BF0023012303B101BE554B196870
:10569000B1F85E302B44B1F8601001FB02330122F7
:1056A0009A612B6843F000432B60A2784C4B9D42DB
:1056B00044D04C4B1B6893F836309A4234BF0023D9
:1056C000012303B101BE474B1968B1F85E302B448A
:1056D000B1F8601001FB02331B69043B012B36D982
:1056E000637813B9A5781C2D5DD913B9A5781D2D44
:1056F0005BD9012B5BD0012B5ED001BE40F2FF35A0
:10570000E36E002B5DD10321374A284600F06CFE82
:10571000002863D105F01F026D0901239340334A2D
:1057200042F8253059E0324D9AE72E4B1B6893F82A
:1057300035309A4234BF00230123A5E7294B1B686B
:1057400093F835309A4234BF00230123B9E7A1789A
:10575000234B9D421ED0234B1B6893F83630994251
:1057600034BF0023012303B101BE1E4B1A68B2F8F7
:105770005E302B44B2F8600000FB01330120186159
:10578000B2F85E301D44B2F8603003FB01552B695E
:10579000184822E0134B1B6893F83530994234BF08
:1057A00000230123DFE73835AAE79135A8E7A5787C
:1057B0001C2DA0D85535A3E7A5781F2D9DD88E3573
:1057C0009EE705F1604303F5614393F8001349092F
:1057D000C9B299E7084800E0074838BD0648FCE729
:1057E000000028401C300008B154001000E100E027
:1057F00000002940030602040106020410B5044615
:10580000443002F04DFF637873BB2348A17802F067
:10581000E1FF627812B9A3781C2B27D912B9A378BB
:105820001D2B25D9012A25D0012A28D001BE40F2FE
:10583000FF3303F01F015B0901228A40203317491F
:1058400041F82320BFF34F8FBFF36F8F6378C3EB13
:105850000313A27802EB4303114A002142F82310FC
:10586000FFF70CFE80B110BD0E48CFE73833E0E7FC
:105870009133DEE7A3781C2BD6D85533D9E7A3782C
:105880001F2BD3D88E33D4E7074801F061F8074BBC
:1058900000221A70E7E700BF0000284000E100E0A6
:1058A000E82D00080000294020240008E02E000810
:1058B0004378EBB9144A837813498A421AD01349C2
:1058C000096891F836108B4234BF0021012101B1E3
:1058D00001BE0E490968B1F85E00B1F860100244DB
:1058E00001FB03F3D15841F00041D1500020704733
:1058F000074AE0E70549096891F835108B4234BF43
:1059000000210121E3E700BF000028401C3000080F
:105910000000294043786BB9074B084A1268B2F877
:105920005E100B448178B2F8602002FB01335868A6
:10593000C00F7047024BF0E7000028401C30000801
:105940000000294038B5022922D0082920D0012999
:1059500014D001BE19E000231D430134E4B23D2CF4
:105960000FD875B90C4B53F824000028F3D0FFF77B
:10597000D1FF08B10123EFE70023EDE7002425461E
:10598000EDE785F00105054B1D70044B187838BD17
:10599000024B00221A70F8E7E82D0008E02E0008FC
:1059A00038B504460D46FFF7B5FF002840F08C805F
:1059B0006B69B3F5807F00F28980012B1BD923B17D
:1059C0002A69B2EB032F00F283802B682362AB6855
:1059D000636204F1440323642B7E012B11D901235C
:1059E000E375AB7B082B0FD0102B50D0202B71D13F
:1059F000022363760AE02A69B2F5807FDFD937484F
:105A000044E00023E375ECE7002363760023E376AC
:105A1000A376A36E022B3DD0012B3ED06B6933B130
:105A20002A69B2FBF3F103FB1122002A54D1B5F924
:105A30000430A362B5F90C30E3626B697BB30223D7
:105A400023776A6922632B69B3FBF2F3E363B5F949
:105A500004306A6902FB03F36363B5F90C306A69C9
:105A600002FB03F3A3636B691BB12B7E03B3022B11
:105A70001ED00123A4F8643002236375B4F8783093
:105A80000BB9022323762046FFF7DCFD38BD012346
:105A90006376BBE70123A376C0E7E376BEE7012385
:105AA00023772A692263E36300236363A363DAE74E
:105AB000E36BA4F8643001236375B4F87830002BED
:105AC000E1D101232376DEE70548DFE70348DDE780
:105AD0000248DBE70348D9E70348D7E70806030491
:105AE00005060204000602040406020410B504467A
:105AF000FFF710FF002853D12B4B1B78002B51D1FF
:105B00006278A378C2EB02125200D2B21344DBB225
:105B10000633DBB2254AD15CD256002A32DB244A56
:105B2000D25C42EA012242F08042224B1968B1F86D
:105B30006E30B1F87210890801390B4343F080438D
:105B400032EA030300D001BE1A4B19688C68B1F821
:105B50006C002358002B1FDBB1F86E3043F08043FC
:105B600043F0FF03134091F830201F2A0FD843F071
:105B7000004343F40033235000220F4B9A420DD0D0
:105B8000002010BD02F06F0242F01001C7E743F0A1
:105B9000204323500022F0E7074AEEE70748F0E7EA
:105BA0000648EEE70648ECE7E02E0008001001107A
:105BB000E01501101C3000080200CE0006060104AA
:105BC000031A0204022A19D838B504460D46B0F863
:105BD000783003B901BE636C23F0C003636443F003
:105BE00080036364A1786078FFF758FC014628467B
:105BF00000F0A0FB08B9A4F8780038BD0048704751
:105C000001060204022908D8436C23F030034364E0
:105C100043F030034364002070470148704700BFE1
:105C20000106020408281CD8DFE800F00923051E3D
:105C30000B0D0F1113000A20012917D070470820FF
:105C400070470C20F8E70D20F6E70E20F4E70F2050
:105C5000F2E74B1EDBB2012B01D90820ECE70E2046
:105C6000EAE701BE0820E7E70B20E5E700F00700C0
:105C700070470020E2E700002DE9F04387B00F46AF
:105C800016461D462F4B1B78FBB94FF0000C07E062
:105C90002D4C002344F82C300CF1010C5FFA8CFCE5
:105CA000BCF10E0FF4D94FF0000C08E0264B03EBCB
:105CB0004C0300229A870CF1010C5FFA8CFCBCF1BA
:105CC000050FF3D91F4B01221A700B238DF80830F2
:105CD000C4088DF8094000F007088DF80A80029B7F
:105CE000ADF814301B0C8DF81630059BADF8103054
:105CF0001B0C8DF81230049BADF80C301B0C8DF88A
:105D00000E3003A800F0BEF8814618B1484607B02F
:105D1000BDE8F08339463046FFF784FF02460E2C7B
:105D20000BD80A4B1B68986900EBC4100023009342
:105D30002B46414602F096FFE8E7044B1B68986942
:105D4000F4E700BFE12E0008E02900081C3000083D
:105D500070B504280DD00D46114602463C4C34F86F
:105D600010E0441C1D2C07D8E4B2394E36F814401C
:105D700004E00D250520F0E74FF482744FF0010C8C
:105D80000CFA02FC334A0CEA02023AB9AE44A3F818
:105D900000E01B88A34258D2002070BDC21E182A02
:105DA00032D8DFE802F00D313431310F253129319D
:105DB000313131312B312D3131313131312F27001A
:105DC000254A00E0254A1C80002AE2D00338182822
:105DD00036D8DFE800F01E353835351E2F35313521
:105DE000353535351E351E353535353535331E00DF
:105DF0001B4AE8E71B4AE6E71B4AE4E71B4AE2E7DF
:105E00001B4AE0E71B4ADEE701BE0022DBE71A4A35
:105E1000D9E70126B542BCD232F81500704411FA18
:105E200080F11980691CB142B3DA32F81140744430
:105E3000A4B2AEE70226EDE71026EBE70226E9E77B
:105E400001BE0026E6E71A26E4E70C48A5E700BFF6
:105E500040180110280B0A0CD01701100818011067
:105E60000C1801103C180110101801103018011006
:105E70003418011038180110D4170110000D020455
:105E800000207047F0B583B004460027FDF7FDFD04
:105E900006460DF10603A27861782078FFF758FFD7
:105EA000054668B9BDF80630C3F3C70203F007031F
:105EB0001449895C012202FA03F3194218BF1746FC
:105EC00005B9EFB92DB13046FDF7E3FD284603B023
:105ED000F0BD0DF10603A27861782078FFF738FF56
:105EE00005460028EFD1BDF80630C3F3C70103F023
:105EF0000703044801229A40435C13434354E2E7FA
:105F0000014DE0E7E42E0008010D020430B583B036
:105F10000446FDF7BAFD05460DF10603A278617847
:105F20002078FFF715FF014668B9BDF80630C3F3C6
:105F3000C70003F00702074C01239340DB435BB229
:105F4000225C1340235401B101BE2846FDF7A1FD98
:105F500003B030BDE42E00082DE9F04F85B0804637
:105F60000F46924601935D4B33F81020431C1D2BC6
:105F700012D8DBB2594931F81390012303FA08F320
:105F8000DFF884B103EA0B0BA9EB02091FFA89F9C8
:105F900000252E462C4617E04FF48279EDE70123C9
:105FA000BAF1000F08D031462046019B98479AF875
:105FB000001000F0C4F90346BBB9BBF1000F26D1B5
:105FC0000134E4B20135ADB24D4580F08180002F3F
:105FD000E5D0314620460E9B98470146388800F0B0
:105FE000AEF903460028E7D0DAE78DF80C808DF88B
:105FF0000D408DF80E6003A8FFF744FF034600280C
:10600000DBD10F9A82F800805470967061E0A8F19D
:106010000303182B30D8DFE803F00D2F322F2F0F9A
:10602000232F272F2F2F2F2F292F2B2F2F2F2F2F9E
:106030002F2D25002A4A00E02A4AA8F10303182B35
:1060400032D8DFE803F01E313431311E2B312D31CF
:10605000313131311E311E3131313131312F1E009C
:10606000214AEAE7214AE8E7214AE6E7214AE4E74C
:10607000214AE2E7214AE0E701BE0022DDE7204AAB
:10608000DBE70121631C08468B4204DA32F8131067
:106090006B1C99420DDD0136F6B293E70221F1E760
:1060A0001021EFE70221EDE701BE0021EAE71A2106
:1060B000E8E70134E4B2631C984207DD32F81310BC
:1060C00032F814309942F4D000267BE7002679E7B5
:1060D0000C4B184605B0BDE8F08F00BF401801100A
:1060E000D0170110081801100C1801103C180110ED
:1060F0001018011030180110341801103818011050
:10610000D4170110020D0204280B0A0C00B583B04D
:106110000191002100910B460A46FFF71DFF03B0D5
:106120005DF804FB02460023184603B1704702B134
:1061300018460133DBB2F8E710B50446FFF7F2FF6B
:10614000204610BD002001E00130C0B2142805D85F
:10615000044B1B5C002BF7D040B270474FF0FF3070
:10616000704700BF7010011038B504460D46FFF7A8
:10617000E9FF114B1B5D83B1104B1A689368B2F8AD
:1061800070100B44201A1030B2F8722002FB00F09D
:1061900000EB8501C858C0B238BD084B1A68936837
:1061A000B2F870100B44B2F8722002FB04F404EB56
:1061B0008501C858EFE700BF701001101C300008BF
:1061C0002DE9F84304461E469DF820809DF8247072
:1061D000224B1B5CC3B1411ACCB22046FFF7ACFF87
:1061E00046EA00262046FFF79DFF46EA004040F0C1
:1061F000804040F4805027B14246002105F084FEE3
:1062000023E005F0CFFE20E01546FFF795FF4FEAAB
