:020000041000EA
:10000000002000081B0100100D0000007D01001001
:1000100000000000000000000000000000000000E0
:100020000000000000000000000000007901001046
:1000300000000000000000007901001079010010AC
:100040007901001079010010790100107901001088
:100050007901001079010010790100107901001078
:100060007901001079010010790100107901001068
:100070007901001079010010790100107901001058
:100080000448054B10B5834203D0044B002B00D02D
:10009000984710BD780300087803000800000000AE
:1000A00006480749091A8B10C90FC91810B549101D
:1000B00003D0044B002B00D0984710BD78030008F4
:1000C000780300080000000010B5074C2378002BCF
:1000D00009D1FFF7D5FF054B002B02D0044800E003
:1000E00000BF0123237010BDB00300080000000012
:1000F00094150010054B10B5002B03D0044905489A
:1001000000E000BFFFF7CCFF10BDC04600000000BC
:10011000B4030008941500107047FFF7FDFF72B696
:100120000F4C104DAC4209DA21686268A368043BA9
:1001300002DBC858D050FAE70C34F3E70A490B4AFF
:100140000020521A02DD043A8850FCDC08480949B4
:100150000860BFF34F8F00F06FF800F01DF8FEE766
:10016000A0150010B8150010B0030008C80500085D
:100170000000000808ED00E0FEE7FEE700B50420FF
:100180007146084202D0EFF3098002E0EFF30880E5
:10019000043000F0BBFDFEE710B562B6034800F086
:1001A000C3F8002000F0BAFEFBE7C04600200010B4
:1001B00010B5002000F090FA10BD704770B5002017
:1001C00000F0EEFC041E28D0144B186000F064FB15
:1001D000411C200000F080FF114B0400186000F06B
:1001E0004DFB411C200000F077FF04000D4B013C4B
:1001F00018600D49200000F06FFFFA210B4D01300F
:1002000028708900200000F067FF094D0130286048
:10021000002000F0C5FC074B186070BD8800000886
:100220008C0000088000000840420F009400000885
:10023000900000088400000810B5204800F0ACF8D9
:10024000B022E02130201E4CD200A35889005B0070
:100250005B08A35063588343635080235B04A3501F
:10026000184B194AE250A02204339201E250FF22B7
:10027000164BE25000F014FFC02201215200A35897
:100280008B43A350FFF799FFFFF798FF104B032014
:100290001A681300BA33198807234B43126A802166
:1002A0009B180022DA605A600A4A00F05FFA0A4896
:1002B00000F022F9094800F05BF910BDD4140010D9
:1002C0000000264084050000010002008C050000AB
:1002D0004C05000878030008CC030008A0140010A7
:1002E0009023034A5B01D058032318407047C0464F
:1002F0000000204010B5902400F047F8074B64013F
:100300001959074A1140074A0A431A5110225968DD
:100310001142FCD000F03DF810BDC0460000204066
:10032000FCFF00000100FA05F8B590260E4C76019E
:10033000070000F02AF8A3590500DB439B0701D111
:10034000FFF7D8FF80239B00E750A259074B1A40C4
:10035000074B1343A351102362681A42FCD02800B4
:1003600000F017F8F8BDC04600002040FCFF000078
:100370000300FA05000000000230800803D00130BD
:100380000238FCD1C046C0467047EFF3108072B609
:10039000704780F310887047014B18607047C04663
:1003A0004C050008044B1B681A00BA3212881B6AFD
:1003B0005043C0187047C0464C050008A02300B544
:1003C0001B06984226D015D8802825D00AD8102898
:1003D00024D0402824D000280BD0154809E0A420C0
:1003E000C00306E08022134B520090421CD098427A
:1003F000F3D100BD104B984218D0104BC018042800
:10040000EBD800F05FFEECEA0F0305000C48F0E7C4
:100410000C48EEE70020ECE70B48EAE70B48E8E77A
:100420000B48E6E70B48E4E71800E2E7A020D7E72F
:10043000FF00520006005200090000A0FFFFFF0F5E
:10044000020052000300520005005200010050005B
:10045000020050000100520010B50020FFF7A2FF7B
:100460000A4B1C682300BC331B68C0180368002BB0
:100470000ADB074B1868FFF7A1FF012263689A6047
:100480009A68002AFCD110BD0248FCE74C05000820
:100490005005000802005000064B1B68BC331B6867
:1004A000C3181B68002B03DA89B241600020704733
:1004B0000148FCE74C05000801008A000368002B96
:1004C00004DA89B2C2608160002070470048FCE70E
:1004D00001008A00064B1B68BC331B68C3181B68ED
:1004E000002B03DAC36800200B6070470148FCE76B
:1004F0004C05000801008A00024B1A68002A00D14E
:100500001860704764050008F0B52C24154E44436C
:1005100030681F000019FF241E0A26402740124C95
:100520001B0C256807602C6A46608360BA352D88ED
:100530006F433F190761370080377F01E7190B4D83
:1005400076014761A4191F043B436419236000230B
:100550008361059BC2610162002B01D01B888381EE
:10056000F0BDC046640500084C05000808100000F6
:10057000F0B50400236987B0026841680393A3685B
:1005800004AD1732C0682B806A80039BA26A059174
:100590000095E16A266A676AFFF7B6FF00213B0013
:1005A0000A0030000091FFF7AFFF2800216B00F038
:1005B00077FB0022AB5E002B06DB1F2213401E3AA6
:1005C0009A401300014A136007B0F0BD00E100E05B
:1005D000F0B585B003931B4B16001C682C235843C1
:1005E0004B4320180769E418002F27D0A569002D78
:1005F00026D13B68002B23DA134B1B6834331B785E
:100600000193436801996068029300F0EBFD0122B9
:100610008A40336812049BB2134333600123FE60A7
:10062000A361039B01996362029800F0DBFD012343
:100630008B409BB2BB60280005B0F0BD034DFAE7CC
:10064000034DF8E7640500084C05000804028A0021
:1006500007028A0073B5002642690400D568019636
:100660002B0CB34221D01B0413601368194B006993
:100670001B68BC331B68C3181B68B34215DA01A999
:10068000FFF728FFB0420CD10198E26903681E0C05
:10069000DBB29A4205D9226A9B009B58002B00D0FE
:1006A000984731002069FFF7F7FEADB2002D09D061
:1006B00063691D6000251B68636AAB4205D09847DB
:1006C0006562A56163691B6873BDA36A002BF8D0DE
:1006D0009847F6E74C0500082C2310B54343034A1E
:1006E0001068C018FFF7B6FF10BDC04664050008CB
:1006F0001A4B70B51A680C00130033331B78834211
:100700002AD9002928D00D681F212B000B400D424B
:1007100022D11100BA310988126A48431900104DDC
:100720008018286022685209934210D30021FFF7F5
:10073000B3FE002122002868FFF7C0FE011E04D18D
:100740002868FFF7A9FE002800D0064870BD62683F
:100750009E00B1500133E5E70348F7E74C05000878
:100760006805000801018A0003018A000B0010B52A
:10077000002A0DD1002914D10B4A0C4C11680A0033
:10078000BA321288096A424352182260180010BD1A
:10079000002906D006490B604A60FFF7A9FF030055
:1007A000F4E7044BF2E7C0464C0500086805000872
:1007B0008803000803018A00F7B51B4F04003B685B
:1007C0000E00002B2BD0DB681A68824229D9002545
:1007D0005B680193A94202D1FFF7D7FD0500386895
:1007E0000368002B19DA1F23012223409A40640971
:1007F000019BA4001C1921680A420CD0914321607E
:1008000000240021FFF748FE002E02D12800FFF748
:10081000C0FD2000FEBD054CF3E7054CF4E7034C9A
:10082000F7E7044CF5E7C0466805000802018800B8
:100830000301880004018A000C4B1B68002B11D0B7
:10084000DB681A6882420FD959681F234209184091
:100850001E3B8340920050581840431E9841044B61
:10086000C01870470348FCE70348FAE7680500082A
:10087000000188000201880004018A00054B1B6802
:100880001A0088321B6812689B181868000AC0B2E8
:100890007047C0464C050008044B1B681A0088329C
:1008A0001B6812689B181868000E70474C050008FA
:1008B000034BE0308000C0588006800F7047C04670
:1008C00000002640024B18694007C00F7047C04621
:1008D00000002740A6220549D2008B580220DB43A6
:1008E0009B0702D00123885818407047000026401B
:1008F00010B5FFF7EFFF0023022801D1014B1B6861
:10090000180010BD70050008084A83009B18D0220B
:100910009200985807221040042806D1C022920065
:100920009B581F22FC30134018437047000026409C
:1009300010B5FFF7E9FF88235B0098421CD00BD865
:10094000012813D0022814D0431E9841104B404276
:100950001840104BC01810BD1223FF33984210D01E
:100960001423FF33984210D00020F4E70A4B186894
:10097000F1E7FFF7BDFFEEE7084A094BD058C00F7B
:1009800001E0FFF79FFFC003E5E7044A054BF5E7E9
:1009900000EE85FF00127A006C050008000026407A
:1009A0000C0500003C050000B023154ADB00D358BD
:1009B00010B59903DB01DB0F890BC371114B01608B
:1009C000D3580F24D904DB01DB0D0381B123DB00F5
:1009D000D358C90C81801900214081721909214026
:1009E000C172D9029B009B0F8373074BC90CD3586C
:1009F00081815A05DB01520FDB0D8271038210BD2C
:100A000000002640840500008C0500008030034B68
:100A1000FF308000C058C00F7047C046000026401D
:100A20000F4B421E1B683F331B78934216D9803010
:100A30007F220C4BFF308000C3581F201A400A70E1
:100A40001A0A02404A701A0C02408A701A01C24007
:100A500000209B009B0FCA700B7170470248FCE797
:100A60004C0500080000264001004A00F0B589B09E
:100A700003AD2800FFF798FFB0230026164ADB00DD
:100A8000D358B34224DAAB7B022B21D0AC88B442DA
:100A90001ED03000ED79039FFFF74AFF220033009C
:100AA00031000190681C00F0C3FB0C00050033000E
:100AB0003A003100019800F0BBFBE6076A083243B8
:100AC0006308801859412A00230000F091FB0600BA
:100AD000300009B0F0BDC04600002640F7B5234BFA
:100AE00006001B683F331B78002B08D000283BD042
:100AF000834204D36946FFF793FF041E01D000260A
:100B000032E03000FFF782FF2300002805D06B465B
:100B10001C79023C23005A1E93416A461778547888
:100B20009578002BEBD0002CE9D0002DE7D03000D9
:100B3000FFF7FEFE002306002A002000190000F047
:100B400077FB00230C0005003A003000190000F08C
:100B50006FFBE6076A0832436308801859412A0090
:100B6000230000F045FB06003000FEBD4C050008E8
:100B700010B5041E04D1FFF779FF002806D008E065
:100B8000064B1B683F331B78834203D22000FFF7DC
:100B9000CFFE10BDFFF7A2FFEFE7C0464C050008EF
:100BA00070B50500FFF784FEE035074BAD0004008B
:100BB000E8580F231840FFF7DBFF0123A3405B0831
:100BC0001818E04070BDC0460000264030B5FF2533
:100BD00003242A000440E400A24089012940D243B2
:100BE000A14083B200280ADBC0240B4B80088000A0
:100BF000C018A400035913400B43035130BD0F200C
:100C00000340083B05489B089B001B18D86902401D
:100C10000A43DA61F2E7C04600E100E000ED00E0DF
:100C2000144B30B51B6807241A002C3212781F2A87
:100C300015D882081500A5432C1E0FD1033420407F
:100C4000A04081401B68920020339B180A00FF21BE
:100C500081401C68624011406140196030BD1A68D3
:100C6000802320401B06034380208001091889004F
:100C70008B50F3E74C050008064B10B59A68064CFC
:100C800010308300A24202D19858995010BD034AF7
:100C9000D058FBE700ED00E0000000080000001065
:100CA000F7B504000E00002801D1144C17E0002312
:100CB000C55E134B4188134F0193002D11DB2800B3
:100CC000FFF7AEFF61682800FFF780FFBB68019A5D
:100CD0000024934203D131002800FFF7CDFF20000C
:100CE000FEBD08B26168FFF771FFBB68019A9342CD
:100CF000DBD131002800FFF7BFFFD6E70100560027
:100D00000000000800ED00E0FEE7000002680A4B6A
:100D100010B51A6042685A6082689A60C268DA60E8
:100D200002691A6142695A6182699A61C269DA612B
:100D3000FFF7EAFF10BDC04690030008B0235B0533
:100D40005A782120002A01D05878C0B27047B023C9
:100D50005B059A89002A02D0988980B2704780206A
:100D60004000FBE7254B73B586000D00F4580429BD
:100D700001D0012925D100200EE0A3682B420AD121
:100D8000E36829001A685B6868460193009223684B
:100D900098471B4B1C606469002C0AD0194B984281
:100DA000EBD1012DE9D1164A174B126815489A511B
:100DB00076BD012DFCD1134B9842F4D0124B9C51BF
:100DC000F6E7022914D026006469002CFBD100202C
:100DD000002EEDD0B3682B4208D1F36829001A68C1
:100DE0005B68684601930092336898473669EFE77D
:100DF000034B1B68181EDBD01E69E8E7B40500082A
:100E0000B0050008FF0042009C0500081A4B1B6853
:100E1000190088311A6809685118096801621900B7
:100E20008C3109685218126842621A0046321278F0
:100E3000002A1FD09A68E0321268D2061AD5F22230
:100E4000DB68D2019A580260F022D2019A584260BF
:100E50000A4A9A5882600A4A9A58C260094A9A58BD
:100E60000261094A9A584261084A9A588261084ABE
:100E70009B58C3617047C0464C05000804780000C9
:100E8000087800000C78000010780000147800004A
:100E9000187800001A4B1B681900883109681A6815
:100EA0005218016A116019008C3109681A685218C9
:100EB000416A11601A0046321278002A1ED09A68E0
:100EC000E0321268D20619D5F0224168DB68D201FF
:100ED000995081680B4A9950C1680B4A9950016931
:100EE0000A4A995041690A4A99508169094A9950B8
:100EF000C169094A99500168E83299507047C04663
:100F00004C05000804780000087800000C78000008
:100F1000107800001478000018780000F7B505007C
:100F2000FFF70CFF564F01907B68002B00D06FE05D
:100F3000FFF72BFA7B680090002B00D07CE0514B30
:100F400007271C682300BA331B885F43236AFB18FA
:100F50001A68002AFCDADB68DA001ED51B0F4A4843
:100F60001E07FFF753FF22008832126823684749A3
:100F70009B181A6801980A40212862D1902000012C
:100F800002431A6022008C32126823689B181A6888
:100F90000A40104318603C4B3343802292051343B0
:100FA000226A0024BF18FB607C607B68FFF7CFFEDD
:100FB0008023344F5B00984246D1280000F068FA45
:100FC0003F6807223B00BA331E883B6A5643F3183A
:100FD0001A68002AFCDADD68EB0003D52801000955
:100FE000FFF758FF00222A4B00981D403B6AF31878
:100FF000DD605A60FFF7CDF9002C10D1204B5B6803
:10100000002B03D008210120FFF7ACFE2000FEBD1D
:1010100001210800FFF7A6FE041E00D188E7184B47
:101020005B68002B03D002210120FFF79BFE194BC8
:101030009C42EBD0184CE9E704210120FFF792FE17
:101040007DE7802040009BE73B681A00BC32196AAC
:10105000126852181168002910DBBA331B889B18DC
:101060001B68002B0ADB04230C4A11690B43136134
:10107000012D01D030BFA3E720BFA1E7054C9FE7BA
:10108000B40500084C05000874050008FF00FFFFC8
:10109000FFFFFFDF05004200FF00420000ED00E01F
:1010A000C0228020064952008B58C0059B009B0837
:1010B00003438B50802388581B0603438B50704793
:1010C0000000264002B4714649084900095649000B
:1010D0008E4402BC7047C046002243088B4274D342
:1010E00003098B425FD3030A8B4244D3030B8B4229
:1010F00028D3030C8B420DD3FF22090212BA030C32
:101100008B4202D31212090265D0030B8B4219D312
:1011100000E0090AC30B8B4201D3CB03C01A524132
:10112000830B8B4201D38B03C01A5241430B8B427A
:1011300001D34B03C01A5241030B8B4201D30B0363
:10114000C01A5241C30A8B4201D3CB02C01A52418A
:10115000830A8B4201D38B02C01A5241430A8B424D
:1011600001D34B02C01A5241030A8B4201D30B0236
:10117000C01A5241CDD2C3098B4201D3CB01C01A50
:10118000524183098B4201D38B01C01A524143095A
:101190008B4201D34B01C01A524103098B4201D348
:1011A0000B01C01A5241C3088B4201D3CB00C01AB5
:1011B000524183088B4201D38B00C01A524143082D
:1011C0008B4201D34B00C01A5241411A00D2014652
:1011D000524110467047FFE701B5002000F006F8C5
:1011E00002BDC0460029F7D076E770477047C04679
:1011F000002B11D1002A0FD1002900D1002802D0E4
:101200000021C943080007B4024802A14018029017
:1012100003BDC046D9FFFFFF03B4684601B502987D
:1012200000F034F8019B9E4602B00CBC7047C046EB
:10123000F0B5CE469946030C9C46130447461B0C5A
:101240001D000E0061460404240C80B50700100C3C
:101250004B436543414360432C0CC01820188C4617
:10126000834203D980235B029846C44449467943AC
:101270005643030C2D042D0C8919634400044019B6
:10128000C918C0BCB946B046F0BDC046F0B5574617
:101290004E464546DE46E0B504000D0092469946AE
:1012A00083B08B4230D82DD04946504600F0D8F854
:1012B00029000600200000F0D3F8331A9846203B9E
:1012C00034D49B4653465A46934042461F005346E9
:1012D00093401E00AF423BD8AF4200D179E05B465D
:1012E000A41BBD41002B00DA76E00022002300920F
:1012F000019301235A4693400193012342469340B0
:10130000009329E08242CFD900220023009201936A
:101310000C9B002B01D01C605D600098019903B00C
:10132000F0BCBB46B246A946A046F0BD42469B462D
:1013300020239B1A5246DA40414613004A468A400F
:10134000170042461F43534693401E00AF42C3D985
:1013500000220023009201934346002BD8D0FB07C4
:1013600072081A4346467B080EE0AB4201D1A24206
:101370000CD8A41A9D41012024196D410021013E81
:1013800024184D41002E06D0AB42EED9013E24195F
:101390006D41002EF8D1009801995B460019694112
:1013A000002B24DB2B005A464446D3402A00E2405F
:1013B0001C005B461500002B2ADB26009E403300F4
:1013C00026004746BE403200801A994100900191A4
:1013D0009EE7A342BCD882E74246202300219B1A05
:1013E0000022009101920122DA40019285E74246F3
:1013F00020239B1A2A0046469A402300F340444685
:1014000013432A00E2401C005B461500002BD4DA8F
:1014100042462F002023260097409B1ADE403B00C7
:101420003343CDE71C2101231B04984201D3000C58
:1014300010391B0A984201D3000A08391B09984247
:1014400001D30009043902A2105C40187047C0465D
:10145000040302020101010100000000000000007D
:1014600010B5002903D1FFF7DDFF203002E00800AE
:10147000FFF7D8FF10BDC046F8B5C046F8BC08BCA1
:101480009E467047F8B5C046F8BC08BC9E467047FB
:1014900001B40248844601BC604700BF61020008F5
:1014A0000300000001000000010000000000000037
:1014B00005036000040000000100000000000000BF
:1014C0000100000006046000080000002C05000870
:1014D000B101001000002040000024400000004046
:1014E00000000000000023400000304000003140B8
:1014F00000009F40000022400000104000009B4080
:101500002020202020132010101E2080170075009E
:10151000FF03050104001C03100000001FC00000B1
:1015200000040000000000000019324B647D02023C
:10153000000000804000080B100000000000FF01C8
:101540002002001F00800004FF0810180010001483
:101550000018001C4044484C5000000008100000D7
:101560000800000004000000041000000012000049
:10157000042100000021000000160000401140027C
:10158000C41300138013A01340138813A813200062
:101590001C00000000000000F4FCFF7F01000000C0
:1015A000000000100000000880000000C0150010BE
:1015B00080000008F8020000B003000818020000D4
:1015C00000093D0000093D0000127A0000093D00BD
:1015D000A00F000004000000F5000010C90000107A
:1015E00080B230B5C400002820D0114B1868030029
:1015F000BA331A8807235343026A9A1811680029DC
:10160000FCDA3E210B4A062511600B4A0B4911609A
:10161000A3210B4AC90055500A495450006A545836
:101620001B18002058605358002BFCDA30BDC04610
:101630004C05000804012640080126401E1F00003A
:10164000000026401C05000010B54378FF2B11D187
:1016500000F01AF90400032000F0FEF80121C3682D
:101660005B681A680A431A601A680A42FCD12000B3
:1016700000F0DAF810BDF7B507000020019100F086
:10168000EBF83E4C050023681A005033BC32166854
:101690001B788619002B59D000F0EEF80090032833
:1016A0001AD000F0F1F8364A364B0400D358002B1C
:1016B0003CDA01212800344A00F0F6F8002835D140
:1016C0000198FFF78DFF002F3ED03368002BFCDB25
:1016D00000F0BAF805002AE0062000F0BDF8236803
:1016E000BC331B68C0180368002B02DA274D2800A2
:1016F000FEBD002000F0B8F8254B9842F6D000233C
:10170000244A19000120126800F096F8041EEDD159
:10171000002000F0A9F81E4A1F4B904203D09C42C3
:10172000E4D00134F4E79C42BBD1DFE7174D009BC6
:10173000032B05D10121002000F0AEF80028F9D1DB
:10174000200000F071F8D2E7144DF0E700F09CF8AB
:10175000012104000C4A280000F0A6F8002808D156
:10176000002F08D03368002BFCDB00F06DF805007B
:10177000E6E7064DE4E7094DE2E7C0464C05000800
:10178000000026401C05000050050008050052001E
:101790000101880060050008F049020001005000C6
:1017A000184BF7B51B6818495A6804230C69234382
:1017B0000B61012824D030BF1300FC331B69002BC0
:1017C0001DD1A324114B12481249E40007681E5989
:1017D0000D680195104D056006251D513E240C60D5
:1017E0000E4C3E351D511D59002DFCDA0C4CFC32BF
:1017F0001461A322D20007609E50019B0B60F7BDCD
:1018000020BFD9E74C05000800ED00E000002640AD
:1018100008012640040126401E1F00001C05000090
:10182000AAAAAAAA0000000001B40248844601BC8A
:10183000604700BF9303001001B40248844601BC16
:10184000604700BFD105001001B40248844601BCC6
:10185000604700BF5904001001B40248844601BC2F
:10186000604700BFA503001001B40248844601BCD4
:10187000604700BF3908001001B40248844601BC2B
:10188000604700BFE102001001B40248844601BC79
:10189000604700BF8B03001001B40248844601BCBE
:1018A000604700BFB907001001B40248844601BC7C
:1018B000604700BFBD0400100000000000000000F1
:1018C0000000000000000000000000000000000018
:1020000000F801088D2300100D00000001240010CD
:102010000124001001240010012400100000000021
:102020000000000000000000000000004149001016
:10203000FD23001000000000E1490010E1480010FD
:10204000FD23001000000000FD230010FD23001000
:1020500000000000FD230010FD230010FD230010F0
:10206000FD230010FD230010FD230010FD230010B0
:10207000FD23001000000000FD230010FD230010D0
:10208000FD230010FD230010FD230010FD23001090
:10209000FD230010FD230010FD230010FD23001080
:1020A000FD230010FD230010FD230010FD23001070
:1020B000FD230010FD230010FD230010FD23001060
:1020C000FD230010FD230010FD230010FD23001050
:1020D000FD230010FD230010FD230010FD23001040
:1020E000FD230010FD23001000000000FD23001060
:1020F000FD230010FD230010FD230010FD23001020
:1021000000000000FD230010FD230010FD2300103F
:10211000FD230010FD23001000000000000000005F
:10212000FD230010FD230010FD230010FD230010EF
:10213000FD230010FD230010FD230010FD230010DF
:10214000FD230010FD230010FD230010FD230010CF
:10215000FD230010FD230010FD230010FD230010BF
:10216000FD230010FD230010FD230010FD230010AF
:10217000FD230010FD230010FD230010FD2300109F
:10218000FD230010FD230010FD230010FD2300108F
:10219000FD230010FD230010FD230010FD2300107F
:1021A000FD230010FD230010FD230010FD2300106F
:1021B000FD230010FD230010FD230010FD2300105F
:1021C000FD230010FD230010FD230010FD2300104F
:1021D000FD230010FD230010FD230010FD2300103F
:1021E000FD230010FD230010FD230010FD2300102F
:1021F000FD230010FD230010FD230010FD2300101F
:10220000FD230010FD230010FD230010FD2300100E
:10221000FD230010FD230010FD230010FD230010FE
:10222000FD230010FD230010FD230010FD230010EE
:10223000FD230010FD230010FD230010000000000E
:10224000000000000000000000000000FD2300105E
:10225000FD230010FD230010FD230010FD230010BE
:10226000FD230010FD230010FD23001000000000DE
:10227000000000000000000000000000000000005E
:102280000000000000000000FD230010000000001E
:10229000000000000000000000000000000000003E
:1022A000000000000000000000000000000000002E
:1022B000000000000000000000000000000000001E
:1022C000FD230010FD230010FD230010FD2300104E
:1022D00000000000000000000000000000000000FE
:1022E000FD230010FD230010FD230010FD2300102E
:1022F000FD230010FD230010FD2300100348044BB4
:10230000834202D0034B03B118477047D02900081D
:10231000D0290008000000000548064B1B1AD90F01
:1023200001EBA301491002D0034B03B118477047DA
:10233000D0290008D02900080000000010B5064C84
:10234000237843B9FFF7DAFF044B13B10448AFF326
:1023500000800123237010BDC02A00080000000087
:102360002454011008B5054B1BB105490548AFF3CE
:102370000080BDE80840FFF7CFBF00BF00000000AD
:10238000C42A00082454011070477047FFF7FCFF6F
:1023900072B6144C144DAC4209DA21686268A36825
:1023A000043BA2BFC858D050FAE70C34F3E70F49FA
:1023B0000F4A00209142BCBF41F8040BFAE70D48D8
:1023C0000D490860BFF34F8F00F084F800F068F803
:1023D00002F0C6F80EF08CFA01F02CFB0EF0ACFA0D
:1023E000FEE700003054011048540110C02A0008D4
:1023F000104100080020000808ED00E0FEE7FEE7BD
:1024000000B504207146084202D0EFF3098002E0D3
:10241000EFF3088004300CF0F7FCFEE708B501206C
:1024200009F056F808BD704710B500200CF004FC08
:1024300000B910BD0446124B18600BF035FE013098
:10244000B4FBF0F00F4B18600BF046FE0130B4FB0C
:10245000F0F40D4B1C60013C0C4BA3FB04239B0CC4
:1024600001330B4A13700B4BA3FB0434A409013452
:10247000094B1C6000200CF0DFFB084B1860D8E70C
:102480000423000808230008FC22000883DE1B4305
:1024900010230008D34D62100C230008002300080D
:1024A00008B5094808F0B4F9FFF7BDFFFFF7BCFF16
:1024B00000221146032009F067F8044808F0AAFE3C
:1024C000034808F009FF08BDC84F0110DC2A0008C6
:1024D000CC300110EFF3108172B6074AD2F8883081
:1024E00043F47003C2F88830BFF34F8FBFF36F8F90
:1024F00081F31088704700BF00ED00E008B500F0E0
:1025000029F800F005F808BD08B500F015F808BD79
:1025100010B5064C064A0621204608F095FD054AEE
:102520000721204608F090FD10BD00BF0003314098
:10253000003101103831011008B5034805F00EFADA
:10254000024805F00BFA08BD343101106C3101105E
:10255000FEE7000010B5962100200CF0A7FC0BF060
:102560006FFF002108460BF03BFE00200BF0A6FD9C
:1025700001200BF08BFD00200BF018FD4E4B1B686B
:1025800093F83F4003E020460CF096F8013C002C05
:10259000F9D1002101200BF09FFE00200BF00EFE70
:1025A000002872D0002108460BF096FE0021084654
:1025B0000BF0E4FD00200BF059FD00200BF07EFD38
:1025C00000200BF063FD00200BF0F0FC0021012047
:1025D0000BF082FE002108460BF07EFE0021022057
:1025E0000BF07AFE002103200BF076FE0021042080
:1025F0000BF072FE31480BF03DFF002850D13048FF
:102600000BF0E8FF00284ED1002108460BF0B6FD84
:10261000002108460BF0E4FD2A4901200CF072F875
:10262000002843D142F2107101200CF0F9F8002883
:102630003FD10BF011FD00200BF0E2FC00200BF06D
:10264000F5FC0BF0FFFC002108460CF0BDFD01205D
:102650000BF0C6FC0BF002FE01200BF009FEFFF7A9
:10266000E3FE002108460CF0AFFD174805F076F9AF
:10267000164805F073F9164805F070F9154805F08D
:102680006DF9154805F06AF910BD0BF053FE40F2E4
:102690001113984286D1012100200BF06FFD81E7D4
:1026A0000420FFF755FF0420FFF752FF0320FFF738
:1026B0004FFF0320FFF74CFF983D000870310110D9
:1026C000400D030098310110843101108831011050
:1026D0008C310110903101109431011008B504487B
:1026E0000CF04CFC08B1002008BD0248FCE700BF1C
:1026F000142300080000020610B505F02DF9044669
:1027000030B1FFF7FBFEFFF7FFFE2CB1204610BDF6
:1027100006F0A0FF0446F4E7FFF7E0FF0446F5E704
:1027200038B5054610200DF0F7FC044628460DF09C
:10273000F3FCE0602581002323606360204638BD00
:1027400008B50123062219463B2005F001F800B127
:1027500001BE08BD00B585B00523ADF80C300023DF
:10276000ADF808300EE001BE124B1B6898690122DB
:10277000032100F5607008F0DFFB9DF8093013F0CD
:10278000010F14D00B4B1B6898690022032100F540
:10279000607008F0D1FBFF2301930222009202AB8C
:1027A00003A9054806F0C0FD0028DDD0DBE705B031
:1027B0005DF804FB983D0008DC2E000800B585B0EC
:1027C00006238DF80C3000228DF808200F4B1B6873
:1027D0009869032100F5607008F0AEFBFF230193B8
:1027E0000122009202AB03A9094806F09DFD00B149
:1027F00001BE064B1B6898690122032100F5607039
:1028000008F09AFB05B05DF804FB00BF983D000896
:10281000DC2E000800B585B004238DF80C300022B2
:102820008DF808200F4B1B689869032100F5607034
:1028300008F082FBFF2301930122009202AB03A95F
:10284000094806F071FD00B101BE064B1B6898698E
:102850000122032100F5607008F06EFB05B05DF801
:1028600004FB00BF983D0008DC2E000830B585B0A1
:1028700004460D46FFF76EFFFFF7A0FF02238DF819
:102880000C30230A8DF80D308DF80E408DF80F5066
:10289000104B1B6898690022032100F5607008F056
:1028A0004BFBFF2301930422009202AB03A90A48C9
:1028B00006F03AFD00B101BE064B1B689869012283
:1028C000032100F5607008F037FBFFF7A3FF05B0A8
:1028D00030BD00BF983D0008DC2E000810B584B064
:1028E0000446FFF737FFFFF769FF03218DF80C104F
:1028F000230A8DF80D308DF80E4000228DF80F2040
:10290000104B1B68986900F5607008F015FBFF23F9
:1029100001930422009202AB03A90B4806F004FDC8
:1029200000B101BE074B1B6898690122032100F525
:10293000607008F001FBFFF76DFF9DF80B0004B01D
:1029400010BD00BF983D0008DC2E000808B500232C
:1029500002220321074805F02BFA08B101BEFEE769
:102960000549044805F09AFA08B101BEFEE70020C7
:1029700008BD00BF642C00083023000800B585B0F6
:102980008DF80C008DF80D100123019300230093A6
:10299000022303AA2021044805F09AFA00B101BEDF
:1029A00005B05DF804FB00BF642C000808B50146C3
:1029B0000120FFF7E3FF08BD08B501460320FFF73C
:1029C000DDFF08BDF0B59C46394C0126C4F8846093
:1029D0000223C4F88430374F2A253D600425C4F80B
:1029E0008450C4F88850C4F88830C4F888604FEA2E
:1029F000102EC0B2C4F88460C7F800E0C4F8845058
:102A0000C4F888503860C4F88450C4F88850C4F8BA
:102A10008860080AC9B2C4F884603860C4F8845079
:102A2000C4F888503960C4F88450C4F88850C4F899
:102A30008860C4F88460C4F884302B213960C4F8FD
:102A40008450C4F88850C4F88830C4F88860110AEB
:102A5000D2B2C4F884603960C4F88450C4F8885095
:102A60003A60C4F88450C4F88850C4F888604FEACB
:102A70001C215FFA8CF2C4F884603960C4F8845079
:102A8000C4F888503A60C4F88450C4F88850C4F838
:102A90008860C4F88460C4F884302C223A60C4F89A
:102AA0008450C4F88850C4F88830C4F88860F0BDF9
:102AB000000031400001314070B50446EF23002290
:102AC00040F23F111046FFF77DFF4FF0000C1CE075
:102AD000210AE0B2104B0125C3F884500F4E31603B
:102AE0000421C3F88410C3F888103060C3F8841040
:102AF000C3F88810C3F888502A4492B2B2F5A07F78
:102B0000E6D30CF1010C1FFA8CFCBCF1EF0F01D8DD
:102B10000022F3E770BD00BF0000314000013140EA
:102B20002DE9F04107468C4615469846BDF81840F9
:102B3000A0EB520080B207EB5207B9B212F0010FBE
:102B400001D14B1E99B2ACEB580292B20CEB580378
:102B50009BB218F0010F01D1013B9BB2FFF732FF8E
:102B60004FF0000E1BE0230AE2B210490127C1F822
:102B700084700F4E33600423C1F88430C1F888306C
:102B80003260C1F88430C1F88830C1F888703844A8
:102B900080B2A842E7D30EF1010E1FFA8EFEC645A1
:102BA00001D20020F5E7BDE8F08100BF0000314010
:102BB000000131402DE9F84F86468C46154699466E
:102BC000DDF82880BDF82C70BDF830600024A0EB43
:102BD000520080B20EEB520189B212F0010F01D106
:102BE000013989B2ACEB590292B20CEB59039BB29A
:102BF00019F0010F01D1013B9BB2FFF7E3FE4FEA51
:102C0000D50C15F0070F01D00CF1010C002249E0A2
:102C100014F0800F2AD1330A5FFA86FE24484FF061
:102C2000010AC0F884A0DFF88CB0CBF80030042390
:102C3000C0F88430C0F88830CBF800E0C0F88430A9
:102C4000C0F88830C0F888A06400E4B2013189B2CD
:102C5000A94225D211F0070FDAD112FB0CF3C808F4
:102C600010FA83F39BB218F80340D1E7380A5FFAF1
:102C700087FE0F4B4FF0010AC3F884A0DFF834B091
:102C8000CBF800000420C3F88400C3F88800CBF818
:102C900000E0C3F88400C3F88800C3F888A0D3E735
:102CA000013292B24A4501D20021D1E7BDE8F88F46
:102CB00000003140000131402DE9F843EA4C012584
:102CC000C4F884504FF00208C4F88480E74F3D6098
:102CD0000426C4F88460C4F88860C4F88880C4F806
:102CE000885032200CF068F8C4F88450C4F884800E
:102CF0004FF01109C7F80090C4F88460C4F88860E8
:102D0000C4F88880C4F8885078200CF055F8C4F8CE
:102D10008450C4F88480CF233B60C4F88460C4F836
:102D20008860C4F88880C4F88850C4F884500023B0
:102D30003B60C4F88460C4F88860C4F88850C4F864
:102D4000845083223A60C4F88460C4F88860C4F870
:102D50008850C4F8845030223A60C4F88460C4F8C3
:102D60008860C4F88850C4F88450C4F88480ED2288
:102D70003A60C4F88460C4F88860C4F88880C4F8F5
:102D80008850C4F8845064223A60C4F88460C4F85F
:102D90008860C4F88850C4F8845003223A60C4F8AC
:102DA0008460C4F88860C4F88850C4F88450122243
:102DB0003A60C4F88460C4F88860C4F88850C4F8E5
:102DC000845081223A60C4F88460C4F88860C4F8F2
:102DD0008850C4F88450C4F88480E8223A60C4F86B
:102DE0008460C4F88860C4F88880C4F88850C4F847
:102DF000845085223A60C4F88460C4F88860C4F8BE
:102E00008850C4F884503D60C4F88460C4F8886079
:102E1000C4F88850C4F8845079223A60C4F88460B9
:102E2000C4F88860C4F88850C4F88450C4F884801A
:102E3000CB223A60C4F88460C4F88860C4F8888003
:102E4000C4F88850C4F8845039223A60C4F88460C9
:102E5000C4F88860C4F88850C4F884502C223A60C2
:102E6000C4F88460C4F88860C4F88850C4F88450FA
:102E70003B60C4F88460C4F88860C4F88850C4F823
:102E8000845034223A60C4F88460C4F88860C4F87E
:102E90008850C4F88450C7F80080C4F88460C4F82F
:102EA0008860C4F88850C4F88450C4F88480F7213E
:102EB0003960C4F88460C4F88860C4F88880C4F8B5
:102EC0008850C4F8845020213960C4F88460C4F864
:102ED0008860C4F88850C4F88450C4F88480EA211B
:102EE0003960C4F88460C4F88860C4F88880C4F885
:102EF0008850C4F884503B60C4F88460C4F888608B
:102F0000C4F88850C4F884503B60C4F88460C4F8A6
:102F10008860C4F88850C4F88450C4F88480C12103
:102F20003960C4F88460C4F88860C4F88880C4F844
:102F30008850C4F88450C7F80090C4F88460C4F87E
:102F40008860C4F88850C4F88450C4F88480C521CF
:102F50003960C4F88460C4F88860C4F88880C4F814
:102F60008850C4F884503A60C4F88460C4F888601B
:102F7000C4F88850C4F884503D223A60C4F8846094
:102F8000C4F88860C4F88850C4F88450C4F88480B9
:102F9000C7223A60C4F88460C4F88860C4F88880A6
:102FA000C4F88850C4F88450C0223A60C4F88460E1
:102FB000C4F88860C4F88850C4F88450C4F8848089
:102FC00036223A60C4F88460C4F88860C4F8888007
:102FD000C4F88850C4F8845068223A60C4F8846009
:102FE000C4F88860C4F88850C4F88450C4F8848059
:102FF0003A223A60C4F88460C4F88860C4F88880D3
:10300000C4F88850C4F8845055223A60C4F88460EB
:10301000C4F88860C4F88850C4F88450C4F8848028
:10302000B1223A60C4F88460C4F88860C4F888802B
:10303000C4F88850C4F884503B60C4F88460C4F875
:103040008860C4F88850C4F884501D223A60C4F8DF
:103050008460C4F88860C4F88850C4F88450C4F808
:103060008480B62104E000BF0000314000013140FF
:103070003960C4F88460C4F88860C4F88880C4F8F3
:103080008850C4F884500A223A60C4F88460C4F8B6
:103090008860C4F88850C4F88450A2203860C4F80E
:1030A0008460C4F88860C4F88850C4F8845027202D
:1030B0003860C4F88460C4F88860C4F88850C4F8E4
:1030C00084503B60C4F88460C4F88860C4F88850B9
:1030D000C4F88450C4F88480B7233B60C4F884608B
:1030E000C4F88860C4F88880C4F88850C4F8845054
:1030F00007233B60C4F88460C4F88860C4F8885033
:10310000C4F88450C4F884803960C4F88460C4F87A
:103110008860C4F88880C4F88850C4F884500823B4
:103120003B60C4F88460C4F88860C4F88850C4F870
:103130008450C4F8848026233B60C4F88460C4F8BB
:103140008860C4F88880C4F88850C4F884503D6012
:10315000C4F88460C4F88860C4F88850C4F8845007
:10316000C4F88480E0233B60C4F88460C4F88860BD
:10317000C4F88880C4F88850C4F884501F233B608A
:10318000C4F88460C4F88860C4F88850C4F88450D7
:103190001A233B60C4F88460C4F88860C4F888507F
:1031A000C4F8845018233B60C4F88460C4F8886075
:1031B000C4F88850C4F884503A60C4F88460C4F8F5
:1031C0008860C4F88850C4F884500F233B60C4F86A
:1031D0008460C4F88860C4F88850C4F8845006231A
:1031E0003B60C4F88460C4F88860C4F88850C4F8B0
:1031F000845045233B60C4F88460C4F88860C4F8F8
:103200008850C4F8845087233B60C4F88460C4F8B5
:103210008860C4F88850C4F884504FF03209C7F869
:103220000090C4F88460C4F88860C4F88850C4F87A
:1032300084503A60C4F88460C4F88860C4F8885048
:10324000C4F8845007233B60C4F88460C4F88860E5
:10325000C4F88850C4F88450C7F80080C4F884606B
:10326000C4F88860C4F88850C4F884503B60C4F83F
:103270008460C4F88860C4F88850C4F8845005237A
:103280003B60C4F88460C4F88860C4F88850C4F80F
:10329000845000223A60C4F88460C4F88860C4F89E
:1032A0008850C4F88450C4F88480E1213960C4F89F
:1032B0008460C4F88860C4F88880C4F88850C4F872
:1032C00084503A60C4F88460C4F88860C4F88850B8
:1032D000C4F8845025223A60C4F88460C4F8886039
:1032E000C4F88850C4F884503860C4F88460C4F8C6
:1032F0008860C4F88850C4F884503B60C4F8846087
:10330000C4F88860C4F88850C4F8845010223A6029
:10331000C4F88460C4F88860C4F88850C4F8845045
:1033200009223A60C4F88460C4F88860C4F8885000
:10333000C4F884503A223A60C4F88460C4F88860C3
:10334000C4F88850C4F8845078203860C4F8846089
:10335000C4F88860C4F88850C4F884504D2139609E
:10336000C4F88460C4F88860C4F88850C4F88450F5
:103370003B60C4F88460C4F88860C4F88850C4F81E
:10338000845018233B60C4F88460C4F88860C4F893
:103390008850C4F884500D233B60C4F88460C4F89E
:1033A0008860C4F88850C4F8845038233B60C4F85F
:1033B0008460C4F88860C4F88850C4F884503A60C7
:1033C000C4F88460C4F88860C4F88850C4F8845095
:1033D0001F233B60C4F88460C4F88860C4F8885038
:1033E000C4F88450C4F8848011233B60C4F884601E
:1033F000C4F88860C4F88880C4F888500BF0DCFCFE
:10340000C4F88450C4F8848029233B60C4F88460E5
:10341000C4F88860C4F88880C4F8885048460BF027
:10342000CBFCBDE8F88300BF08B50123062219468E
:10343000082004F08DF900B108BD012306221946C9
:10344000092004F085F90028F6D101230622194647
:103450000A2004F07DF90028EED101230622194646
:10346000102004F075F90028E6D101230622194640
:10347000112004F06DF90028DED10123062219463F
:10348000122004F065F90028D6D10123062219463E
:10349000132004F05DF90028CED10123062219463D
:1034A000142004F055F90028C6D10123062219463C
:1034B000152004F04DF90028BED10123062219463B
:1034C000162004F045F90028B6D10123062219463A
:1034D000172004F03DF9AFE708B5FFF7A5FF00B1ED
:1034E00008BDFFF7E9FB0020FFF7E6FAF8E708B5AB
:1034F00000231A461946332004F02AF900231A46FD
:103500001946342004F024F900231A4619463520C0
:1035100004F01EF908BD000038B50D46144600221F
:103520000146064806F0D0FD0DB91CB938BD00F0C3
:103530002BF8FAE700F032F8F8E700BF1C2D00087E
:1035400000B585B00D4B029300230193FF23009338
:10355000182219210A4806F0A3FF00B101BE094A4A
:103560004FF4E131064806F089FB00B101BE044882
:1035700006F082FD05B05DF804FB00BFA03101102C
:103580001C2D0008182D000808B5012307228021F2
:10359000014806F0ADFD08BD1C2D000808B5072048
:1035A000FFF7BEF8044B1860002307224FF4807128
:1035B000024806F09DFD08BDD82E00081C2D00080D
:1035C00010B586B00D4C7C22002120460DF018F974
:1035D000002304930393082202920193FF23009394
:1035E0003A2339223821204605F0C2FD08B106B041
:1035F00010BD0349204605F0C1FCF8E7DC2E0008A9
:1036000040420F0008B5024806F071F808BD00BF3F
:10361000602F000808B500F059FC00F0F3FD00F041
:1036200097FD00F05DFF00F099FE00F0F3FE00F062
:1036300013FD00F0BBFC08BD08B500F0C6FF084B49
:10364000186003220021012002F004F8054B1860E5
:1036500000231A46194601F0A7FB00F0A1F908BDA6
:10366000582F00085C2F000808B5FFF7D3FFFFF7BD
:10367000E3FF02F05FF901BEFEE7000008B5082194
:10368000024B186801F060F808BD00BF582F000811
:1036900008B51021024B186801F056F808BD00BFAC
:1036A000582F0008F0B58FB09D4B93E803000C90A5
:1036B000ADF83410B1238DF828300024ADF82A403D
:1036C0008DF82C408DF82D408DF827404FF4A870D0
:1036D00001F0A6FA05469349204600F0BFFB924E42
:1036E0003146204600F0BAFB904A9149204600F04E
:1036F000B5FB904A9049204600F0B0FB8F4A9049B4
:10370000204600F0ABFB8F4A8F49204600F0A6FB15
:103710008E4A8F49204600F0A1FB3146204600F03A
:103720009DFB8C4B1F6802F0A7FE02464FF0FF3650
:10373000009623460121384603F0B6FA864B1F68EF
:1037400002F09AFE0246009623460121384603F015
:10375000ABFA824E6FF07F41306800F0D1FF40211C
:10376000306800F0F1FF0EE004EB440105EBC1010D
:103770000C7501234B7500234FF0FF327848006829
:1037800001F012FB01340D2CEEDD09E010F0020F08
:103790003BD110F0040F52D110F0200F40F09F8069
:1037A0004FF0FF330093002301227F216B48006814
:1037B00000F019FF10F0010FE8D06A49012000F075
:1037C0004DFB6949012000F049FBBDF8323001335F
:1037D000ADF832309DF8343001338DF834309DF837
:1037E000353001338DF8353000234FF0FF320CA90E
:1037F0005E48006801F0D8FA00234FF0FF320CA9B0
:103800005B48006801F0D0FACAE75A49012000F08D
:1038100025FB284600F09CF900240DE004EB440150
:1038200005EBC1010C7500234B754FF0FF324C487E
:10383000006801F0B9FA01340D2CEFDDB0E74E4914
:10384000012000F00BFB9DF8273001338DF8273065
:103850004A4907AB009320230A464948006807F00D
:10386000C5F900B101BEBDF81C4000234FF0FF3286
:103870000DF127014348006801F096FA01238DF805
:103880000C30ADF80E40404E336804933F4F002398
:103890004FF0FF3203A9386801F086FA00238DF853
:1038A0001430ADF81640326806924FF0FF3205A989
:1038B000386801F079FA4FF0FF3207A9306801F05B
:1038C00047FCBDF81E309C4204D03149012000F075
:1038D000C5FA65E72F49012000F0C0FA60E72E49DC
:1038E000012000F0BBFA4FF0FF3207A92B4B1868FC
:1038F00001F02EFCBDF81E30ADF82A309DF82030C6
:103900008DF82C309DF821308DF82D3000234FF0AC
:10391000FF320AA91548006801F046FA40E700BFE7
:103920000C330110B4310110C031011038230008EC
:10393000F8310110003201100C3201101C3201105C
:10394000283201106423000838320110482300088F
:1039500044320110702F00086C2F0008582F000807
:10396000483100085432011060320110443100081F
:103970005C3100087432011080320110B71DC1049F
:10398000602F000840310008742F00083C31000807
:10399000A83201108C320110C4320110782F0008B7
:1039A00000B583B000220621012001F053FE164B22
:1039B000186000220821012001F04CFE134B186012
:1039C000134B00930023012240F2DC51114803F015
:1039D0004FF9114B1860114B0093002301224FF453
:1039E000C8710F4803F044F90E4B18600E4B019359
:1039F0000323009300234FF4A0620C490C4801F00C
:103A000061FF03B05DF804FB782F0008742F0008F5
:103A10007D360010DC320110702F00089136001046
:103A2000E83201106C2F0008682F0008F8320110EE
:103A3000A536001008B5FEF75FFE00B101BE62B604
:103A4000FFF7E0FDFFF710FEFEE7000084460846A2
:103A50001146BCF1090F03D9BCF13A0F00D07047F1
:103A600030B585B0BCF13A0F13D00B4C04EB8C0E83
:103A7000BEF80220094D2A44BDF82050029501935A
:103A800000929EF8013014F82C20FFF793F805B04F
:103A900030BD4FF00A0CE8E79C35011024330110CB
:103AA0002DE9F04184B0BDF82880632802D904B024
:103AB000BDE8F0810C4617461E4602460C4903A895
:103AC0000CF094FD002510E005F110036B4413F891
:103AD000040C3038CDF8008033463A462146C0B257
:103AE000FFF7B4FF0F34A4B20135012DECDDDEE7A2
:103AF000143301102DE9F04184B01F46BDF8288031
:103B0000114B984202D904B0BDE8F0810C4616462C
:103B100002460E4902A80CF069FD002510E005F1EF
:103B200010036B4413F8080C3038CDF800803B4686
:103B300032462146C0B2FFF789FF0F34A4B20135E7
:103B4000052DECDDDFE700BF3F420F001C33011005
:103B5000F0B585B0044600210D2910DC01EB4100D1
:103B600004EBC002002344F8303053609360D3600C
:103B7000136153610A2304F830300131ECE7032567
:103B800011E0039A53085549A1FB03139B08C3EBAB
:103B9000C303A2EB430303EB430304EBC30214F898
:103BA00033300A2B0DD0BDB14D4903AB0093202318
:103BB0000A464C48006807F019F80028E1D001BE19
:103BC000DFE71646484F0FCF0FC697E8030086E899
:103BD0000300013DEDB2E6E7032511E0039A530827
:103BE0003E49A1FB03139B08C3EBC303A2EB4303B2
:103BF00003EB430304EBC30614F833300A2B0ED057
:103C0000002D53D0364903AB009320230A46354894
:103C1000006806F0EBFF0028E0D001BEDEE7304987
:103C200003AB009320230A462E48006806F0DEFF0F
:103C300000B101BE039B2D4AA2FB031222F0010139
:103C400001EB52029B1A13F0FF0313D0012B0FD08C
:103C5000092303EB4302244B03EBC20CBCE80F0027
:103C60000FC69CE8030086E80300013DEDB2C7E7FC
:103C70000823EEE70723ECE701BE039A1C4BA3FBE6
:103C80000213D11A03EB51039B08C3EBC303D31AEE
:103C9000DBB203EB4303144A02EBC30CBCE80F0096
:103CA0000FC69CE8030086E8030001350D2D13DCE8
:103CB00005EB450304EBC30614F833300A2BF4D1AB
:103CC000074903AB009320230A460648006806F024
:103CD0008DFF0028D1D0CFE705B0F0BD93244992E5
:103CE000B71DC104602F000828420110ABAAAAAA80
:103CF0002549922430B585B00D4B53F82000039030
:103D0000BDF80C40BDF80E504FF4784300933823B3
:103D10001A4629462046FEF703FF0023009332236C
:103D20001A4629462046FEF7FBFE05B030BD00BF0F
:103D30006C23000870B586B00446037D134A52F820
:103D400023000590BDF81450BDF816601846FFF723
:103D5000D1FFA37D6BB1A3890293E38901936368CB
:103D600000932389628931462846FEF723FF06B077
:103D700070BDE3890293A38901936368009323894B
:103D8000628931462846FEF715FFF0E76C230008EC
:103D900010B582B007E00099F1B12A4807F0EFFCB6
:103DA000009800F04DFF4FF0FF326946264B18682F
:103DB00001F0CEF90128F6D19DF80430032BEFD89D
:103DC00001A252F823F000BF973D0010DD3D001026
:103DD000FF3D0010213E001001BEDEE71B491948DF
:103DE00007F0CDFC009941B1164C204607F0C7FC06
:103DF0001749204607F0C3FCD2E701BEF4E7154996
:103E0000104807F0BCFC009941B10E4C204607F069
:103E1000B6FC0F49204607F0B2FCC1E701BEF4E74B
:103E20000D49084807F0ABFC009941B1054C20460C
:103E300007F0A5FC0649204607F0A1FCB0E701BE4B
:103E4000F4E700BF0000654038310008F843011076
:103E5000FC31011014440110304401100EB430B58F
:103E600084B00446642000F0DBFEB8B1054608AB20
:103E70000193C4B90020019B079AC0F16401284452
:103E80000CF0B0FC8DF80C40029500231A4602A9F4
:103E90000C48006800F088FF01280FD104B0BDE88D
:103EA000304003B0704702F099F902F0F1FA03468E
:103EB000054A642128460CF065FBDCE7284600F043
:103EC000BFFEEBE7383100084C44011000B587B065
:103ED000144B029300230193FF23009328222921EE
:103EE000114806F0DDFA00B101BE05AA4FF4E13138
:103EF0000D4805F0C3FE00B101BE002208211020CC
:103F000001F0A8FB094B18600023019303220092E3
:103F10004FF4F0620649074801F0D4FC07B05DF8A1
:103F200004FB00BF644401107C2F000838310008F6
:103F300058440110913D001010B586B01BE02020C0
:103F4000FEF7CCFC84B2ADF804402120FEF7C6FC9D
:103F500080B2ADF8060044EA00249DF808308DF8E0
:103F60001030ADF81240002305934FF0FF3204A942
:103F7000039800F019FF4FF0FF3202A90A4B1868AE
:103F800001F0E6F89DF80830002BD8D0012BF2D1D3
:103F9000BDF80A40210A2120FEF768FCE1B220208A
:103FA000FEF764FCE7E700BF3C31000800B583B0D2
:103FB000FFF706FBFEF7C4FB00220821012001F0F9
:103FC00049FB074B186000230193052200928022D1
:103FD0000449054801F076FC03B05DF804FB00BF1E
:103FE0003C31000878440110393F001000B583B01F
:103FF0008020FEF7E1FC0020FEF7D8FC00238DF8BE
:1040000007304FF0FF320DF10701124B186801F035
:104010009FF89DF80730012B0FD09DF80730022B39
:104020000FD09DF80730032B0FD09DF80730042BDD
:10403000E4D1FF20FEF7BAFCE0E7F820FEF7B6FC7B
:10404000EBE7FC20FEF7B2FCEBE7FE20FEF7AEFC50
:10405000EBE700BF4031000800B583B0FEF776FC07
:1040600000220121084601F0F5FA074B18600023F1
:1040700001930522009280220449054801F022FCA8
:1040800003B05DF804FB00BF403100088444011018
:10409000ED3F001000B585B022E0294C00944FF6AA
:1040A000FF734B227821BDF80A00FFF723FD00942F
:1040B0004FF6FF73822250219DF80C00FFF7F0FCB1
:1040C00000944FF6FF738222E1219DF80D00FFF767
:1040D000E7FC00231A4619461A48006800F064FEFF
:1040E0004FF0FF3202A9184B186801F031F84FF079
:1040F000FF31144B186801F0DAF89DF80830B02B46
:10410000CBD0B12BE5D1114C009447F6EF336422AC
:104110007821BDF80A00FFF7EDFC009447F6EF3375
:104120009B2250219DF80C00FFF7BAFC009447F643
:10413000EF339B22E1219DF80D00FFF7B1FCC8E7AA
:104140000000FFFF5C2F0008443100081084FFFFCF
:1041500000B583B000220621012001F07BFA074B55
:10416000186000230193042200924FF42072044946
:10417000044801F0A7FB03B05DF804FB44310008DC
:10418000904401109540001010B586B01FE06846BD
:10419000FFF7D0FD2FE06846FFF7CCFD01340D2C72
:1041A0000EDC4FF0FF326946144B186800F0D0FF68
:1041B0009DF81530002BEED0E0B2FFF79BFDEDE748
:1041C00000231A4619460E48006800F0EDFD4FF036
:1041D000FF326946094B186800F0BAFF4FF0FF3113
:1041E000074B186801F063F89DF81530002BCED00E
:1041F0000020FFF77FFD0124D1E700BF4831000810
:104200005C2F000800B583B0FFF766F90022182183
:104210000E2001F01FFA074B1860002301930422BF
:1042200000924FF4A0620449044801F04BFB03B034
:104230005DF804FB48310008A444011089410010D6
:104240000378A02B09D143785033DBB2062B06D874
:104250008379A12B05D101207047002070470020F1
:10426000704700207047000010B582B00023009313
:1042700011F0080F02D111F0800F0DD1009B4BB14E
:104280004FF0E0234FF08052C3F8042DBFF34F8F5F
:10429000BFF36F8F02B010BD1A460DF107010F4832
:1042A00005F0B2FE0E4A1378D1189DF80700487049
:1042B0000133DBB21370072BE0D1114600241470D8
:1042C00023464FF0FF320748006800F053FE6A466D
:1042D0002146054802F040FAD0E700BF1C2D000837
:1042E0004C31000858310008ED42001000B587B08D
:1042F00020E09DF80E308DF804309DF80F209DF8D9
:10430000103043EA0223ADF806309DF811308DF8E5
:1043100008309DF812308DF8093000234FF0FF323D
:1043200001A90B48006800F03FFD2021094B1868E7
:1043300000F00AFA4FF0FF3203A9074B186800F0AB
:1043400007FF0DF10D00FFF77BFF0028F2D0D0E74B
:10435000782F0008582F00085831000800B583B0A6
:1043600000220B21012001F075F90B4B1860FFF7BB
:10437000E7F8002201210948FFF7CEF80023019356
:10438000062200924FF420720549064801F09AFA7D
:1043900003B05DF804FB00BF58310008694200100B
:1043A000B8440110ED42001000B583B04FF0FF3269
:1043B0006946154B186800F0CBFE144CA02120462E
:1043C00005F048FEB121204605F044FEBDF802107C
:1043D000090A204605F03EFE9DF80210204605F031
:1043E00039FE9DF80410204605F034FE9DF80510B6
:1043F000204605F02FFEA121204605F02BFE0449A2
:104400000120FFF72BFDD1E75C3100081C2D0008CF
:10441000D044011000B583B000220621012001F034
:1044200019F9074B186000230193042200924FF4FE
:1044300020720449044801F045FA03B05DF804FB1A
:104440005C310008F0440110A94300102DE9F0414F
:104450000027B8463B4617E000251CE0002621E077
:10446000002426E001211C4B186800F06DF923E0C0
:104470000221194B186800F067F922E0322001F0A0
:1044800017FC2746B0462B46144AD2F8102312F0E8
:10449000080FE1D10125114AD2F8102312F0100FB4
:1044A000DCD101260D4AD2F8102312F0200FD7D10B
:1044B00001240BB1002DD5D0B8F1000F01D0002E92
:1044C000D6D0002FDAD0002CD8D10421024B1868A6
:1044D00000F03AF9D2E700BF582F00080000314041
:1044E00000B583B00020FFF702F8002301930522F6
:1044F000009280220349044801F0E4F903B05DF81A
:1045000004FB00BF004501104D44001000000000F6
:104510000230800803D001300238FCD100BF00BF58
:104520007047EFF3108072B6704780F310887047C1
:10453000034B0360034B0B6080231360704700BF85
:104540006037000860310008034B0360034B0B60C9
:104550004FF48073136070471C3800086033000804
:104560007047000008B503460A4A10680A4A121A42
:104570009A4207DBC118094A914203DB0344054A0A
:10458000136008BD0CF0AEF90C2303604FF0FF3050
:10459000F7E700BFA423000800E801081041000865
:1045A00008B501F061FF08BD08B501F0DBFA08BDF0
:1045B0001AB9084205D110467047814303D0002044
:1045C0007047012070470120704738B5202000F067
:1045D00027FB044628B1002540F8045B00F0FCF8F6
:1045E0002577204638BD2DE9F8430D4617461E466F
:1045F000DDF820808146002836D015F07F4F08D0A6
:104600004FF03F0383F31188BFF36F8FBFF34F8FDA
:1046100001BE45B94FF03F0383F31188BFF36F8F9D
:10462000BFF34F8F01BE01F0DFFD58B9B8F1000FA5
:1046300008D04FF03F0383F31188BFF36F8FBFF3B0
:104640004F8F01BE01F010FFD9F8004032462946D5
:104650002046FFF7ADFF88B11FB324EA0503C9F870
:1046600000304FF000081EE04FF03F0383F3118845
:10467000BFF36F8FBFF34F8F01BEBEE7B8F1000FDE
:1046800011D05FB900210EB141F08061424629434B
:1046900009F1040001F008FC002404E04FF08071EF
:1046A000F1E74FF0000801F05DFAB8F1000F12D009
:1046B00048B94FF0E0234FF08052C3F8042DBFF308
:1046C0004F8FBFF36F8F02F02DF8044610F0007F7C
:1046D00004D024F07F442046BDE8F88300F042F97E
:1046E000D9F80040324629462046FFF761FF20B145
:1046F0001FB124EA0505C9F8005000F055F9E8E7B4
:1047000070B50C460646A8B114F07F4F08D04FF0A4
:104710003F0383F31188BFF36F8FBFF34F8F01BE49
:1047200000F020F9356825EA0404346000F03CF913
:10473000284670BD4FF03F0383F31188BFF36F8F9E
:10474000BFF34F8F01BEDFE7F8B50D460446A8B1B1
:1047500015F07F4F08D04FF03F0383F31188BFF36C
:104760006F8FBFF34F8F01BE04F10C0601F07CFE8A
:10477000206923682B432360002714E04FF03F0398
:1047800083F31188BFF36F8FBFF34F8F01BEDFE755
:10479000216832EA010105D111E0216841F0007180
:1047A00001F05EFC2846B0420ED04568036823F055
:1047B0007F4213F0806FEBD121681142F2D013F0E9
:1047C000807FEAD01743E8E7236823EA07032360E2
:1047D00001F0C8F92068F8BD00F1080343604FF00C
:1047E000FF328260C36003610023036070470023CF
:1047F0000361704743684B609A688A6051609960B2
:104800000861036801330360704703694168826887
:104810008A60416851605A68824206D00022026173
:104820001A68013A1A601868704782685A60F5E79A
:1048300030B40D68B5F1FF3F11D000F108031C46FC
:104840005B681A68AA42FAD963684B6099608C6009
:104850006160086103680133036030BC704704691C
:10486000F2E7000082B0002301930D4B1B68B3F107
:10487000FF3F08D04FF03F0383F31188BFF36F8FE2
:10488000BFF34F8F01BE4FF03F0383F31188BFF397
:104890006F8FBFF34F8F019B002BFCD002B070478E
:1048A000A823000808480068006880F308884FF0D3
:1048B000000080F3148862B661B6BFF34F8FBFF378
:1048C0006F8F00DF00BF000008ED00E0DFF80C0094
:1048D000016841F4700101607047000088ED00E05C
:1048E00008B54FF03F0383F31188BFF36F8FBFF319
:1048F0004F8F01F07BF828B14FF0E0234FF080524A
:10490000C3F8042D002383F3118808BD4FF0807392
:1049100040F8043C21F0010140F8081C054B40F828
:104920000C3C40F8202C6FF0020340F8243C443843
:10493000704700BF65480010000000000000000044
:10494000074B19680868B0E8F04F80F30988BFF397
:104950006F8F4FF0000080F311887047AFF3008035
:10496000303900084FF03F0383F31188BFF36F8F96
:10497000BFF34F8F0B4A136801331360012B00D034
:1049800070474FF0E023D3F8043D13F0FF0FF7D04A
:104990004FF03F0383F31188BFF36F8FBFF34F8F47
:1049A00001BEEDE7A8230008094B1B6843B94FF08F
:1049B0003F0383F31188BFF36F8FBFF34F8F01BEA7
:1049C000034A1368013B13600BB983F311887047E6
:1049D000A823000800000000000000000000000004
:1049E000EFF30980BFF36F8F154B1A681EF0100F9D
:1049F00008BF20ED108A20E9F04F10602DE9090072
:104A00004FF03F0080F31188BFF34F8FBFF36F8FDC
:104A100001F074F94FF0000080F3118809BC1968A7
:104A20000868B0E8F04F1EF0100F08BFB0EC108A15
:104A300080F30988BFF36F8F704700BFAFF300802A
:104A4000303900084FF0E022002313619361074BD7
:104A50001B680749A1FB03139B09013B5361072313
:104A60001361044B9B68044ADA637047FC22000818
:104A7000D34D621000ED00E0E148001030B583B086
:104A80004FF0E023D3F8002D3E4B9A421AD04FF05E
:104A9000E023D3F8002D3C4B9A421DD03B4B1A78B3
:104AA000D2B20192FF221A701B78DBB28DF803306C
:104AB0009DF8033003F03F03354A1370354B07224E
:104AC0001A601DE04FF03F0383F31188BFF36F8F2F
:104AD000BFF34F8F01BEDAE74FF03F0383F3118836
:104AE000BFF36F8FBFF34F8F01BED7E7294A13681B
:104AF000013B13609DF803305B00DBB28DF803309F
:104B00009DF8033013F0800FF0D1224B1B68042B6B
:104B100008D04FF03F0383F31188BFF36F8FBFF3CB
:104B20004F8F01BE1B4A13681B02136003F4E0633E
:104B30001360019BDBB2154A13704FF0E024D4F8E8
:104B4000203D43F47F03C4F8203DD4F8203D43F0DA
:104B50007F43C4F8203DFFF775FF00250E4B1D6015
:104B6000FFF7B4FED4F8343F43F04043C4F8343F79
:104B7000FFF798FE01F0C2F8FFF774FE284603B075
:104B800030BD00BF71C20F4170C20F4100E400E0B0
:104B9000D8380008DC380008A8230008EFF30583A4
:104BA0000F2B0FD9114A9B5CDBB2114A12789A4243
:104BB00008D94FF03F0383F31188BFF36F8FBFF322
:104BC0004F8F01BE4FF0E023D3F80C3D03F4E063B8
:104BD000084A1268934208D94FF03F0383F31188C3
:104BE000BFF36F8FBFF34F8F01BE7047F0E300E05C
:104BF000D8380008DC3800084FF03F0383F31188F1
:104C0000BFF36F8FBFF34F8F01BEFEE74FF03F033F
:104C100083F31188BFF36F8FBFF34F8F01BEFEE7A1
:104C200010B5044601F020FC20460BF075FA04464E
:104C300000F098FF0CB1204610BDFFF7DDFFFAE74A
:104C400048B110B5044601F00FFC20460BF06CFA99
:104C500000F088FF10BD70470346406A18B11B6B17
:104C60001868C0F10700704710B50446FFF77AFED8
:104C7000A26BE36B9A4204D00024FFF795FE204616
:104C800010BD0124F9E710B50446FFF76BFEA36BD6
:104C900023B90124FFF788FE204610BD0024F9E760
:104CA00070B504461546866B026C5AB903681BB191
:104CB00000200136A66370BD806801F07DFC0023F2
:104CC000A360F6E76DB940680BF0A2FE226C636842
:104CD00013446360A268934219D323686360284633
:104CE000E7E7C0680BF094FE226C5142E3689B1A20
:104CF000E3602268934202D2A3680B44E360022D72
:104D000001D00020D5E726B1013E0020D1E728469A
:104D1000CFE70020CDE70346026C6AB110B5084624
:104D2000D9681144D9609C68A14201D31968D9603F
:104D3000D9680BF06DFE10BD704738B50546FFF71A
:104D400011FE95F8454064B201E0013C64B2002CCC
:104D50000ADD6B6A43B105F1240001F007F9002870
:104D6000F3D001F035FAF0E7FF2385F84530FFF77F
:104D70001BFEFFF7F7FD95F8444064B201E0013CEB
:104D800064B2002C0ADD2B6943B105F1100001F07B
:104D9000EDF80028F3D001F01BFAF0E7FF2385F8C7
:104DA0004430FFF701FE38BDF0B585B00F460192E3
:104DB0001D46044690B1DFB1022D26D001F014FA51
:104DC00050B9019B43B14FF03F0383F31188BFF308
:104DD0006F8FBFF34F8F01BE002661E04FF03F039E
:104DE00083F31188BFF36F8FBFF34F8F01BEE2E7EC
:104DF000236C002BE0D04FF03F0383F31188BFF307
:104E00006F8FBFF34F8F01BED6E7E36B012BD5D079
:104E10004FF03F0383F31188BFF36F8FBFF34F8FC2
:104E200001BECBE72A4639462046FFF739FF636AC1
:104E30007BB948B14FF0E0234FF08052C3F8042D06
:104E4000BFF34F8FBFF36F8FFFF7AEFD012005B0AB
:104E5000F0BD04F1240001F089F80028F4D04FF0EF
:104E6000E0234FF08052C3F8042DBFF34F8FBFF300
:104E70006F8FE9E7FFF798FD0020E8E702A801F04F
:104E800037FB012619E0002384F8443021E0002399
:104E900084F8453023E02046FFF74FFF00F062FE24
:104EA000FFF760FDA26BE36B9A42BBD3022DB9D032
:104EB000019B002BDED0002EE0D0FFF775FD01F046
:104EC000D3FAFFF74FFD94F8440040B2B0F1FF3F32
:104ED000D9D094F8450040B2B0F1FF3FD7D0FFF7EA
:104EE00063FD01A902A801F02DF9D8B92046FFF70A
:104EF000BBFE0028CFD0019904F1100001F0DEFACA
:104F00002046FFF71AFF00F02DFE0028C8D14FF011
:104F1000E0234FF08052C3F8042DBFF34F8FBFF34F
:104F20006F8FBDE72046FFF708FF00F01BFE002053
:104F30008DE738B5044630B1A56801F04FF98542D8
:104F40000BD0002038BD4FF03F0383F31188BFF32F
:104F50006F8FBFF34F8F01BEEEE7E368013BE36065
:104F60000BB10120EEE71A4619462046FFF71CFF59
:104F70000120E7E72DE9F8430E4691461D46044619
:104F8000C8B116B3022D2DD0FFF708FEEFF311873D
:104F90004FF03F0383F31188BFF36F8FBFF34F8F41
:104FA000A26BE36B9A422AD3022D28D0002087F30C
:104FB0001188BDE8F8834FF03F0383F31188BFF3F6
:104FC0006F8FBFF34F8F01BEDBE7236C002BD9D06F
:104FD0004FF03F0383F31188BFF36F8FBFF34F8F01
:104FE00001BECFE7E36B012BCED04FF03F0383F33D
:104FF0001188BFF36F8FBFF34F8F01BEC4E794F8E2
:1050000045804FFA88F8A36B2A4631462046FFF7C1
:1050100047FEB8F1FF3F0FD1636A0BB90120C6E725
:1050200004F1240000F0A2FFF8B1B9F1000F1ED086
:105030000120C9F80000BAE701F024FA804518D22F
:10504000B8F17F0F07D008F101084FFA88F884F80B
:1050500045800120ABE74FF03F0383F31188BFF396
:105060006F8FBFF34F8F01BEEDE701209FE7012057
:105070009DE701209BE7F8B50E46044640B3236C3C
:1050800043B14FF03F0383F31188BFF36F8FBFF33A
:105090004F8F01BE23682BB3FFF780FDEFF311851F
:1050A0004FF03F0383F31188BFF36F8FBFF34F8F30
:1050B000A36BE26B9A4241D994F845707FB20133F9
:1050C000A363B7F1FF3F23D1636AC3B9012036E080
:1050D0004FF03F0383F31188BFF36F8FBFF34F8F00
:1050E00001BECCE7A368002BD6D04FF03F0383F37B
:1050F0001188BFF36F8FBFF34F8F01BECCE704F170
:10510000240000F033FFE8B1F6B10120306016E072
:1051100001F0B8F9874219D27F2F05D001377FB24D
:1051200084F8457001200AE04FF03F0383F31188B3
:10513000BFF36F8FBFF34F8F01BEEFE7002085F302
:105140001188F8BD0120FAE70120F8E70120F6E711
:10515000F0B585B00F460192044680B1CFB101F0A1
:1051600043F850B9019B43B14FF03F0383F31188DB
:10517000BFF36F8FBFF34F8F01BE002655E04FF096
:105180003F0383F31188BFF36F8FBFF34F8F01BECF
:10519000E4E7236C002BE2D04FF03F0383F3118848
:1051A000BFF36F8FBFF34F8F01BED8E7394620465C
:1051B000FFF7B1FD013DA563236923B9FFF7F4FBB8
:1051C000012005B0F0BD04F1100000F0CFFE002872
:1051D000F4D04FF0E0234FF08052C3F8042DBFF31A
:1051E0004F8FBFF36F8FE9E7FFF7DEFB0020E8E7A3
:1051F00002A801F07DF9012621E0002384F8443063
:1052000029E0002384F845302BE02046FFF795FD88
:1052100000F0A8FC09E02046FFF78FFD00F0A2FC9B
:105220002046FFF730FD00283FD1FFF79BFBA56B21
:10523000002DBBD1019B002BD6D0002ED8D0FFF77C
:10524000B3FB01F011F9FFF78DFB94F844305BB22A
:10525000B3F1FF3FD1D094F845305BB2B3F1FF3FDB
:10526000CFD0FFF7A1FB01A902A800F06BFF002837
:10527000D1D12046FFF707FD0028C6D0019904F1DF
:10528000240001F01BF92046FFF757FD00F06AFCEF
:105290000028CAD14FF0E0234FF08052C3F8042D0C
:1052A000BFF34F8FBFF36F8FBFE7002089E770B563
:1052B00084B001910446D8B1236C43B14FF03F0351
:1052C00083F31188BFF36F8FBFF34F8F01BE00F0E0
:1052D0008BFF50B9019B43B14FF03F0383F311881B
:1052E000BFF36F8FBFF34F8F01BE002635465DE0E1
:1052F0004FF03F0383F31188BFF36F8FBFF34F8FDE
:1053000001BED9E7013BA363236833B1236943B9E5
:10531000FFF74AFB012004B070BD01F00FFAA06056
:10532000F4E704F1100000F021FE0028F0D04FF067
:10533000E0234FF08052C3F8042DBFF34F8FBFF32B
:105340006F8FE5E746B14FF03F0383F31188BFF35A
:105350006F8FBFF34F8F01BEFFF726FB0020DAE708
:1053600002A801F0C5F801252AE0002384F84430A2
:1053700032E0002384F8453034E0FFF7F3FAA06808
:1053800001F0C2F80646FFF70FFB3BE02046FFF7AF
:10539000D4FC00F0E7FB09E02046FFF7CEFC00F06C
:1053A000E1FB2046FFF76FFC002842D1FFF7DAFA55
:1053B000A36B002BA6D1019B002BC3D0002DCFD017
:1053C000FFF7F2FA01F050F8FFF7CCFA94F8443006
:1053D0005BB2B3F1FF3FC8D094F845305BB2B3F194
:1053E000FF3FC6D0FFF7E0FA01A902A800F0AAFE2D
:1053F0000028D1D12046FFF746FC0028C6D02368FC
:10540000002BBAD0019904F1240001F057F820468E
:10541000FFF793FC00F0A6FB0028C7D14FF0E02374
:105420004FF08052C3F8042DBFF34F8FBFF36F8F3F
:10543000BCE70EB900206EE7FFF794FA2046FFF7AD
:105440000BFC0146A06801F00DF9FFF7ADFAF1E79A
:1054500070B50D46044668B1A66800F0BFFE8642EE
:1054600012D029462046FFF722FF88B1E3680133B6
:10547000E3600DE04FF03F0383F31188BFF36F8FBC
:10548000BFF34F8F01BEE7E7E3680133E36001201C
:1054900070BD10B5044630B1FFF764FAA46BFFF796
:1054A00083FA204610BD4FF03F0383F31188BFF30A
:1054B0006F8FBFF34F8F01BEEEE770B504460D4608
:1054C0001646FFF74FFA94F844305BB2B3F1FF3F52
:1054D0000DD094F845305BB2B3F1FF3F0BD0FFF72E
:1054E00063FAA36B5BB12046FFF727FC70BD002376
:1054F00084F84430EDE7002384F84530EFE7324686
:10550000294604F1240000F007FDECE738B50D460C
:10551000044698B13CB1E36B2BB1226C0021A3FB94
:105520000232AAB9B1B14FF03F0383F31188BFF340
:105530006F8FBFF34F8F01BE002038BD4FF03F0388
:1055400083F31188BFF36F8FBFF34F8F01BEE1E785
:105550000121E7E7FFF706FA2368E26B216C01FB04
:105560000230A0600020A0636360013A02FB0133B7
:10557000E360FF2384F8443084F84530B5B92369EB
:105580001BB9FFF711FA0120D7E704F1100000F072
:10559000EDFC0028F5D04FF0E0234FF08052C3F827
:1055A000042DBFF34F8FBFF36F8FEAE704F11000B4
:1055B000FFF712F904F12400FFF70EF9E1E738B51F
:1055C0001D46049C0B4649B92460E0632364012115
:1055D0002046FFF79BFF84F84C5038BD2260F4E76B
:1055E00010B584B01C46EBB140B33CB302B129B353
:1055F00012B350230393039B502B08D04FF03F036B
:1056000083F31188BFF36F8FBFF34F8F01BE039BEE
:10561000012384F8463000949DF81830FFF7CFFF3F
:10562000204615E04FF03F0383F31188BFF36F8FDF
:10563000BFF34F8F01BED7E70029DAD04FF03F0309
:1056400083F31188BFF36F8FBFF34F8F01BE00202C
:1056500004B010BDF0B583B0F8B10C46174606464D
:105660000023A0FB0412B2B9BBB904FB06F010F191
:10567000510F12D85030FFF7D3FA0546B8B10023C6
:1056800080F8463000903B4600F1500221463046FB
:10569000FFF795FF0BE00123E6E74FF03F0383F3AD
:1056A0001188BFF36F8FBFF34F8F01BE00252846CF
:1056B00003B0F0BD10B4044618B191B10020034608
:1056C00013E04FF03F0383F31188BFF36F8FBFF3F5
:1056D0004F8F01BEF1E70E4800EBC30008B1016037
:1056E00044605DF8044B70470133092BF6D8084A33
:1056F00002EBC3025268A242EDD00028F4D1044A62
:1057000052F83320002AEFD1014800EBC300EBE749
:10571000E0380008074B1B681B6823B9064B4FF0A5
:10572000FF321A607047034B1B68DB681A68024B34
:105730001A60704734390008083A000810B504466A
:10574000FFF710F9294A136801331360284B1B68CF
:105750005BB1284B1B686BB9254B1B68DA6AE36A9F
:105760009A4207D8224B1C6004E0214B1C6013684E
:10577000012B37D0204A1368013313606364E36A56
:105780001E4A1268934201D91C4A13601C4A03EB5B
:10579000830302EB83035B68A3609868E060211DCC
:1057A00041609960E36A03EB8301880002EB8101A9
:1057B0006161115801311150FFF7F6F80D4B1B686C
:1057C0007BB10B4B1B68DA6AE36A9A4209D24FF04D
:1057D000E0234FF08052C3F8042DBFF34F8FBFF387
:1057E0006F8F10BD00F072FDC4E700BFC83900081C
:1057F00030390008283A0008D4390008D8390008A0
:105800003C39000808B500F0B7FD074B1B68012BB9
:10581000F9D94FF0E0234FF08052C3F8042DBFF3C5
:105820004F8FBFF36F8FEEE73C39000870B5044629
:105830000D461E4B1E681E4B18680430FEF7E5FF30
:10584000B4F1FF3F0DD03444194B1B685C60A64295
:105850001DD9184B1868164B19680431FEF7E8FF7C
:1058600070BD002DEFD0144A5168114B186881604B
:1058700018688C68C4601868043060601868043068
:1058800088601B685A61136801331360E8E70B4BAB
:105890001868074B19680431FEF7CAFF084B1B68EC
:1058A000A342DDD9064B1C60DAE700BF543A00087A
:1058B00030390008383900082C3A0008343900081B
:1058C000083A00082DE9F04385B00746884614469B
:1058D0001E469000FFF7A4F920B38146BC20FFF7D5
:1058E0009FF90546D0B1BC2200210AF089FFC5F816
:1058F0003090E5B1002385F8B930039302950D9BF4
:1059000001930C9B0093334622464146384600F0F3
:105910007BFC2846FFF712FF012005E04846FFF711
:105920008FF9E6E74FF0FF3005B0BDE8F0834FF0A8
:10593000FF30F9E710B588B000240594069407AA53
:1059400006A905A8FEF7F4FD059B0293069B0193AB
:1059500000942346079A1C491C4800F033FD1C4B59
:10596000186050B101F050F9012808D0B0F1FF3FA4
:105970001FD0184B1B6808B010BD0020F4E74FF093
:105980003F0383F31188BFF36F8FBFF34F8F124B29
:105990001B686833114A1360114B4FF0FF321A60D5
:1059A000104B01221A60104B00221A60FFF766F8B4
:1059B000DFE74FF03F0383F31188BFF36F8FBFF32F
:1059C0004F8F01BED5E700BF1045011005580010EC
:1059D000043A0008AC230008303900081C260008EF
:1059E000083A0008283A0008543A0008524B1B684D
:1059F000002B40F0998070B5504B1C6801341C603E
:105A0000C4B94F4B1B681B6843B14FF03F0383F38E
:105A10001188BFF36F8FBFF34F8F01BE484A1168E3
:105A2000484B186810601960474A136801331360C7
:105A3000FFF770FE454B1B68A34210D90020444B72
:105A40001B68DB6A03EB83039A00424B9B58012BD4
:105A500000D90120404B1B68002B6BD170BD00208A
:105A600037E03A4B4FF0FF321A60E8E7374B1A60E5
:105A7000E5E7D968516042E0002199621168013977
:105A80001160DA6A354909688A4201D933490A60E6
:105A9000304902EB82024FEA820C8C44DCF804208D
:105AA0009A609668DE6075609560DA6A02EB820C37
:105AB0004FEA8C054E195E614D5901354FEA8C0C49
:105AC00041F80C50DA6A224B1B68DB6A9A4200D319
:105AD00001201B4B1B681B68002BC2D0184B1B6896
:105AE000DB68DB685A689442C0D35A699D68D968FC
:105AF000A9609D684D6051681D1DA942B9D0002163
:105B000059611168013911609A6A002AB9D0DE69B9
:105B1000196AB160DE694E60566803F118018E4261
:105B2000AAD1196A5160A7E70D4A136801331360BF
:105B300000207047012091E7D0390008543A00084E
:105B400034390008383900080C3A0008083A0008CF
:105B5000303900083C390008583A0008D8390008A4
:105B6000103A000810B54A4B1B6843B94FF03F0389
:105B700083F31188BFF36F8FBFF34F8F01BEFEF722
:105B8000F1FE434B1A68013A1A601B68002B7AD168
:105B9000404B1B683BB9002476E0196A516015E060
:105BA000D968516021E000233B4A1268002A47D09F
:105BB000394BDB68DB689A6AD869196A8160D869F1
:105BC0004860506803F118018842E6D000219962CC
:105BD0001168013911605A699868D96881609868BC
:105BE00048605168181D8142DAD00021596111685E
:105BF00001391160DA6A294909688A4201D92749BD
:105C00000A60274902EB820201EB820252689A6025
:105C10009468DC6060609060DA6A02EB8200840065
:105C200001EB80005861085901300851D96A1D4ABA
:105C30001268D26A9142B7D31B4A01211160B3E7BF
:105C40000BB1FFF767FD194B1C6884B9164B1C6834
:105C5000D4B14FF0E0234FF08052C3F8042DBFF3CE
:105C60004F8FBFF36F8F01240EE0013C07D0FFF789
:105C7000BDFE0028F9D00C4B01221A60F5E70B4B52
:105C800000221A60E2E70024FEF78EFE204610BDD7
:105C9000D0390008C8390008143A0008D83900087B
:105CA0003C39000830390008583A0008103A00081A
:105CB00010B5A8B10446104B1B6843B14FF03F0329
:105CC00083F31188BFF36F8FBFF34F8F01BE00F0D6
:105CD000CBFB00212046FFF7A9FDFFF743FF48B9A2
:105CE0004FF0E0234FF08052C3F8042DBFF34F8FE5
:105CF000BFF36F8F10BD00BFD039000808B5304B1F
:105D00001B681BB12F4B01221A6008BD2D4B0022CE
:105D10001A602D4B1B681B6B1A68B2F1A53F03D1AB
:105D20005A68B2F1A53F08D0274B1868196834317A
:105D3000FEF76CFF254B1B6809E09A68B2F1A53F9E
:105D4000F2D1DB68B3F1A53FEED1F3E7013B03EB02
:105D500083018A001E498A585AB9002BF6D14FF0A8
:105D60003F0282F31188BFF36F8FBFF34F8F01BEE5
:105D7000ECE703EB830082000A44506840685060FF
:105D800003EB830C4FEA8C020832114488420FD097
:105D900003EB830291000E4A0A445268D1680A4A12
:105DA00011600A490B60136868330A4A1360ACE754
:105DB000406862469100064A0A445060E8E700BF26
:105DC000D0390008583A000830390008D83900089E
:105DD0003C3900081C26000838B50446FEF7C2FD11
:105DE000D4B1251D2846FEF710FDA36A1BB104F1AE
:105DF0001800FEF70AFD29462648FEF7FBFC0023A3
:105E0000002B0CDDFEF7D0FD234B1B68A3B9234B01
:105E10001B68A34217D038BD204B1C68E1E7E2188D
:105E200092F8B820D2B2012A01D00133E8E7E21893
:105E3000002182F8B810F8E7FEF794FDFFF76AFC3E
:105E4000FEF7B2FDE3E7144B1B68B3B1144B1B68BC
:105E500043B14FF03F0383F31188BFF36F8FBFF35C
:105E60004F8F01BE4FF0E0234FF08052C3F8042D56
:105E7000BFF34F8FBFF36F8FCDE7064B1A68094B07
:105E80001B689A4203D1054B00221A60C3E7FFF753
:105E900035FFC0E72C3A0008283A000830390008DE
:105EA000D0390008C839000838B5044630B3184B5B
:105EB0001B6843B94FF03F0383F31188BFF36F8F23
:105EC000BFF34F8F01BE134B186841F00041816151
:105ED00061681868C16118688D68056218681830B3
:105EE00068601868183088601B689C6223680133FA
:105EF000236001211046FFF799FC38BD4FF03F03A6
:105F000083F31188BFF36F8FBFF34F8F01BECEE7CE
:105F1000D03900083039000870B5034608461146EC
:105F20001A46BBB15468104B1D68EC611D68A66829
:105F30002E621D68183575601D681835A5601B68D0
:105F40009A6213680133136009B14FF0FF30FFF715
:105F50006DFC70BD4FF03F0383F31188BFF36F8F6B
:105F6000BFF34F8F01BEDDE73039000810B4C368BE
:105F7000DB68002B4AD09A6AD869196A8160D869AF
:105F80004860516803F11800814249D000219962AC
:105F90001168013911602C4A1268002A46D15A69E9
:105FA0009868D9688160986848605168181D814276
:105FB00039D000215961116801391160DA6A234929
:105FC00009688A4201D921490A60214902EB82020B
:105FD00001EB820252689A609468DC6060609060B5
:105FE000DA6A02EB8200840001EB800058610859F4
:105FF00001300851DA6A174B1B68DB6A9A4221D9D3
:106000000120154B18605DF8044B70474FF03F02BC
:1060100082F31188BFF36F8FBFF34F8F01BEAAE7E2
:10602000196A5160B2E7D9685160C2E70B4A5168FA
:10603000D9618C681C62606088609A621168013165
:106040001160D7E70020DEE7D0390008D839000812
:106050003C39000830390008583A0008143A000862
:1060600010B4334B1B6843B94FF03F0383F31188DF
:10607000BFF36F8FBFF34F8F01BE41F0004101604E
:10608000C368002B44D0026944688168A1604468F9
:106090004C605168814245D000210161116801398D
:1060A00011605A699868D968816098684860516839
:1060B000181D814239D000215961116801391160E0
:1060C000DA6A1C4909688A4201D91A490A601A49E0
:1060D00002EB820201EB820252689A609468DC60F3
:1060E00060609060DA6A02EB8200840001EB80005D
:1060F0005861085901300851DA6A104B1B68DB6A95
:106100009A4202D90E4B01221A605DF8044B704787
:106110004FF03F0282F31188BFF36F8FBFF34F8FB1
:1061200001BEB0E781685160B6E7D9685160C2E747
:10613000D0390008D83900083C3900083039000847
:10614000583A0008F8B50C460546A8B1F4B1FEF778
:1061500009FC1D4B19686B68C81A2268B2F1FF3F31
:106160002CD01A4E36682F68B74219D08B4217D8F8
:1061700000232360012422E04FF03F0383F31188C2
:10618000BFF36F8FBFF34F8F01BEDFE74FF03F03C9
:1061900083F31188BFF36F8FBFF34F8F01BED6E734
:1061A000824203D800232360012408E05B1A1344D1
:1061B0002360284600F09CF9002400E00024FEF74C
:1061C000F3FB2046F8BD00BF543A00080C3A000823
:1061D000014B01221A607047583A0008014B1868B9
:1061E000704700BF30390008054B1B6833B1054BC1
:1061F0001B680BB1002070470220704701207047D8
:10620000283A0008D03900082DE9F04780460D46AD
