:020000041000EA
:10000000002000081B0100100D0000007D01001001
:1000100000000000000000000000000000000000E0
:100020000000000000000000000000007901001046
:1000300000000000000000007901001079010010AC
:100040007901001079010010790100107901001088
:100050007901001079010010790100107901001078
:100060007901001079010010790100107901001068
:100070007901001079010010790100107901001058
:100080000448054B10B5834203D0044B002B00D02D
:10009000984710BD780300087803000800000000AE
:1000A00006480749091A8B10C90FC91810B549101D
:1000B00003D0044B002B00D0984710BD78030008F4
:1000C000780300080000000010B5074C2378002BCF
:1000D00009D1FFF7D5FF054B002B02D0044800E003
:1000E00000BF0123237010BDB00300080000000012
:1000F00094150010054B10B5002B03D0044905489A
:1001000000E000BFFFF7CCFF10BDC04600000000BC
:10011000B4030008941500107047FFF7FDFF72B696
:100120000F4C104DAC4209DA21686268A368043BA9
:1001300002DBC858D050FAE70C34F3E70A490B4AFF
:100140000020521A02DD043A8850FCDC08480949B4
:100150000860BFF34F8F00F06FF800F01DF8FEE766
:10016000A0150010B8150010B0030008C80500085D
:100170000000000808ED00E0FEE7FEE700B50420FF
:100180007146084202D0EFF3098002E0EFF30880E5
:10019000043000F0BBFDFEE710B562B6034800F086
:1001A000C3F8002000F0BAFEFBE7C04600200010B4
:1001B00010B5002000F090FA10BD704770B5002017
:1001C00000F0EEFC041E28D0144B186000F064FB15
:1001D000411C200000F080FF114B0400186000F06B
:1001E0004DFB411C200000F077FF04000D4B013C4B
:1001F00018600D49200000F06FFFFA210B4D01300F
:1002000028708900200000F067FF094D0130286048
:10021000002000F0C5FC074B186070BD8800000886
:100220008C0000088000000840420F009400000885
:10023000900000088400000810B5204800F0ACF8D9
:10024000B022E02130201E4CD200A35889005B0070
:100250005B08A35063588343635080235B04A3501F
:10026000184B194AE250A02204339201E250FF22B7
:10027000164BE25000F014FFC02201215200A35897
:100280008B43A350FFF799FFFFF798FF104B032014
:100290001A681300BA33198807234B43126A802166
:1002A0009B180022DA605A600A4A00F05FFA0A4896
:1002B00000F022F9094800F05BF910BDD4140010D9
:1002C0000000264084050000010002008C050000AB
:1002D0004C05000878030008CC030008A0140010A7
:1002E0009023034A5B01D058032318407047C0464F
:1002F0000000204010B5902400F047F8074B64013F
:100300001959074A1140074A0A431A5110225968DD
:100310001142FCD000F03DF810BDC0460000204066
:10032000FCFF00000100FA05F8B590260E4C76019E
:10033000070000F02AF8A3590500DB439B0701D111
:10034000FFF7D8FF80239B00E750A259074B1A40C4
:10035000074B1343A351102362681A42FCD02800B4
:1003600000F017F8F8BDC04600002040FCFF000078
:100370000300FA05000000000230800803D00130BD
:100380000238FCD1C046C0467047EFF3108072B609
:10039000704780F310887047014B18607047C04663
:1003A0004C050008044B1B681A00BA3212881B6AFD
:1003B0005043C0187047C0464C050008A02300B544
:1003C0001B06984226D015D8802825D00AD8102898
:1003D00024D0402824D000280BD0154809E0A420C0
:1003E000C00306E08022134B520090421CD098427A
:1003F000F3D100BD104B984218D0104BC018042800
:10040000EBD800F05FFEECEA0F0305000C48F0E7C4
:100410000C48EEE70020ECE70B48EAE70B48E8E77A
:100420000B48E6E70B48E4E71800E2E7A020D7E72F
:10043000FF00520006005200090000A0FFFFFF0F5E
:10044000020052000300520005005200010050005B
:10045000020050000100520010B50020FFF7A2FF7B
:100460000A4B1C682300BC331B68C0180368002BB0
:100470000ADB074B1868FFF7A1FF012263689A6047
:100480009A68002AFCD110BD0248FCE74C05000820
:100490005005000802005000064B1B68BC331B6867
:1004A000C3181B68002B03DA89B241600020704733
:1004B0000148FCE74C05000801008A000368002B96
:1004C00004DA89B2C2608160002070470048FCE70E
:1004D00001008A00064B1B68BC331B68C3181B68ED
:1004E000002B03DAC36800200B6070470148FCE76B
:1004F0004C05000801008A00024B1A68002A00D14E
:100500001860704764050008F0B52C24154E44436C
:1005100030681F000019FF241E0A26402740124C95
:100520001B0C256807602C6A46608360BA352D88ED
:100530006F433F190761370080377F01E7190B4D83
:1005400076014761A4191F043B436419236000230B
:100550008361059BC2610162002B01D01B888381EE
:10056000F0BDC046640500084C05000808100000F6
:10057000F0B50400236987B0026841680393A3685B
:1005800004AD1732C0682B806A80039BA26A059174
:100590000095E16A266A676AFFF7B6FF00213B0013
:1005A0000A0030000091FFF7AFFF2800216B00F038
:1005B00077FB0022AB5E002B06DB1F2213401E3AA6
:1005C0009A401300014A136007B0F0BD00E100E05B
:1005D000F0B585B003931B4B16001C682C235843C1
:1005E0004B4320180769E418002F27D0A569002D78
:1005F00026D13B68002B23DA134B1B6834331B785E
:100600000193436801996068029300F0EBFD0122B9
:100610008A40336812049BB2134333600123FE60A7
:10062000A361039B01996362029800F0DBFD012343
:100630008B409BB2BB60280005B0F0BD034DFAE7CC
:10064000034DF8E7640500084C05000804028A0021
:1006500007028A0073B5002642690400D568019636
:100660002B0CB34221D01B0413601368194B006993
:100670001B68BC331B68C3181B68B34215DA01A999
:10068000FFF728FFB0420CD10198E26903681E0C05
:10069000DBB29A4205D9226A9B009B58002B00D0FE
:1006A000984731002069FFF7F7FEADB2002D09D061
:1006B00063691D6000251B68636AAB4205D09847DB
:1006C0006562A56163691B6873BDA36A002BF8D0DE
:1006D0009847F6E74C0500082C2310B54343034A1E
:1006E0001068C018FFF7B6FF10BDC04664050008CB
:1006F0001A4B70B51A680C00130033331B78834211
:100700002AD9002928D00D681F212B000B400D424B
:1007100022D11100BA310988126A48431900104DDC
:100720008018286022685209934210D30021FFF7F5
:10073000B3FE002122002868FFF7C0FE011E04D18D
:100740002868FFF7A9FE002800D0064870BD62683F
:100750009E00B1500133E5E70348F7E74C05000878
:100760006805000801018A0003018A000B0010B52A
:10077000002A0DD1002914D10B4A0C4C11680A0033
:10078000BA321288096A424352182260180010BD1A
:10079000002906D006490B604A60FFF7A9FF030055
:1007A000F4E7044BF2E7C0464C0500086805000872
:1007B0008803000803018A00F7B51B4F04003B685B
:1007C0000E00002B2BD0DB681A68824229D9002545
:1007D0005B680193A94202D1FFF7D7FD0500386895
:1007E0000368002B19DA1F23012223409A40640971
:1007F000019BA4001C1921680A420CD0914321607E
:1008000000240021FFF748FE002E02D12800FFF748
:10081000C0FD2000FEBD054CF3E7054CF4E7034C9A
:10082000F7E7044CF5E7C0466805000802018800B8
:100830000301880004018A000C4B1B68002B11D0B7
:10084000DB681A6882420FD959681F234209184091
:100850001E3B8340920050581840431E9841044B61
:10086000C01870470348FCE70348FAE7680500082A
:10087000000188000201880004018A00054B1B6802
:100880001A0088321B6812689B181868000AC0B2E8
:100890007047C0464C050008044B1B681A0088329C
:1008A0001B6812689B181868000E70474C050008FA
:1008B000034BE0308000C0588006800F7047C04670
:1008C00000002640024B18694007C00F7047C04621
:1008D00000002740A6220549D2008B580220DB43A6
:1008E0009B0702D00123885818407047000026401B
:1008F00010B5FFF7EFFF0023022801D1014B1B6861
:10090000180010BD70050008084A83009B18D0220B
:100910009200985807221040042806D1C022920065
:100920009B581F22FC30134018437047000026409C
:1009300010B5FFF7E9FF88235B0098421CD00BD865
:10094000012813D0022814D0431E9841104B404276
:100950001840104BC01810BD1223FF33984210D01E
:100960001423FF33984210D00020F4E70A4B186894
:10097000F1E7FFF7BDFFEEE7084A094BD058C00F7B
:1009800001E0FFF79FFFC003E5E7044A054BF5E7E9
:1009900000EE85FF00127A006C050008000026407A
:1009A0000C0500003C050000B023154ADB00D358BD
:1009B00010B59903DB01DB0F890BC371114B01608B
:1009C000D3580F24D904DB01DB0D0381B123DB00F5
:1009D000D358C90C81801900214081721909214026
:1009E000C172D9029B009B0F8373074BC90CD3586C
:1009F00081815A05DB01520FDB0D8271038210BD2C
:100A000000002640840500008C0500008030034B68
:100A1000FF308000C058C00F7047C046000026401D
:100A20000F4B421E1B683F331B78934216D9803010
:100A30007F220C4BFF308000C3581F201A400A70E1
:100A40001A0A02404A701A0C02408A701A01C24007
:100A500000209B009B0FCA700B7170470248FCE797
:100A60004C0500080000264001004A00F0B589B09E
:100A700003AD2800FFF798FFB0230026164ADB00DD
:100A8000D358B34224DAAB7B022B21D0AC88B442DA
:100A90001ED03000ED79039FFFF74AFF220033009C
:100AA00031000190681C00F0C3FB0C00050033000E
:100AB0003A003100019800F0BBFBE6076A083243B8
:100AC0006308801859412A00230000F091FB0600BA
:100AD000300009B0F0BDC04600002640F7B5234BFA
:100AE00006001B683F331B78002B08D000283BD042
:100AF000834204D36946FFF793FF041E01D000260A
:100B000032E03000FFF782FF2300002805D06B465B
:100B10001C79023C23005A1E93416A461778547888
:100B20009578002BEBD0002CE9D0002DE7D03000D9
:100B3000FFF7FEFE002306002A002000190000F047
:100B400077FB00230C0005003A003000190000F08C
:100B50006FFBE6076A0832436308801859412A0090
:100B6000230000F045FB06003000FEBD4C050008E8
:100B700010B5041E04D1FFF779FF002806D008E065
:100B8000064B1B683F331B78834203D22000FFF7DC
:100B9000CFFE10BDFFF7A2FFEFE7C0464C050008EF
:100BA00070B50500FFF784FEE035074BAD0004008B
:100BB000E8580F231840FFF7DBFF0123A3405B0831
:100BC0001818E04070BDC0460000264030B5FF2533
:100BD00003242A000440E400A24089012940D243B2
:100BE000A14083B200280ADBC0240B4B80088000A0
:100BF000C018A400035913400B43035130BD0F200C
:100C00000340083B05489B089B001B18D86902401D
:100C10000A43DA61F2E7C04600E100E000ED00E0DF
:100C2000144B30B51B6807241A002C3212781F2A87
:100C300015D882081500A5432C1E0FD1033420407F
:100C4000A04081401B68920020339B180A00FF21BE
:100C500081401C68624011406140196030BD1A68D3
:100C6000802320401B06034380208001091889004F
:100C70008B50F3E74C050008064B10B59A68064CFC
:100C800010308300A24202D19858995010BD034AF7
:100C9000D058FBE700ED00E0000000080000001065
:100CA000F7B504000E00002801D1144C17E0002312
:100CB000C55E134B4188134F0193002D11DB2800B3
:100CC000FFF7AEFF61682800FFF780FFBB68019A5D
:100CD0000024934203D131002800FFF7CDFF20000C
:100CE000FEBD08B26168FFF771FFBB68019A9342CD
:100CF000DBD131002800FFF7BFFFD6E70100560027
:100D00000000000800ED00E0FEE7000002680A4B6A
:100D100010B51A6042685A6082689A60C268DA60E8
:100D200002691A6142695A6182699A61C269DA612B
:100D3000FFF7EAFF10BDC04690030008B0235B0533
:100D40005A782120002A01D05878C0B27047B023C9
:100D50005B059A89002A02D0988980B2704780206A
:100D60004000FBE7254B73B586000D00F4580429BD
:100D700001D0012925D100200EE0A3682B420AD121
:100D8000E36829001A685B6868460193009223684B
:100D900098471B4B1C606469002C0AD0194B984281
:100DA000EBD1012DE9D1164A174B126815489A511B
:100DB00076BD012DFCD1134B9842F4D0124B9C51BF
:100DC000F6E7022914D026006469002CFBD100202C
:100DD000002EEDD0B3682B4208D1F36829001A68C1
:100DE0005B68684601930092336898473669EFE77D
:100DF000034B1B68181EDBD01E69E8E7B40500082A
:100E0000B0050008FF0042009C0500081A4B1B6853
:100E1000190088311A6809685118096801621900B7
:100E20008C3109685218126842621A0046321278F0
:100E3000002A1FD09A68E0321268D2061AD5F22230
:100E4000DB68D2019A580260F022D2019A584260BF
:100E50000A4A9A5882600A4A9A58C260094A9A58BD
:100E60000261094A9A584261084A9A588261084ABE
:100E70009B58C3617047C0464C05000804780000C9
:100E8000087800000C78000010780000147800004A
:100E9000187800001A4B1B681900883109681A6815
:100EA0005218016A116019008C3109681A685218C9
:100EB000416A11601A0046321278002A1ED09A68E0
:100EC000E0321268D20619D5F0224168DB68D201FF
:100ED000995081680B4A9950C1680B4A9950016931
:100EE0000A4A995041690A4A99508169094A9950B8
:100EF000C169094A99500168E83299507047C04663
:100F00004C05000804780000087800000C78000008
:100F1000107800001478000018780000F7B505007C
:100F2000FFF70CFF564F01907B68002B00D06FE05D
:100F3000FFF72BFA7B680090002B00D07CE0514B30
:100F400007271C682300BA331B885F43236AFB18FA
:100F50001A68002AFCDADB68DA001ED51B0F4A4843
:100F60001E07FFF753FF22008832126823684749A3
:100F70009B181A6801980A40212862D1902000012C
:100F800002431A6022008C32126823689B181A6888
:100F90000A40104318603C4B3343802292051343B0
:100FA000226A0024BF18FB607C607B68FFF7CFFEDD
:100FB0008023344F5B00984246D1280000F068FA45
:100FC0003F6807223B00BA331E883B6A5643F3183A
:100FD0001A68002AFCDADD68EB0003D52801000955
:100FE000FFF758FF00222A4B00981D403B6AF31878
:100FF000DD605A60FFF7CDF9002C10D1204B5B6803
:10100000002B03D008210120FFF7ACFE2000FEBD1D
:1010100001210800FFF7A6FE041E00D188E7184B47
:101020005B68002B03D002210120FFF79BFE194BC8
:101030009C42EBD0184CE9E704210120FFF792FE17
:101040007DE7802040009BE73B681A00BC32196AAC
:10105000126852181168002910DBBA331B889B18DC
:101060001B68002B0ADB04230C4A11690B43136134
:10107000012D01D030BFA3E720BFA1E7054C9FE7BA
:10108000B40500084C05000874050008FF00FFFFC8
:10109000FFFFFFDF05004200FF00420000ED00E01F
:1010A000C0228020064952008B58C0059B009B0837
:1010B00003438B50802388581B0603438B50704793
:1010C0000000264002B4714649084900095649000B
:1010D0008E4402BC7047C046002243088B4274D342
:1010E00003098B425FD3030A8B4244D3030B8B4229
:1010F00028D3030C8B420DD3FF22090212BA030C32
:101100008B4202D31212090265D0030B8B4219D312
:1011100000E0090AC30B8B4201D3CB03C01A524132
:10112000830B8B4201D38B03C01A5241430B8B427A
:1011300001D34B03C01A5241030B8B4201D30B0363
:10114000C01A5241C30A8B4201D3CB02C01A52418A
:10115000830A8B4201D38B02C01A5241430A8B424D
:1011600001D34B02C01A5241030A8B4201D30B0236
:10117000C01A5241CDD2C3098B4201D3CB01C01A50
:10118000524183098B4201D38B01C01A524143095A
:101190008B4201D34B01C01A524103098B4201D348
:1011A0000B01C01A5241C3088B4201D3CB00C01AB5
:1011B000524183088B4201D38B00C01A524143082D
:1011C0008B4201D34B00C01A5241411A00D2014652
:1011D000524110467047FFE701B5002000F006F8C5
:1011E00002BDC0460029F7D076E770477047C04679
:1011F000002B11D1002A0FD1002900D1002802D0E4
:101200000021C943080007B4024802A14018029017
:1012100003BDC046D9FFFFFF03B4684601B502987D
:1012200000F034F8019B9E4602B00CBC7047C046EB
:10123000F0B5CE469946030C9C46130447461B0C5A
:101240001D000E0061460404240C80B50700100C3C
:101250004B436543414360432C0CC01820188C4617
:10126000834203D980235B029846C44449467943AC
:101270005643030C2D042D0C8919634400044019B6
:10128000C918C0BCB946B046F0BDC046F0B5574617
:101290004E464546DE46E0B504000D0092469946AE
:1012A00083B08B4230D82DD04946504600F0D8F854
:1012B00029000600200000F0D3F8331A9846203B9E
:1012C00034D49B4653465A46934042461F005346E9
:1012D00093401E00AF423BD8AF4200D179E05B465D
:1012E000A41BBD41002B00DA76E00022002300920F
:1012F000019301235A4693400193012342469340B0
:10130000009329E08242CFD900220023009201936A
:101310000C9B002B01D01C605D600098019903B00C
:10132000F0BCBB46B246A946A046F0BD42469B462D
:1013300020239B1A5246DA40414613004A468A400F
:10134000170042461F43534693401E00AF42C3D985
:1013500000220023009201934346002BD8D0FB07C4
:1013600072081A4346467B080EE0AB4201D1A24206
:101370000CD8A41A9D41012024196D410021013E81
:1013800024184D41002E06D0AB42EED9013E24195F
:101390006D41002EF8D1009801995B460019694112
:1013A000002B24DB2B005A464446D3402A00E2405F
:1013B0001C005B461500002B2ADB26009E403300F4
:1013C00026004746BE403200801A994100900191A4
:1013D0009EE7A342BCD882E74246202300219B1A05
:1013E0000022009101920122DA40019285E74246F3
:1013F00020239B1A2A0046469A402300F340444685
:1014000013432A00E2401C005B461500002BD4DA8F
:1014100042462F002023260097409B1ADE403B00C7
:101420003343CDE71C2101231B04984201D3000C58
:1014300010391B0A984201D3000A08391B09984247
:1014400001D30009043902A2105C40187047C0465D
:10145000040302020101010100000000000000007D
:1014600010B5002903D1FFF7DDFF203002E00800AE
:10147000FFF7D8FF10BDC046F8B5C046F8BC08BCA1
:101480009E467047F8B5C046F8BC08BC9E467047FB
:1014900001B40248844601BC604700BF61020008F5
:1014A0000300000001000000010000000000000037
:1014B00005036000040000000100000000000000BF
:1014C0000100000006046000080000002C05000870
:1014D000B101001000002040000024400000004046
:1014E00000000000000023400000304000003140B8
:1014F00000009F40000022400000104000009B4080
:101500002020202020132010101E2080170075009E
:10151000FF03050104001C03100000001FC00000B1
:1015200000040000000000000019324B647D02023C
:10153000000000804000080B100000000000FF01C8
:101540002002001F00800004FF0810180010001483
:101550000018001C4044484C5000000008100000D7
:101560000800000004000000041000000012000049
:10157000042100000021000000160000401140027C
:10158000C41300138013A01340138813A813200062
:101590001C00000000000000F4FCFF7F01000000C0
:1015A000000000100000000880000000C0150010BE
:1015B00080000008F8020000B003000818020000D4
:1015C00000093D0000093D0000127A0000093D00BD
:1015D000A00F000004000000F5000010C90000107A
:1015E00080B230B5C400002820D0114B1868030029
:1015F000BA331A8807235343026A9A1811680029DC
:10160000FCDA3E210B4A062511600B4A0B4911609A
:10161000A3210B4AC90055500A495450006A545836
:101620001B18002058605358002BFCDA30BDC04610
:101630004C05000804012640080126401E1F00003A
:10164000000026401C05000010B54378FF2B11D187
:1016500000F01AF90400032000F0FEF80121C3682D
:101660005B681A680A431A601A680A42FCD12000B3
:1016700000F0DAF810BDF7B507000020019100F086
:10168000EBF83E4C050023681A005033BC32166854
:101690001B788619002B59D000F0EEF80090032833
:1016A0001AD000F0F1F8364A364B0400D358002B1C
:1016B0003CDA01212800344A00F0F6F8002835D140
:1016C0000198FFF78DFF002F3ED03368002BFCDB25
:1016D00000F0BAF805002AE0062000F0BDF8236803
:1016E000BC331B68C0180368002B02DA274D2800A2
:1016F000FEBD002000F0B8F8254B9842F6D000233C
:10170000244A19000120126800F096F8041EEDD159
:10171000002000F0A9F81E4A1F4B904203D09C42C3
:10172000E4D00134F4E79C42BBD1DFE7174D009BC6
:10173000032B05D10121002000F0AEF80028F9D1DB
:10174000200000F071F8D2E7144DF0E700F09CF8AB
:10175000012104000C4A280000F0A6F8002808D156
:10176000002F08D03368002BFCDB00F06DF805007B
:10177000E6E7064DE4E7094DE2E7C0464C05000800
:10178000000026401C05000050050008050052001E
:101790000101880060050008F049020001005000C6
:1017A000184BF7B51B6818495A6804230C69234382
:1017B0000B61012824D030BF1300FC331B69002BC0
:1017C0001DD1A324114B12481249E40007681E5989
:1017D0000D680195104D056006251D513E240C60D5
:1017E0000E4C3E351D511D59002DFCDA0C4CFC32BF
:1017F0001461A322D20007609E50019B0B60F7BDCD
:1018000020BFD9E74C05000800ED00E000002640AD
:1018100008012640040126401E1F00001C05000090
:10182000AAAAAAAA0000000001B40248844601BC8A
:10183000604700BF9303001001B40248844601BC16
:10184000604700BFD105001001B40248844601BCC6
:10185000604700BF5904001001B40248844601BC2F
:10186000604700BFA503001001B40248844601BCD4
:10187000604700BF3908001001B40248844601BC2B
:10188000604700BFE102001001B40248844601BC79
:10189000604700BF8B03001001B40248844601BCBE
:1018A000604700BFB907001001B40248844601BC7C
:1018B000604700BFBD0400100000000000000000F1
:1018C0000000000000000000000000000000000018
:1020000000F801088D2300100D00000001240010CD
:102010000124001001240010012400100000000021
:10202000000000000000000000000000FD23001080
:10203000FD23001000000000FD230010FD23001010
:10204000FD23001000000000FD230010FD23001000
:1020500000000000FD230010FD230010FD230010F0
:10206000FD230010FD230010FD230010FD230010B0
:10207000FD23001000000000FD230010FD230010D0
:10208000FD230010FD230010FD230010FD23001090
:10209000FD230010FD230010FD230010FD23001080
:1020A000FD230010FD230010FD230010FD23001070
:1020B000FD230010FD230010FD230010FD23001060
:1020C000FD230010FD230010FD230010FD23001050
:1020D000FD230010FD230010FD230010FD23001040
:1020E000FD230010FD23001000000000FD23001060
:1020F000FD230010FD230010FD230010FD23001020
:1021000000000000FD230010FD230010FD2300103F
:10211000FD230010FD23001000000000000000005F
:10212000FD230010FD230010FD230010FD230010EF
:10213000FD230010FD230010FD230010FD230010DF
:10214000FD230010FD230010FD230010FD230010CF
:10215000FD230010FD230010FD230010FD230010BF
:10216000FD230010FD230010FD230010FD230010AF
:10217000FD230010FD230010FD230010FD2300109F
:10218000FD230010FD230010FD230010FD2300108F
:10219000FD230010FD230010FD230010FD2300107F
:1021A000FD230010FD230010FD230010FD2300106F
:1021B000FD230010FD230010FD230010FD2300105F
:1021C000FD230010FD230010FD230010FD2300104F
:1021D000FD230010FD230010FD230010FD2300103F
:1021E000FD230010FD230010FD230010FD2300102F
:1021F000FD230010FD230010FD230010FD2300101F
:10220000FD230010FD230010FD230010FD2300100E
:10221000FD230010FD230010FD230010FD230010FE
:10222000FD230010FD230010FD230010FD230010EE
:10223000FD230010FD230010FD230010000000000E
:10224000000000000000000000000000FD2300105E
:10225000FD230010FD230010FD230010FD230010BE
:10226000FD230010FD230010FD23001000000000DE
:10227000000000000000000000000000000000005E
:102280000000000000000000FD230010000000001E
:10229000000000000000000000000000000000003E
:1022A000000000000000000000000000000000002E
:1022B000000000000000000000000000000000001E
:1022C000FD230010FD230010FD230010FD2300104E
:1022D00000000000000000000000000000000000FE
:1022E000FD230010FD230010FD230010FD2300102E
:1022F000FD230010FD230010FD2300100348044BB4
:10230000834202D0034B03B118477047A829000845
:10231000A8290008000000000548064B1B1AD90F29
:1023200001EBA301491002D0034B03B118477047DA
:10233000A8290008A82900080000000010B5064CD4
:10234000237843B9FFF7DAFF044B13B10448AFF326
:1023500000800123237010BD982A000800000000AF
:1023600048D8001008B5054B1BB105490548AFF327
:102370000080BDE80840FFF7CFBF00BF00000000AD
:102380009C2A000848D8001070477047FFF7FCFFF0
:1023900072B6144C144DAC4209DA21686268A36825
:1023A000043BA2BFC858D050FAE70C34F3E70F49FA
:1023B0000F4A00209142BCBF41F8040BFAE70D48D8
:1023C0000D490860BFF34F8F00F084F800F068F803
:1023D000FFF7DBFF07F08EF900F0D4FF07F0AEF94E
:1023E000FEE7000054D800106CD80010982A0008AE
:1023F000C43100080020000808ED00E0FEE7FEE719
:1024000000B504207146084202D0EFF3098002E0D3
:10241000EFF30880043005F0F5FCFEE708B5012075
:1024200003F096FF08BD704710B5002005F048FC8A
:1024300000B910BD0446124B186004F079FE01305B
:10244000B4FBF0F00F4B186004F08AFE0130B4FBCF
:10245000F0F40D4B1C60013C0C4BA3FB04239B0CC4
:1024600001330B4A13700B4BA3FB0434A409013452
:10247000094B1C60002005F023FC084B1860D8E7CE
:102480000423000808230008FC22000883DE1B4305
:1024900010230008D34D62100C230008002300080D
:1024A00008B5094803F0F4F8FFF7BDFFFFF7BCFFDC
:1024B00000221146032003F0A7FF044803F0EAFDC1
:1024C000034803F049FE08BDD4D30010B42A000825
:1024D00098BB0010EFF3108172B6074AD2F888302B
:1024E00043F47003C2F88830BFF34F8FBFF36F8F90
:1024F00081F31088704700BF00ED00E008B500F0E0
:1025000029F800F005F808BD08B500F015F808BD79
:1025100010B5064C064A0621204603F0D5FC054AB4
:102520000721204603F0D0FC10BD00BF000331405E
:10253000CCBB001004BC001008B5034801F0A4FD9A
:10254000024801F0A1FD08BD00BC001038BC00101D
:10255000FEE7000010B59621002005F0A5FC04F070
:10256000B3FF0021084604F07FFE002004F0EAFDDE
:10257000012004F0CFFD002004F05CFD4E4B1B68F1
:1025800093F83F4003E0204605F0DAF8013C002CC8
:10259000F9D10021012004F0E3FE002004F052FEF6
:1025A000002872D00021084604F0DAFE0021084617
:1025B00004F028FE002004F09DFD002004F0C2FD80
:1025C000002004F0A7FD002004F034FD00210120CC
:1025D00004F0C6FE0021084604F0C2FE00210220DD
:1025E00004F0BEFE0021032004F0BAFE0021042006
:1025F00004F0B6FE314804F081FF002850D1304885
:1026000005F02CF800284ED10021084604F0FAFD10
:102610000021084604F028FE2A49012005F0B6F8FA
:10262000002843D142F21071012005F03DF9002845
:102630003FD104F055FD002004F026FD002004F0F9
:1026400039FD04F043FD0021084605F0BBFD0120E3
:1026500004F00AFD04F046FE012004F04DFEFFF7F1
:10266000E3FE0021084605F0ADFD174801F00CFD22
:10267000164801F009FD164801F006FD154801F065
:1026800003FD154801F000FD10BD04F097FE40F277
:102690001113984286D10121002004F0B3FD81E797
:1026A0000420FFF755FF0420FFF752FF0320FFF738
:1026B0004FFF0320FFF74CFF482E00083CBC0010E2
:1026C000400D030064BC001050BC001054BC00104E
:1026D00058BC00105CBC001060BC001008B5044879
:1026E00005F04AFC08B1002008BD0248FCE700BF25
:1026F000142300080000020610B501F0C3FC0446D4
:1027000030B1FFF7FBFEFFF7FFFE2CB1204610BDF6
:1027100002F03EF90446F4E7FFF7E0FF0446F5E770
:1027200000B583B04FF4E1330093FF231A4628210C
:10273000292005F08DFE00B101BE03B05DF804FB59
:10274000F0B59C46394C0126C4F884600223C4F8D5
:102750008430374F2A253D600425C4F88450C4F8DE
:102760008850C4F88830C4F888604FEA102EC0B290
:10277000C4F88460C7F800E0C4F88450C4F88850F6
:102780003860C4F88450C4F88850C4F88860080AD7
:10279000C9B2C4F884603860C4F88450C4F8885062
:1027A0003960C4F88450C4F88850C4F88860C4F80C
:1027B0008460C4F884302B213960C4F88450C4F894
:1027C0008850C4F88830C4F88860110AD2B2C4F8BE
:1027D00084603960C4F88450C4F888503A60C4F802
:1027E0008450C4F88850C4F888604FEA1C215FFA0E
:1027F0008CF2C4F884603960C4F88450C4F88850FE
:102800003A60C4F88450C4F88850C4F88860C4F8AA
:102810008460C4F884302C223A60C4F88450C4F830
:102820008850C4F88830C4F88860F0BD000031409A
:102830000001314070B50446EF23002240F23F1101
:102840001046FFF77DFF4FF0000C1CE0210AE0B2BC
:10285000104B0125C3F884500F4E31600421C3F89A
:102860008410C3F888103060C3F88410C3F888104F
:10287000C3F888502A4492B2B2F5A07FE6D30CF197
:10288000010C1FFA8CFCBCF1EF0F01D80022F3E71A
:1028900070BD00BF00003140000131402DE9F04122
:1028A00007468C4615469846BDF81840A0EB5200E6
:1028B00080B207EB5207B9B212F0010F01D14B1EE3
:1028C00099B2ACEB580292B20CEB58039BB218F0E1
:1028D000010F01D1013B9BB2FFF732FF4FF0000E19
:1028E0001BE0230AE2B210490127C1F884700F4EA1
:1028F00033600423C1F88430C1F888303260C1F8F5
:102900008430C1F88830C1F88870384480B2A84259
:10291000E7D30EF1010E1FFA8EFEC64501D200204C
:10292000F5E7BDE8F08100BF000031400001314013
:102930002DE9F84F86468C4615469946DDF82880E5
:10294000BDF82C70BDF830600024A0EB520080B2BE
:102950000EEB520189B212F0010F01D1013989B297
:10296000ACEB590292B20CEB59039BB219F0010F78
:1029700001D1013B9BB2FFF7E3FE4FEAD50C15F006
:10298000070F01D00CF1010C002249E014F0800F78
:102990002AD1330A5FFA86FE24484FF0010AC0F8B4
:1029A00084A0DFF88CB0CBF800300423C0F884306A
:1029B000C0F88830CBF800E0C0F88430C0F8883028
:1029C000C0F888A06400E4B2013189B2A94225D2DE
:1029D00011F0070FDAD112FB0CF3C80810FA83F3D9
:1029E0009BB218F80340D1E7380A5FFA87FE0F4B15
:1029F0004FF0010AC3F884A0DFF834B0CBF8000030
:102A00000420C3F88400C3F88800CBF800E0C3F8C2
:102A10008400C3F88800C3F888A0D3E7013292B2DB
:102A20004A4501D20021D1E7BDE8F88F00003140CE
:102A3000000131402DE9F843EA4C0125C4F88450E7
:102A40004FF00208C4F88480E74F3D600426C4F8C4
:102A50008460C4F88860C4F88880C4F88850322044
:102A600005F0A8F9C4F88450C4F884804FF0110927
:102A7000C7F80090C4F88460C4F88860C4F88880FF
:102A8000C4F88850782005F095F9C4F88450C4F84B
:102A90008480CF233B60C4F88460C4F88860C4F8A5
:102AA0008880C4F88850C4F8845000233B60C4F880
:102AB0008460C4F88860C4F88850C4F884508322C5
:102AC0003A60C4F88460C4F88860C4F88850C4F8D8
:102AD000845030223A60C4F88460C4F88860C4F836
:102AE0008850C4F88450C4F88480ED223A60C4F859
:102AF0008460C4F88860C4F88880C4F88850C4F83A
:102B0000845064223A60C4F88460C4F88860C4F8D1
:102B10008850C4F8845003223A60C4F88460C4F832
:102B20008860C4F88850C4F8845012223A60C4F80F
:102B30008460C4F88860C4F88850C4F88450812246
:102B40003A60C4F88460C4F88860C4F88850C4F857
:102B50008450C4F88480E8223A60C4F88460C4F8E1
:102B60008860C4F88880C4F88850C4F884508522EE
:102B70003A60C4F88460C4F88860C4F88850C4F827
:102B800084503D60C4F88460C4F88860C4F88850FC
:102B9000C4F8845079223A60C4F88460C4F888602C
:102BA000C4F88850C4F88450C4F88480CB223A60BA
:102BB000C4F88460C4F88860C4F88880C4F8885079
:102BC000C4F8845039223A60C4F88460C4F888603C
:102BD000C4F88850C4F884502C223A60C4F8846049
:102BE000C4F88860C4F88850C4F884503B60C4F8C6
:102BF0008460C4F88860C4F88850C4F884503422D3
:102C00003A60C4F88460C4F88860C4F88850C4F896
:102C10008450C7F80080C4F88460C4F88860C4F8A1
:102C20008850C4F88450C4F88480F7213960C4F80F
:102C30008460C4F88860C4F88880C4F88850C4F8F8
:102C4000845020213960C4F88460C4F88860C4F8D6
:102C50008850C4F88450C4F88480EA213960C4F8EC
:102C60008460C4F88860C4F88880C4F88850C4F8C8
:102C700084503B60C4F88460C4F88860C4F888500D
:102C8000C4F884503B60C4F88460C4F88860C4F819
:102C90008850C4F88450C4F88480C1213960C4F8D5
:102CA0008460C4F88860C4F88880C4F88850C4F888
:102CB0008450C7F80090C4F88460C4F88860C4F8F1
:102CC0008850C4F88450C4F88480C5213960C4F8A1
:102CD0008460C4F88860C4F88880C4F88850C4F858
:102CE00084503A60C4F88460C4F88860C4F888509E
:102CF000C4F884503D223A60C4F88460C4F8886007
:102D0000C4F88850C4F88450C4F88480C7223A605C
:102D1000C4F88460C4F88860C4F88880C4F8885017
:102D2000C4F88450C0223A60C4F88460C4F8886053
:102D3000C4F88850C4F88450C4F8848036223A60BD
:102D4000C4F88460C4F88860C4F88880C4F88850E7
:102D5000C4F8845068223A60C4F88460C4F888607B
:102D6000C4F88850C4F88450C4F884803A223A6089
:102D7000C4F88460C4F88860C4F88880C4F88850B7
:102D8000C4F8845055223A60C4F88460C4F888605E
:102D9000C4F88850C4F88450C4F88480B1223A60E2
:102DA000C4F88460C4F88860C4F88880C4F8885087
:102DB000C4F884503B60C4F88460C4F88860C4F8E8
:102DC0008850C4F884501D223A60C4F88460C4F866
:102DD0008860C4F88850C4F88450C4F88480B62150
:102DE00004E000BF00003140000131403960C4F808
:102DF0008460C4F88860C4F88880C4F88850C4F837
:102E000084500A223A60C4F88460C4F88860C4F828
:102E10008850C4F88450A2203860C4F88460C4F894
:102E20008860C4F88850C4F8845027203860C4F8FB
:102E30008460C4F88860C4F88850C4F884503B604B
:102E4000C4F88460C4F88860C4F88850C4F884501A
:102E5000C4F88480B7233B60C4F88460C4F88860F9
:102E6000C4F88880C4F88850C4F8845007233B60B5
:102E7000C4F88460C4F88860C4F88850C4F88450EA
:102E8000C4F884803960C4F88460C4F88860C4F8E9
:102E90008880C4F88850C4F8845008233B60C4F884
:102EA0008460C4F88860C4F88850C4F88450C4F8BA
:102EB000848026233B60C4F88460C4F88860C4F82A
:102EC0008880C4F88850C4F884503D60C4F8846099
:102ED000C4F88860C4F88850C4F88450C4F884806A
:102EE000E0233B60C4F88460C4F88860C4F888803C
:102EF000C4F88850C4F884501F233B60C4F8846031
:102F0000C4F88860C4F88850C4F884501A233B6021
:102F1000C4F88460C4F88860C4F88850C4F8845049
:102F200018233B60C4F88460C4F88860C4F88850F3
:102F3000C4F884503A60C4F88460C4F88860C4F867
:102F40008850C4F884500F233B60C4F88460C4F8F0
:102F50008860C4F88850C4F8845006233B60C4F8E5
:102F60008460C4F88860C4F88850C4F8845045234D
:102F70003B60C4F88460C4F88860C4F88850C4F822
:102F8000845087233B60C4F88460C4F88860C4F828
:102F90008850C4F884504FF03209C7F80090C4F844
:102FA0008460C4F88860C4F88850C4F884503A60DB
:102FB000C4F88460C4F88860C4F88850C4F88450A9
:102FC00007233B60C4F88460C4F88860C4F8885064
:102FD000C4F88450C7F80080C4F88460C4F88860DE
:102FE000C4F88850C4F884503B60C4F88460C4F8C6
:102FF0008860C4F88850C4F8845005233B60C4F846
:103000008460C4F88860C4F88850C4F884500022F2
:103010003A60C4F88460C4F88860C4F88850C4F882
:103020008450C4F88480E1213960C4F88460C4F815
:103030008860C4F88880C4F88850C4F884503A6026
:10304000C4F88460C4F88860C4F88850C4F8845018
:1030500025223A60C4F88460C4F88860C4F88850B7
:10306000C4F884503860C4F88460C4F88860C4F838
:103070008850C4F884503B60C4F88460C4F8886009
:10308000C4F88850C4F8845010223A60C4F88460B0
:10309000C4F88860C4F88850C4F8845009223A60A3
:1030A000C4F88460C4F88860C4F88850C4F88450B8
:1030B0003A223A60C4F88460C4F88860C4F8885042
:1030C000C4F8845078203860C4F88460C4F88860FC
:1030D000C4F88850C4F884504D213960C4F8846025
:1030E000C4F88860C4F88850C4F884503B60C4F8C1
:1030F0008460C4F88860C4F88850C4F884501823E9
:103100003B60C4F88460C4F88860C4F88850C4F890
:1031100084500D233B60C4F88460C4F88860C4F810
:103120008850C4F8845038233B60C4F88460C4F8E5
:103130008860C4F88850C4F884503A60C4F8846049
:10314000C4F88860C4F88850C4F884501F233B60DA
:10315000C4F88460C4F88860C4F88850C4F8845007
:10316000C4F8848011233B60C4F88460C4F888608C
:10317000C4F88880C4F8885004F01CFEC4F8845059
:10318000C4F8848029233B60C4F88460C4F8886054
:10319000C4F88880C4F88850484604F00BFEBDE8A7
:1031A000F88300BF08B5012306221946082000F065
:1031B00065FE00B108BD012306221946092000F072
:1031C0005DFE0028F6D10123062219460A2000F0F0
:1031D00055FE0028EED1012306221946102000F0EA
:1031E0004DFE0028E6D1012306221946112000F0E9
:1031F00045FE0028DED1012306221946122000F0E8
:103200003DFE0028D6D1012306221946132000F0E6
:1032100035FE0028CED1012306221946142000F0E5
:103220002DFE0028C6D1012306221946152000F0E4
:1032300025FE0028BED1012306221946162000F0E3
:103240001DFE0028B6D1012306221946172000F0E2
:1032500015FEAFE708B5FFF7A5FF00B108BDFFF702
:10326000E9FB0020FFF7E6FAF8E708B500231A4665
:103270001946332000F002FE00231A461946342076
:1032800000F0FCFD00231A461946352000F0F6FD3B
:1032900008BD000008B5FFF743FA044801F0C5FB7C
:1032A0000020FFF7E2FFFFF7D5FF08BD3C2C000828
:1032B00030B5D5B0284806F0EFF9284C204606F086
:1032C000EBF92749274806F0E7F92749274806F090
:1032D000E3F92749274806F0DFF92749274806F090
:1032E000DBF9204606F0D8F9002403E0E0B200F054
:1032F00027F901340D2CF9DD1DE0002222E0002524
:1033000024E0684600F04AF8002408E004EB440298
:10331000D3000DEB0300047500F032F901340D2CDD
:10332000F4DD15E0E0B200F00BF901340D2CF9DD0D
:10333000322001F075FB124BD3F8103313F0080F55
:10334000DBD1012213F0100FD9D10125002AD8D1E9
:10335000002DEDD00024E9E76CBC001078BC001013
:1033600030230008B0BC0010B8BC0010C4BC001072
:10337000D4BC0010E0BC001040230008F0BC0010DA
:103380000000314008B5FFF7B7F900B101BE62B6E1
:10339000FFF780FFFFF78CFFFEE70000F0B585B078
:1033A000044600210D2910DC01EB410004EBC002B2
:1033B000002344F8303053609360D360136153614D
:1033C0000A2304F830300131ECE7032511E0039AB9
:1033D00053085549A1FB03139B08C3EBC303A2EB9E
:1033E000430303EB430304EBC30214F833300A2B0B
:1033F0000DD0BDB14D4903AB009320230A464C4884
:10340000006802F033FB0028E1D001BEDFE716467A
:10341000484F0FCF0FC697E8030086E80300013D31
:10342000EDB2E6E7032511E0039A53083E49A1FBFC
:1034300003139B08C3EBC303A2EB430303EB430358
:1034400004EBC30614F833300A2B0ED0002D53D0F2
:10345000364903AB009320230A463548006802F042
:1034600005FB0028E0D001BEDEE7304903AB009346
:1034700020230A462E48006802F0F8FA00B101BE87
:10348000039B2D4AA2FB031222F0010101EB520221
:103490009B1A13F0FF0313D0012B0FD0092303EB6A
:1034A0004302244B03EBC20CBCE80F000FC69CE8A0
:1034B000030086E80300013DEDB2C7E70823EEE70D
:1034C0000723ECE701BE039A1C4BA3FB0213D11A9E
:1034D00003EB51039B08C3EBC303D31ADBB203EB2B
:1034E0004303144A02EBC30CBCE80F000FC69CE870
:1034F000030086E8030001350D2D13DC05EB4503C1
:1035000004EBC30614F833300A2BF4D1074903AB9C
:10351000009320230A460648006802F0A7FA002814
:10352000D1D0CFE705B0F0BD93244992B71DC104B7
:103530003C2C00085CC90010ABAAAAAA2549922419
:1035400030B585B00D4B53F820000390BDF80C400A
:10355000BDF80E504FF47843009338231A4629469D
:103560002046FFF79BF90023009332231A46294691
:103570002046FFF793F905B030BD00BF5023000887
:1035800070B586B00446037D134A52F823000590B7
:10359000BDF81450BDF816601846FFF7D1FFA37DA3
:1035A0006BB1A3890293E389019363680093238934
:1035B000628931462846FFF7BBF906B070BDE38942
:1035C0000293A3890193636800932389628931463A
:1035D0002846FFF7ADF9F0E750230008000000008F
:1035E0000230800803D001300238FCD100BF00BF98
:1035F0007047EFF3108072B6704780F31088704701
:1036000001BE0148704700BF02020204024B0B607A
:103610000723136000207047DC23000808B54078BA
:1036200004F04EFB08BD000038B5054614468A423A
:1036300094BF00230123834209D080F001038A4212
:103640002CBF002101218B4201D04DB138BD04F0C7
:1036500055FD054BA3FB0431890C04F025FCF4E770
:10366000FEF7E2FEF2E700BF83DE1B432DE9F041E7
:1036700004460A78A2F10D03DBB2012B04D90F2A0C
:103680002FD14E78013600E04E78002003F00CFE7A
:103690000746002003F0D6FD04F0F2FA20FA07F8FE
:1036A000304604F0EDFA20FA07F763786BB1F1B217
:1036B000607803F0A7FD054663789BB958B93A4690
:1036C00041460020FFF7B0FF0CE03A46414601209A
:1036D000FFF7AAFFEBE7424639460020FFF7A4FFB9
:1036E00000E0024D2846BDE8F08100BF010202045F
:1036F000F8B505460139072935D8DFE801F0042679
:10370000340634343424002600E00226002003F07E
:10371000CBFD0746002003F095FD04F0B1FA20FA36
:1037200007F720FA06F46B788BB13146687803F01E
:103730009BFD06466B78BBB978B922463946002016
:10374000FFF772FF10E00326E0E70126DEE72246DE
:1037500039460120FFF768FFE7E73A462146002097
:10376000FFF762FF00E0014E3046F8BD00020204A0
:1037700008B519B1407803F0FFFC08BD407803F0AC
:1037800025FDFAE708B5407803F00EFD08BD08B541
:1037900090F800C01CF0020F06D14A1E41780CF0D0
:1037A000030003F0EDFA08BD00234A1E41780CF037
:1037B000030003F027FBF6E708B531B10378417841
:1037C00003F0030003F0C2FB08BD0378417803F067
:1037D000030003F0FDFBF7E70048704750D20010EC
:1037E0002DE9F04182B007460D469046084601F0AB
:1037F000E0FEC6B2002401E00134E4B2B44213D2C8
:1038000005238DF804308DF805508DF8064001A889
:1038100000F03AFC03460028EED13D707C70012296
:10382000BA70C7F8048000E0024B184602B0BDE849
:10383000F08100BF020D020430B583B00C4605468E
:1038400078B184B105238DF8043023788DF80530E4
:1038500063788DF8063001A800F016FC28B103B09B
:1038600030BD01BEEDE701BEECE7226863682A6067
:103870006B600123AB70F2E710B5034648B11878CE
:10388000122808D003280AD9586844681846A04767
:1038900010BD01BEF3E71846FFF76AFFF8E71846C8
:1038A000FFF78AFFF4E708B5034648B11A78122AF1
:1038B00008D0032A0AD95A6812691846904708BDE9
:1038C00001BEF3E71846FFF713FFF8E71846FFF7C6
:1038D0005EFFF4E710B582B0044690B1A37803B957
:1038E00001BE05238DF8043023788DF80530637808
:1038F0008DF8063001A800F00BFC0023A37002B085
:1039000010BD01BEEAE70000074A32F8303002EB92
:10391000C000418882880B431343DBB28279134392
:1039200014BF012000207047442C00082DE9F0410D
:1039300007460E4615460024DFF8708014B1404655
:10394000BDE8F08105EB8403154A32F81320154BCE
:1039500033F815309A4212D2062333707470002364
:10396000B370114B3B602046FFF7CEFF68B930467D
:1039700000F08AFB804620B1B8F1000F06D0013478
:10398000DCE7386801F090FFF6E7A046044A05EB53
:10399000840532F81530013322F81530CFE700BF27
:1039A000442C000890D2001000001040010D0204C9
:1039B00008B5034648B11A78082A08D0092A00D069
:1039C00001BE184600F0BAF908BD01BEF3E718467B
:1039D00000F0ACF8F8E708B5034648B118780828B5
:1039E00008D0092800D001BE184600F0EDF908BD46
:1039F00001BEF3E7184600F0D5F8F8E708B503462E
:103A000048B11A78082A08D0092A00D001BE184601
:103A100000F0FAF908BD01BEF3E7184600F0F2F82D
:103A2000F8E710B50446B8B12046FFF7C1FF00B172
:103A300001BE02212046FFF7E1FF00B101BEB4F84C
:103A4000781059B92378082B10D02378092B11D07E
:103A500094F87A3093B110BD01BEE5E7022220460A
:103A6000FFF7B9FF0028EDD001BEEBE7204600F0DC
:103A70001FF8EAE7204600F007F9E9E7204600F0E2
:103A800047FBE8E70023012B06D8054A52F823201C
:103A900022B90133DBB2F6E70020704701207047FE
:103AA0004C2C000802304000C0B20844C0B270473D
:103AB00010B50446443002F045F8A178164802F0EB
:103AC0004BF863785B00DBB2A2781344DBB203F1FE
:103AD00034010B4601F01F015B0901228A402033AB
:103AE0000E4941F82320BFF34F8FBFF36F8F6278E9
:103AF0005200D2B2A3781344DBB2094A002142F843
:103B00002310FFF7BFFF00B110BD064800F034FFDF
:103B1000054B00221A70F7E700002A4000E100E0A0
:103B20004C2C0008F8230008542C0008054B9B6817
:103B3000DBB2817801228A401A4214BF01200020A2
:103B4000704700BF00002A4038B5022922D008295A
:103B500020D0012914D001BE19E000231D430134F7
:103B6000E4B2012C0FD875B90C4B53F8240000288F
:103B7000F3D0FFF7DBFF08B10123EFE70023EDE708
:103B800000242546EDE785F00105054B1D70044B2B
:103B9000187838BD024B00221A70F8E74C2C000848
:103BA000542C0008022A27D810B50C468378012B24
:103BB00000D901BE114910331B02CA5822F000423D
:103BC000CA50436C23F0C003436443F08003436452
:103BD0008378012B00D901BE084910331B02CA5853
:103BE00042F00042CA5081784078FFF75BFF0146FF
:103BF000204600F0BBFB10BD0148704700002A4082
:103C00000106020402291ED88378012B00D901BEC7
:103C10000E4910331B02CA5822F00042CA50436CAE
:103C200023F03003436443F0300343648378012B73
:103C300000D901BE054910331B02CA5842F00042A8
:103C4000CA50002070470248704700BF00002A4059
:103C50000106020400233D2B06D8054A52F8232012
:103C600022B90133DBB2F6E700207047012070472C
:103C7000582C0008C0EB00104000C0B20844C0B28D
:103C80000630C0B27047000010B50446443001F061
:103C90000BFF637873BB2348A17801F011FF6278B2
:103CA00012B9A3781C2B27D912B9A3781D2B25D9BB
:103CB000012A25D0012A28D001BE40F2FF3303F0AB
:103CC0001F015B0901228A402033174941F8232054
:103CD000BFF34F8FBFF36F8F6378C3EB0313A278EB
:103CE00002EB4303114A002142F82310FFF7B2FF11
:103CF00080B110BD0E48CFE73833E0E79133DEE7FF
:103D0000A3781C2BD6D85533D9E7A3781F2BD3D84B
:103D10008E33D4E7074800F02FFE074B00221A70BD
:103D2000E7E700BF0000284000E100E0582C000851
:103D30000000294008240008502D000843786BB982
:103D4000074B084A1268B2F85E100B448178B2F84B
:103D5000602002FB01335868C00F7047024BF0E748
:103D600000002840482E00080000294038B50229EC
:103D700022D0082920D0012914D001BE19E0002347
:103D80001D430134E4B23D2C0FD875B90C4B53F8E8
:103D900024000028F3D0FFF7D1FF08B10123EFE79B
:103DA0000023EDE700242546EDE785F00105054BEE
:103DB0001D70044B187838BD024B00221A70F8E7CA
:103DC000582C0008502D0008022A19D838B504468E
:103DD0000D46B0F8783003B901BE636C23F0C00320
:103DE000636443F080036364A1786078FFF742FF67
:103DF0000146284600F0BAFA08B9A4F8780038BDA0
:103E00000048704701060204022908D8436C23F0D9
:103E10003003436443F0300343640020704701489B
:103E2000704700BF0106020408281CD8DFE800F034
:103E30000923051E0B0D0F1113000A20012917D0AD
:103E40007047082070470C20F8E70D20F6E70E2099
:103E5000F4E70F20F2E74B1EDBB2012B01D908205B
:103E6000ECE70E20EAE701BE0820E7E70B20E5E7D4
:103E700000F0070070470020E2E700002DE9F04362
:103E800087B00F4616461D462F4B1B78FBB94FF0E7
:103E9000000C07E02D4C002344F82C300CF1010CF1
:103EA0005FFA8CFCBCF10E0FF4D94FF0000C08E067
:103EB000264B03EB4C0300229A870CF1010C5FFAAE
:103EC0008CFCBCF1050FF3D91F4B01221A700B2398
:103ED0008DF80830C4088DF8094000F007088DF807
:103EE0000A80029BADF814301B0C8DF81630059B30
:103EF000ADF810301B0C8DF81230049BADF80C306F
:103F00001B0C8DF80E3003A800F0BEF8814618B1E6
:103F1000484607B0BDE8F08339463046FFF784FFD6
:103F200002460E2C0BD80A4B1B68986900EBC41094
:103F3000002300932B46414601F0E6FEE8E7044BE0
:103F40001B689869F4E700BF512D0008B8290008E4
:103F5000482E000870B504280DD00D4611460246C3
:103F60003C4C34F810E0441C1D2C07D8E4B2394E08
:103F700036F8144004E00D250520F0E74FF4827474
:103F80004FF0010C0CFA02FC334A0CEA02023AB977
:103F9000AE44A3F800E01B88A34258D2002070BDB5
:103FA000C21E182A32D8DFE802F00D313431310F49
:103FB00025312931313131312B312D31313131310F
:103FC000312F2700254A00E0254A1C80002AE2D034
:103FD0000338182836D8DFE800F01E353835351E8E
:103FE0002F353135353535351E351E3535353535B9
:103FF00035331E001B4AE8E71B4AE6E71B4AE4E7A5
:104000001B4AE2E71B4AE0E71B4ADEE701BE00224B
:10401000DBE71A4AD9E70126B542BCD232F81500CF
:10402000704411FA80F11980691CB142B3DA32F898
:1040300011407444A4B2AEE70226EDE71026EBE788
:104040000226E9E701BE0026E6E71A26E4E70C4867
:10405000A5E700BF08D30010280B0A0C98D2001067
:10406000D0D20010D4D2001004D30010D8D2001047
:10407000F8D20010FCD2001000D300109CD2001027
:10408000000D020400207047F0B583B004460027FD
:10409000FFF7AFFA06460DF10603A27861782078A3
:1040A000FFF758FF054668B9BDF80630C3F3C702ED
:1040B00003F007031449895C012202FA03F3194251
:1040C00018BF174605B9EFB92DB13046FFF795FA7D
:1040D000284603B0F0BD0DF10603A2786178207880
:1040E000FFF738FF05460028EFD1BDF80630C3F3CF
:1040F000C70103F00703044801229A40435C1343BD
:104100004354E2E7014DE0E7542D0008010D02049D
:1041100030B583B00446FFF76CFA05460DF106038F
:10412000A27861782078FFF715FF014668B9BDF8DD
:104130000630C3F3C70003F00702074C0123934086
:10414000DB435BB2225C1340235401B101BE28461D
:10415000FFF753FA03B030BD542D00080246002388
:10416000184603B1704702B118460133DBB2F8E7D5
:1041700010B50446FFF7F2FF204610BD002001E015
:104180000130C0B2142805D8044B1B5C002BF7D0BB
:1041900040B270474FF0FF30704700BF0CCC0010AA
:1041A00038B504460D46FFF7E9FF114B1B5D83B19F
:1041B000104B1A689368B2F870100B44201A103034
:1041C000B2F8722002FB00F000EB8501C858C0B2C3
:1041D00038BD084B1A689368B2F870100B44B2F8F7
:1041E000722002FB04F404EB8501C858EFE700BF1E
:1041F0000CCC0010482E00082DE9F84304461E465A
:104200009DF820809DF82470224B1B5CC3B1411A9D
:10421000CCB22046FFF7ACFF46EA00262046FFF767
:104220009DFF46EA004040F0804040F4805027B1B6
:104230004246002104F046F823E004F091F820E023
:104240001546FFF795FF4FEA002945EA002520466D
:10425000FFF784FF45EA004549EA060949EA0049B3
:1042600049F080417FB90C4B19688B68B1F8702018
:104270001A44B1F8723003FB04F404EB8603002007
:104280009850BDE8F88343460022284603F0BEFF5D
:10429000F7E700BF0CCC0010482E00082DE9F047CE
:1042A00082B00C469046C0F3470600F00107FFF7C6
:1042B00065FF8146264B1D5D1B57002B14DB142D1B
:1042C0003FD8244B13F804A000242A46224B33F88D
:1042D0001530A34231D9214B53F825301B5DB34231
:1042E00008D00134A4B2F0E705F07F0555FA80F557
:1042F000EDB2E4E71A4B9B5C1BB11FFA8AF3A342B1
:1043000021D1B8F1020F04D051462846FFF748FFEB
:10431000D8B9B8F1000F01D100200FE0B8F1010FBA
:1043200014BF00230123019300975346E2B25FFAC2
:1043300089F12846FFF760FF00E00A4802B0BDE8B7
:10434000F0870848FAE70748F8E70748F6E700BFAC
:104350009CCB00107CD10010ECD100108823000809
:104360000CCC0010010C0204000C020408B502225F
:10437000FFF794FF08BD000070B582B00D4683784A
:10438000772B16D8DA08134909688E6906EBC2162E
:10439000C27803F00704009201232A4621463046E2
:1043A00001F0B2FC0A2D08D00B2D0CD0002002B079
:1043B00070BD084A12689669EAE701222146304634
:1043C00001F0FAFCF2E700222146304601F0F4FC4D
:1043D000ECE700BF482E000810B582B001467728F0
:1043E00010D8C308094A1268906900EBC310002472
:1043F00000940123082201F0070101F085FC20460A
:1044000002B010BD014B1B689869F0E7482E000808
:1044100000B583B0ADF8000001911146684603F085
:1044200095FC03B05DF804FB38B50346084850F826
:104430002340084850F8235044B12DB100231846BA
:104440000BB92046A84738BD0123F8E70123F6E75A
:10445000902D0008782D00082DE9F04105460E4604
:10446000084601F08EF8074600244FF0010817E0D7
:10447000022229463846FFF7D7FF0137FFB2BC4278
:10448000F6D8022E1AD0082E18D0012E19D1B8F164
:10449000000F16D00C4B01221A7012E00134E4B266
:1044A000052CEED83A4629462046FFF7BDFF804648
:1044B0000028F3D1012EF1D10027E0E7024B0022C2
:1044C0001A704046BDE8F081752D000802460020B4
:1044D000052806D8044B1B5C934203D00130C0B2C0
:1044E000F6E7FF20704700BF60D3001008B5123810
:1044F00020281ED8DFE800F01B1D1D1D1D1D1D1DE1
:104500001D1D1D1D1D1D1D1D1D1D1D1D1D1D1D1DDB
:104510001D1D1D1120131D171900002000E0022091
:10452000FFF7D4FF08BD0420FAE70520F8E70620CE
:10453000F6E701BEFF20F3E70120F1E708B5EFF34E
:104540000580103800B240F2FF33984205D0FFF7E3
:10455000CDFF034B53F8200008BD0020FCE700BF4F
:10456000902D00082DE9F04383B080460E46174693
:104570009946002416E099F802206B789A4201D0FF
:10458000002325E0012323E017238DF80430735C1A
:104590008DF805306B788DF8063001A8FFF774FDB3
:1045A000C8B10134BC421AD2A10006EB840595F8CB
:1045B00002C0C445F5D1B9F1000FE5D099F800303B
:1045C000172BE1D199F80120735C9A42D3D00023D4
:1045D000002BE6D004E001A8FFF79AFD00E00025DB
:1045E000284603B0BDE8F0832DE9F04782B080464D
:1045F0000E4617460024A24600E00134BC4221D2F8
:104600004FEA840906EB8405AB784345F5D116F8EB
:104610002400FFF75BFF17238DF804308DF80500A9
:104620006B788DF8063001A8FFF72EFD0028E4D145
:1046300001A8FFF76DFD16F80920012393404AEA0F
:10464000030ADAE7504602B0BDE8F087014B18785C
:10465000704700BF752D000838B50C461546FFF7AA
:1046600035FF124B43F82040114B43F820500023F4
:104670001A4601E00133DBB2052B08D80B4850F88D
:1046800023000028F6D0012A07D00132F2E72AB928
:1046900004B101BE074800F06FF938BD012AFCD112
:1046A000002CFAD0034800F05BF9F6E7902D0008E3
:1046B000782D0008182400082DE9F04104468846AA
:1046C00016461F4604E0012388F80030E3B1E46891
:1046D00040F28975AC4217D02568002DF7D094F8C8
:1046E00004C036EA0C0CF2D1637937EA0303EED04A
:1046F000A26839463046A8470028E4D1012F01D0EE
:104700000123E1E70023DFE72046BDE8F08170B533
:1047100004460D46164600E0E468AC4210D023681B
:10472000002BF9D094F804C036EA0C0CF4D162796D
:1047300012F0020FF0D1A268022130469847EBE751
:1047400070BD38B505460C46FEF753FFE36813B15C
:10475000FEF753FF38BD2B68E3602C60F8E738B5EF
:1047600004460D46FEF745FF01E003F10C04236803
:1047700040F28972934205D0AB42F6D1EB682360D8
:104780000023EB60FEF739FF38BD00002DE9F04152
:1047900082B00D4600F001FF044601238DF807307A
:1047A000022808D0082806D0102804D01A4B1E680A
:1047B0001A4B1F6803E0184B1F68184B1E682346EE
:1047C0002A460DF107013846FFF776FF80469DF82F
:1047D000073063B930469DF807300BB9012C0ED075
:1047E0009DF80730B3B1002002B0BDE8F081234648
:1047F0002A460DF107013046FFF75EFFEBE72A4638
:1048000001463046FFF783FF2A4641463846FFF708
:104810007EFFE5E70248E7E72C240008282400088B
:10482000FF00420038B50C4620212046FFF7AEFFBE
:104830000546042C01D0284638BD002003F040FA7C
:10484000034BA3FB0031890C012003F02DFBF2E7A1
:1048500083DE1B4338B50C4610212046FFF796FF38
:104860000546082C01D0284638BD002003F028FA60
:10487000034BA3FB0031890C002003F015FBF2E78A
:1048800083DE1B4308B508460821FFF77FFF08BDFC
:1048900010B50446FFF77AFF042C02D0082C17D07D
:1048A00010BD4FF0E0231B6913F0010F04D00E4B35
:1048B0001B7813B1012300E000230C4A1370002B76
:1048C000EED04FF0E022136923F001031361E7E714
:1048D000064B1B78002BE3D04FF0E022136943F026
:1048E00001031361DCE700BFAA2D0008402E000879
:1048F00008B50846012902D1044B1B881BB90221C7
:10490000FFF7C6FF08BD0248FCE700BFA82D00085E
:10491000FF00420008B508460121FFF7B9FF08BDB6
:1049200038B584468E4615460C4C0FCCCCF80000AA
:10493000CCF80410CCF80820CCF80C3007CCCCF81C
:104940001000CCF81410CCF81820CCF800508CF8DB
:1049500004E0604603F010FB38BD00BF74D30010C4
:1049600008B5014618B10348FFF7EBFE08BD01BECC
:10497000F9E700BF2C24000808B5014618B1034828
:10498000FFF7EDFE08BD01BEF9E700BF2C240008CB
:1049900008B503F0B9FB38B9164A00211648FFF7ED
:1049A000BFFF20B9154808BD03F030FBF4E7144AF7
:1049B00001211448FFF7B4FF08B91048F3E7124A81
:1049C00002211248FFF7ACFF08B90C48EBE7104A88
:1049D00003211048FFF7A4FF08B90848E3E70E4A8F
:1049E00004210E48FFF79CFF08B10020DBE70348D5
:1049F000D9E700BF15490010242E0008011A02044F
:104A0000F1480010B42D000885480010D02D000892
:104A100055480010082E000825480010EC2D00080D
:104A200008B503F0C7F9002008BD08B5034628B152
:104A30000122191D1846FEF779FF08BD01BEF7E7F0
:104A4000012803D0022803D10320704702207047B9
:104A5000002070470138032809D8DFE800F0020B76
:104A6000040602207047062070470820704701BEE8
:104A70000220704704207047814206D9091A642336
:104A800003FB01F1B1FBF0F07047411A642303FB13
:104A900001F1B1FBF0F070472DE9F04F87B005460A
:104AA0000E46174698469DF840901E23037100233A
:104AB0004373FF23C37103724372837299421BD005
:104AC000FF2F1DD0FF2E02D1FF2F00F0F680FEF742
:104AD00090FD83467A4BD3F800A0FF2E15D1FF2F0F
:104AE0001BD1B8F1FF0F20D1B9F1FF0F25D1BAF1D9
:104AF000000F2AD000242FE09945E1D0714CB9E095
:104B0000B8F1FF0FDED06F4CB4E008226E4930469A
:104B1000FFF76AFD0AEA000AE1E708226B49384616
:104B2000FFF762FD0AEA000ADBE706226849404611
:104B3000FFF75AFD0AEA000AD6E706226549484609
:104B4000FFF752FD0AEA000AD1E75846FEF755FD85
:104B50005C4C8FE00134E4B22AFA04F313F0010F45
:104B6000F8D017238DF814308DF8154000238DF8F8
:104B7000163005AB082254493046FFF7F3FC01908C
:104B800005AB082251493846FFF7ECFC029005AB13
:104B900006224F494046FFF7E5FC824605AB062258
:104BA0004C494846FFF7DEFC0390FF2E01D0019BE5
:104BB00073B1FF2F01D0029B53B1B8F1FF0F02D0A8
:104BC000BAF1000F04D0B9F1FF0F02D0039B03B973
:104BD00001BE17238DF810302046FFF777FC8DF8C3
:104BE000110000238DF8123004A8FFF74DFA044697
:104BF0005846FEF702FD002C3CD1059BAB801B0CF8
:104C0000AB71FF2E3AD10CB9FF2F40D164B9BAF184
:104C1000000F09D00821504600F057FC044618B98F
:104C20000123EB7285F809805CB9039B4BB1062127
:104C3000184600F04AFC044618B901232B7385F886
:104C40000A9054B9119B5BB300236B7305F11003F9
:104C5000119A92E8030083E803005CB9687902289E
:104C600001D90138C0B2297C6A7C01F0030102F04D
:104C700031F90446204607B0BDE8F08F06210198BF
:104C800000F023FC04460028BDD12E72BBE70821AA
:104C9000029800F01AFC04460028B7D1EF71B5E77E
:104CA00001231A46291D05F1100000F09FFC04465F
:104CB000B0FA80F35B096B73CFE7024CDAE700BF11
:104CC00044D30010001F02047CCB00105CCB00100A
:104CD0002CCB001044CB0010F8B5314D2E68FFF7F7
:104CE0002DFC2860002859D00446014651F8180BC5
:104CF000D0F88C5FD0F8CC7F01F0A6FF15F0200F24
:104D000009D023682022C3F8802FD3F8803FE36CBA
:104D10000BB11046984715F0400F09D02368402288
:104D2000C3F8802FD3F8803FE36C0BB12020984765
:104D300015F0010F04D0E36C13B14FF48070984765
:104D400015F4007F13D023684FF40072C3F8802F4E
:104D5000D3F8803F2268D2F8883F43F4007123F4EF
:104D6000EE6323F0030303B101BEC2F8881F17F0FE
:104D7000400F09D023684022C3F8C02FD3F8C03FAA
:104D8000E36C0BB11020984717F0010F04D0E36CCF
:104D900013B14FF400709847014B1E60F8BD00BF7F
:104DA000442E000838B50C46154602F099FF05FB65
:104DB00004F4B0FBF4F038BD2DE9F84380460E460C
:104DC0000824FF27A14601E00134E4B2102C15D8D5
:104DD00006FB04F502F084FF00EB55012246B1FB0F
:104DE000F5F14046FFF7DEFF01463046FFF744FE8F
:104DF000C0B28742E8D90746A146E5E74846BDE884
:104E0000F883000070B504464079FFF75FFB054664
:104E1000184B53F82000214641F8540B04F11802B6
:104E200001F0BAFC064608B1304670BD0023C4F854
:104E30009C30C4F8A030C4F894300F4B33F91550AF
:104E40000E4A03212846FFF7E3FA002D07DB05F0A1
:104E50001F026D0901239340094A42F82530094A8F
:104E600021466079FFF7F8FB2268136843F000439E
:104E70001360D9E748D3001068D30010D94C001054
:104E800000E100E06950001010B582B00446F0B1B6
:104E9000206840B104F1180101F02EFE206801F0F5
:104EA00007FE0023236023791E2B12D194F8A4302F
:104EB000002B3DD094F8AC303BB994F8B0301E2BA9
:104EC0004DD194F82C311E2B51D102B010BD01BE32
:104ED000DEE76079FFF7FAFA294B33F91030002B3F
:104EE0000CDB03F01F015B0901228A4020332549B6
:104EF00041F82320BFF34F8FBFF36F8F002211467D
:104F00006079FFF7A9FB94F8A43013B11E23237135
:104F1000CCE717238DF804306079FFF7D7FA8DF8C6
:104F20000500A3798DF8063001A8FFF7F1F8EDE749
:104F3000E01D00F0BFFA04F1080000F0BBFA04F134
:104F40000A0000F0B7FA04F1090000F0B3FA637B3D
:104F5000002BAFD004F11000FEF7BCFCAAE704F16F
:104F6000B000FEF75EFD1E2384F8B030A9E704F51B
:104F70009670FEF756FD1E2384F82C31A5E700BF7E
:104F800068D3001000E100E02DE9F04704460D462B
:104F90001646D0F8A8308B4201D0C4F8A810637B25
:104FA00013B93048BDE8F0872746002157F8100BA9
:104FB00001F0A2FD002211463846FEF75DFC28B143
:104FC0002268136843F000431360EBE704F104091F
:104FD00029464846FFF7F0FE8046A06505FB00F530
:104FE00002F07EFE00EB5500B0FBF5F52946384691
:104FF000FEF759FC824638BB424629464846FFF731
:10500000D1FE06B13060002201213846FEF734FCA3
:1050100094F8703023B34FF48033E26D082A01D83E
:105020004FF4006A43EA0A0308F1FF3808F00F085A
:1050300043EA0803226843F0007313602268136890
:1050400043F000431360ADE7002201213846FEF72C
:1050500013FC2268136843F0004313605046A1E735
:105060005346DAE7061F02042DE9F04704461546C9
:10507000037AFF2B0DD0DA08772B05D8A4480068F7
:10508000806900EBC21806E0A14A1268D2F81880C5
:1050900001E04FF00008A27AFF2A0ED0207B18B35F
:1050A000D008772A05D89A4E3668B76907EBC0173B
:1050B00004E097480068876900E0002703F00706CE
:1050C00002F00709102911D020290FD0013D072D2A
:1050D00000F20481DFE815F07E00EA000201090118
:1050E000020102010201EA000027E7E7012D08D0D2
:1050F0004FF0000A082D45D0042D56D05046BDE88B
:10510000F087264656F8180B314601F09BFD10F04B
:10511000010F02D04FF0000AECE73146206801F0A1
:105120008FFDD4F8B43110F0010F0CBF4FF0010A1D
:105130004FF0000A002B14BF4FF0000A0AF0010ADA
:10514000D4F8B031002B14BF4FF0000A0AF0010A66
:10515000BAF1000FCED02168D1F80832C3F30803AA
:10516000D1F80822C2F3C032D34208D1D1F80833B3
:10517000C3F30803002BBDD04FF0000ABAE74FF08D
:10518000000AB7E70022D4F8A8102046FFF7FCFE7B
:1051900047B194F899204946384600F07FFD4FF01A
:1051A000010AA9E74FF0010AA6E7002F00F09A8054
:1051B0004946384600F0E2FD84F8990049463846F1
:1051C00000F007FE00224946384600F067FD4FF028
:1051D000010A93E7254655F8180B294601F032FDE0
:1051E00010F0010F02D04FF0000A87E7294620682F
:1051F00001F026FDD4F8B43110F0010F0CBF4FF0D0
:10520000010A4FF0000A002B14BF4FF0000A0AF009
:10521000010AD4F8B031002B14BF4FF0000A0AF095
:10522000010ABAF1000F3FF469AF2368D3F88C0F7D
:10523000D3F8CCCFD3F80822C2F30802D3F808126F
:10524000C1F3C031CA4253D1D3F80833C3F30803C2
:10525000002B50D1002851D1BCF1000F51D1B8F131
:10526000000F0ED03146404600F088FD84F89800CB
:105270003146404600F0ADFD00223146404600F088
:105280000DFD77B14946384600F078FD84F8990065
:105290004946384600F09DFD00224946384600F058
:1052A000FDFC2946206801F027FC27E722681368E7
:1052B00043F000431360B8F1000F05D094F8982034
:1052C0003146404600F0EAFCF7B194F8992049468F
:1052D000384600F0E3FC4FF0010A0FE701BE4FF043
:1052E000000A0BE74FF0010A08E74FF0010A05E753
:1052F0004FF0000A02E74FF0000AFFE64FF0000A05
:10530000FCE64FF0000AF9E64FF0010AF6E600BFAE
:10531000482E0008F8B506460F461546FFF796F9E1
:10532000A8B93368D3F840332C4602E03368D3F889
:105330004033B3F1FF3F07D1002DF7D04CB101202E
:10534000FFF76EFB013CF1E73B700020F8BD02481F
:10535000FCE70248FAE700BF031A0204021F020436
:1053600038B504460D46FFF771F928B1044806E048
:105370002946206801F001F90028F9D0002038BD45
:10538000031A020408B5034628B131B193F8AC0002
:1053900028B9064808BD01BEF7E701BEF6E753F895
:1053A000180B01F0B5FB0020F4E700BF041F020456
:1053B0002DE9F04182B00D4616461F46DDF82880E3
:1053C0000446002863D04FF4DE720021204604F02A
:1053D00075F9012384F8AC301E2384F8B03084F8CA
:1053E0002C314FF4E133C4F8A830099B01939DF8A8
:1053F000203000933B46324629462046FFF74CFBBF
:10540000054640BB04F1540C294D0FCDACE80F000C
:105410000FCDACE80F000FCDACE80F0095E80F0002
:105420008CE80F00E37A84F87430B8F1000F0ED0E6
:10543000D8F80030E36598F80400FFF70BFB84F818
:10544000610098F80800FFF7FBFA84F86200204634
:10545000FFF7D8FC0546ADB9B8F1000F07D0D8F872
:105460000C1021B1D8F810202046FFF78BFF637B8A
:105470007BB923681B6813F4006F12D080235B088C
:10548000C4F8B8317DB9284602B0BDE8F08101BE4C
:1054900099E70022D4F8A8102046FFF775FD0546CD
:1054A000E7E74023EBE72046FFF7EEFCEBE700BF22
:1054B00090D3001010B504460078FF2800D110BD2D
:1054C00000F037F8FF232370F9E770B584B0044685
:1054D0000D4683780B228DF80020DA088DF8012024
:1054E00003F007038DF80230009BADF80C301B0C65
:1054F0008DF80E30039BADF808301B0C8DF80A3088
:10550000029BADF804301B0C8DF8063001A8FEF7A5
:10551000BBFD064610B1304604B070BD294620469A
:10552000FEF72AFF06460028F5D001A8FEF7F0FD99
:10553000F1E710B584B00446FEF74EFF00B101BE9E
:105540000B238DF80030E3088DF8013004F00704D8
:105550008DF80240009BADF80C301B0C8DF80E301E
:10556000039BADF808301B0C8DF80A30029BADF898
:1055700004301B0C8DF8063001A8FEF7C9FD04B0FD
:1055800010BD431E072B05D8DFE803F0060604060E
:105590000404040601BE01207047431E072B05D8F2
:1055A000DFE803F0060604060404040601BE012039
:1055B0007047122815D8DFE800F00A160C0E1414F4
:1055C0001414141414141412141014140A000420C3
:1055D0007047022070470120704701207047052066
:1055E0007047012070470820704700002DE9F04304
:1055F00083B0054616461F460B4651B1197815294A
:1056000009D01D2914D0052919D00024A1461B4812
:1056100027E001BEF2E71A4B93E8030002AB03E96F
:10562000030069462846FEF707F903B0BDE8F0839A
:10563000144B93E8030002AB03E90300F1E701BE5A
:105640001148F2E74FF00109B5B1FEF7C5F802467F
:1056500041462846FEF7C4F80028E6D0002FE4D0E3
:105660000134032CE1D8094B13F804804645E9D0F6
:10567000B9F1000FF4D0E7E701BEE6E7020D02043E
:1056800028D2001030D2001002020204D0D3001041
:10569000014B1860704700BF482E000830B500F578
:1056A0008054D4F8845400F5004E00F58054646CA6
:1056B00004F00F0CBCF1060FF7D843EA026300F5C3
:1056C0008052936409B9AE450AD000F580535B6CF3
:1056D00013F4803FF9D000F580535B68002BFAD1BA
:1056E00030BD00000368002B00DB704710B5044696
:1056F0004FF0605380220021FFF7D0FF4FF050534E
:10570000802200212046FFF7C9FF4FF0405380223E
:1057100000212046FFF7C2FF4FF0305380220021C6
:105720002046FFF7BBFF4FF0205380220021204688
:10573000FFF7B4FF4FF01053802200212046FFF7FF
:10574000ADFF4FF00053802200212046FFF7A6FF57
:105750004FF0E053802200212046FFF79FFF4FF0DB
:10576000C053802200212046FFF798FF4FF0A0533E
:10577000802200212046FFF791FF4FF080538022C6
:1057800000212046FFF78AFF4FF04063802200216E
:105790002046FFF783FF4FF0006380220021204660
:1057A000FFF77CFF4FF08063802200212046FFF747
:1057B00075FF0023802219462046FFF76FFF064B36
:1057C0001B689B085B0343F0705380220021204636
:1057D000FFF764FF10BD00BF4C2E000870B51446E3
:1057E0000E46A1B10D46002D50D0002C50D0B4F57E
:1057F000004F50D8B4F5805F2ED01CD8B4F5806F20
:105800002CD00CD9B4F5006F13D178221FE022B947
:1058100000F500454FF48054E5E70D46E3E7B4F5A5
:10582000807F1DD0B4F5007F01D17E220FE01C4D9A
:105830002FE01B4D2DE0B4F5804F13D0B4F5004F91
:1058400001D1002203E0B4F5005F26D16022611E81
:105850000D4009D0124D1CE07022F8E77C22F6E7DB
:105860007F22F4E74022F2E7120200F58053C3F8EA
:105870008824C3F88464A3085B0343F07053802238
:105880000021FFF70BFF074B1C6002E0044D00E016
:10589000034D284670BD024DFBE7014DF9E700BFFF
:1058A0000B0032004C2E000810B50446036823F0AC
:1058B00000430360036823F0004323F48033036054
:1058C00000F580520C4B1364036843F000430360FF
:1058D000032383600123C2F88034084B1B6823B183
:1058E0002046FFF7FFFE002010BD4FF4805200F568
:1058F0000041FFF773FFF3E7010002004C2E0008A0
:10590000034600285DD000295CD00A7D022A00D918
:1059100001BE0022C3F8C822C3F884220C22C3F8B7
:105920000021D3F800214FF4C012C3F80021D3F8AE
:105930000021CA68C3F8A0220A69C3F8A4220A7821
:10594000487842EA0022887842EA0042C878000695
:1059500000F0807002430879000700F08050024395
:105960004879400700F000500243C3F880228A794A
:10597000C879400000F002000243087A800000F07D
:1059800004000243487AC00000F008000243887A0D
:10599000000100F010000243C87A400100F020002E
:1059A0000243C3F884220A7D02F00302C3F8C02236
:1059B0004A7DC3F8D022CA8A098B42EA0142C3F861
:1059C000E02270470049A4E794D40010034602681F
:1059D000002A01DB1148704703F580525068002807
:1059E000FAD1D3F8842212F03F0F11D0D3F800215E
:1059F00012F0040F0ED00822C3F80021D3F80021C2
:105A0000202909D8C3F888120122C3F890227047D0
:105A1000024870470148704701487047080032004B
:105A20000B0032000368002B01DB0D487047D0F8F3
:105A3000843213F03F0F0FD0D0F80021094B1340F0
:105A4000002BF9D0D0F898320B60D0F8003113F465
:105A5000C01F03D1002070470148704702487047BB
:105A600008003200080018000C003100F8B50446A8
:105A70000E4615461F460B49FFF742FF26F000462B
:105A8000C4F8A06225F00045C4F8A4523946204667
:105A9000FFF79CFF00B1F8BD06992046FFF7C2FF53
:105AA000F9E700BF94D40010034638B100221A6011
:105AB0005A609A60DA601A615A61704701BEF5E770
:105AC00030B41E4B98422FD01D4B1B6893F83630D4
:105AD0008B428CBF0023012303B101BE184D2B68FC
:105AE000B3F85E200244B3F8603001FB03F30024F6
:105AF000D4502B68B3F85E200244B3F8605001FB29
:105B000005229460B3F85E200244B3F8605001FBB4
:105B10000522D460B3F85E201044B3F8603001FB76
:105B200003018C6130BC7047054B1B6893F835301E
:105B30008B428CBF00230123CEE700BF000028402A
:105B4000482E00080023036043608360C360036144
:105B500043618361C3617047012900D901BE01F12E
:105B6000100212020023835000EB012000F5815245
:105B7000136041F28802835070470000B0F1204F5B
:105B80003CD018D880283BD007D9B0F5807F3FD0D3
:105B9000244B984209D024487047102832D040281E
:105BA00001D12248704700282ED170474FF4A4003D
:105BB00070471D4870471E4B98422BD02DD31D4B6C
:105BC00098422CD8B0F1704F12D900F180500138B2
:105BD0000428EED801A353F820F000BFAD5B0010FD
:105BE000B35B00100D5C0010F55B0010F95B00105A
:105BF0000D487047104870471048704700207047A4
:105C00000F4870470F487047074870470E48704765
:105C1000044870474FF4A00070470348704702489B
:105C2000C3E700BF06005200FF0052000200500010
:105C3000090000A0050000F002005200030052001D
:105C400005005200010050000100520010B5104B39
:105C50001B6893F83330012B00D801BE0C4B1C6835
:105C6000236AB4F8BA201344D4F8BC20D358002BCC
:105C70000BDB084B1868FFF781FF636801229A600D
:105C800063689B68002BFBD110BD0348FCE700BF95
:105C9000482E0008502E00080200500010B50729B9
:105CA00000D901BE32F01F0300D001BE154B1B68A6
:105CB0009C69001BC0095B694FEA001C03EB0010E4
:105CC00003290FD853F80C00C9004FF01F0E0EFA2D
:105CD00001FE20EA0E0002F01F028A40024343F850
:105CE0000C2010BD04394368C9004FF01F0C0CFA9A
:105CF00001FC23EA0C0302F01F028A401A434260AF
:105D0000EFE700BF482E0008F8B507460D461446D9
:105D10001E469DF81820072900D901BE34F00F0354
:105D200003D1012C01D0092C00D101BE012E00D9D4
:105D300001BE32F01F0300D001BE29463846FFF7EE
:105D4000ADFF3B680122AA4023EA020306F00106E8
:105D5000AE401E433E60084B1B6893F881107B5891
:105D6000AD000F22AA4023EA020304F00F04AC4066
:105D70001C437C50F8BD00BF482E0008072900D9FD
:105D800001BE0C4B1B689A69801AC0095B6902014D
:105D900003EB0010032905D89858C900C84000F04B
:105DA0001F00704704394068C900C84000F01F0058
:105DB000704700BF482E0008072900D901BE012AFC
:105DC00000D901BE01238B400AB94360704783604C
:105DD0007047072900D901BE01238B4083607047BB
:105DE00000B5072900D901BE32F00F0303D1012A03
:105DF00001D0092A00D101BE89000A4B1B6893F823
:105E000081E050F80E304FF00F0C0CFA01FC23EA41
:105E10000C0302F00F028A401A4340F80E205DF88E
:105E200004FB00BF482E000800B5072900D901BEB9
:105E3000012A00D901BE0A4B1B6893F882E050F892
:105E40000E304FF0010C0CFA01FC23EA0C0302F0B7
:105E500001028A401A4340F80E205DF804FB00BF9F
:105E6000482E0008082900D901BE012A00D901BE28
:105E700083694FF0010C0CFA01FC23EA0C0302F0D9
:105E800001028A401A4382617047000000B5082968
:105E900000D901BE032A00D901BE4900094B1B6885
:105EA00093F880E050F80E304FF0030C0CFA01FC30
:105EB00023EA0C0302F003028A401A4340F80E2042
:105EC0005DF804FB482E0008002800F09F80F8B51C
:105ED0000D4614460646002A00F09A80072900D98C
:105EE00001BE2368012B00D901BE636833F00F02A5
:105EF00003D1012B01D0092B00D101BE237A33F04D
:105F00001F0300D001BEE368032B00D901BE236943
:105F1000012B00D901BE6369012B00D901BE236AA0
:105F2000012B00D901BE636A012B00D901BEA36A0F
:105F3000012B00D901BEE36A032B00D901BE236BFC
:105F4000072B00D901BEE369032B00D901BEA36969
:105F5000012B00D901BE0123AB40680010300322A1
:105F6000824013432B4F3A6892F88310725822EA0A
:105F70000302A36903F00103AB401343E26902F09B
:105F80000302824013437350227A29463046FFF7BA
:105F900085FE626829463046FFF722FFE2682946FF
:105FA0003046FFF773FF226929463046FFF75AFF54
:105FB000626929463046FFF737FF3B6893F8841043
:105FC000705820F0FF00236A03F00103626A520058
:105FD00002F002021343A26A920002F00402134389
:105FE000E26AD20002F018021343226B5201D2B2CD
:105FF0001343AA0002F47E72934003437350226855
:1060000029463046FFF7D8FE0020F8BD0248704709
:106010000148FAE7482E000801005A00084B1B68A7
:10602000D3F8BC30C358002B07DA0B0C1B0403B1A8
:1060300001BE89B24160002070470248704700BF2E
:10604000482E000801008A000368002B08DAC260AD
:106050000B0C1B0403B101BE89B2816000207047A4
:106060000048704701008A000A4651B1074B1B687F
:10607000D3F8BC30C358002B05DAC3681360002086
:10608000704701BEF2E70248704700BF482E000883
:1060900001008A00034B1B6803B17047014B186075
:1060A000FBE700BF742E000870B5049C284D2D68D6
:1060B000002D4AD0264D2E682C2505FB00F006EB5E
:1060C000000CDDB23550C3F30720CCF804001B0CE4
:1060D000CCF808301F4B1B6893F833309D4200D337
:1060E00001BE1C4B1B68186AB3F8BA6006FB0500BA
:1060F000CCF81000DCF8040093F83430984200D358
:1061000001BE144B1B681B6A803003EB4013CCF8B4
:106110001430DCF80800050C2D0405B101BE050C97
:106120002D0405B101BE1FFA80FE4EEA00409860C2
:10613000CCF81C20CCF820100023CCF818301CB16F
:10614000B4F90030ACF80C3070BD01BEB2E700BF4E
:10615000742E0008482E000830B58FB00023ADF82B
:1061600030300D930446002847D0A369072B00D98F
:1061700001BEE36A002B42D0236B002B41D00DF10E
:106180001C0C04F1140EBEE80F00ACE80F00DEF8A2
:106190000030CCF800300DF1080CA646BEE80F0028
:1061A000ACE80F00DEF80030CCF80030079B173366
:1061B000ADF83030089B0D930CAD00950B9BA26A97
:1061C000E16A0A98FFF770FF00210091069B0A46DA
:1061D0000598FFF769FF216B284601F0B7FDBDF96F
:1061E0003030002B07DB03F01F015B0901228A40DE
:1061F000054941F823200FB030BD01BEB5E701BE0F
:10620000BAE701BEBBE700BF00E100E070B515468C
